{
	"contracts/4_test.sol": {
		"Test": {
			"abi": [
				{
					"inputs": [],
					"name": "MAX",
					"outputs": [
						{
							"internalType": "uint256",
							"name": "",
							"type": "uint256"
						}
					],
					"stateMutability": "view",
					"type": "function"
				},
				{
					"inputs": [],
					"name": "_rTotal",
					"outputs": [
						{
							"internalType": "uint256",
							"name": "",
							"type": "uint256"
						}
					],
					"stateMutability": "view",
					"type": "function"
				},
				{
					"inputs": [],
					"name": "_tTotal",
					"outputs": [
						{
							"internalType": "uint256",
							"name": "",
							"type": "uint256"
						}
					],
					"stateMutability": "view",
					"type": "function"
				},
				{
					"inputs": [],
					"name": "generate",
					"outputs": [
						{
							"internalType": "uint8",
							"name": "rarity",
							"type": "uint8"
						},
						{
							"internalType": "uint256",
							"name": "productivity",
							"type": "uint256"
						}
					],
					"stateMutability": "nonpayable",
					"type": "function"
				},
				{
					"inputs": [
						{
							"internalType": "uint256",
							"name": "_quality",
							"type": "uint256"
						},
						{
							"internalType": "uint8",
							"name": "_rarity",
							"type": "uint8"
						}
					],
					"name": "getProductivity",
					"outputs": [
						{
							"internalType": "uint256",
							"name": "unfold",
							"type": "uint256"
						}
					],
					"stateMutability": "view",
					"type": "function"
				},
				{
					"inputs": [
						{
							"internalType": "uint256",
							"name": "quality",
							"type": "uint256"
						}
					],
					"name": "getRarity",
					"outputs": [
						{
							"internalType": "uint8",
							"name": "",
							"type": "uint8"
						}
					],
					"stateMutability": "view",
					"type": "function"
				},
				{
					"inputs": [],
					"name": "percent",
					"outputs": [
						{
							"internalType": "uint256",
							"name": "",
							"type": "uint256"
						}
					],
					"stateMutability": "view",
					"type": "function"
				},
				{
					"inputs": [],
					"name": "qualityBase",
					"outputs": [
						{
							"internalType": "uint256",
							"name": "",
							"type": "uint256"
						}
					],
					"stateMutability": "view",
					"type": "function"
				},
				{
					"inputs": [],
					"name": "rate",
					"outputs": [
						{
							"internalType": "uint256",
							"name": "",
							"type": "uint256"
						}
					],
					"stateMutability": "view",
					"type": "function"
				}
			],
			"devdoc": {
				"kind": "dev",
				"methods": {},
				"version": 1
			},
			"evm": {
				"assembly": "    /* \"contracts/4_test.sol\":74:3229  contract Test{\r... */\n  mstore(0x40, 0x80)\n    /* \"contracts/4_test.sol\":273:291  5 * 10**6 * 10**18 */\n  0x0422ca8b0a00a425000000\n    /* \"contracts/4_test.sol\":248:291  uint256 public _tTotal = 5 * 10**6 * 10**18 */\n  0x00\n  sstore\n    /* \"contracts/4_test.sol\":350:357  _tTotal */\n  sload(0x00)\n    /* \"contracts/4_test.sol\":133:134  0 */\n  0x00\n    /* \"contracts/4_test.sol\":124:135  ~uint256(0) */\n  not\n    /* \"contracts/4_test.sol\":344:357  MAX % _tTotal */\n  tag_1\n  swap2\n  swap1\n  tag_2\n  jump\t// in\ntag_1:\n    /* \"contracts/4_test.sol\":133:134  0 */\n  0x00\n    /* \"contracts/4_test.sol\":124:135  ~uint256(0) */\n  not\n    /* \"contracts/4_test.sol\":337:358  MAX - (MAX % _tTotal) */\n  tag_3\n  swap2\n  swap1\n  tag_4\n  jump\t// in\ntag_3:\n    /* \"contracts/4_test.sol\":311:359  uint256 public _rTotal = (MAX - (MAX % _tTotal)) */\n  0x01\n  sstore\n    /* \"contracts/4_test.sol\":482:489  _tTotal */\n  sload(0x00)\n    /* \"contracts/4_test.sol\":472:479  _rTotal */\n  sload(0x01)\n    /* \"contracts/4_test.sol\":472:489  _rTotal / _tTotal */\n  tag_5\n  swap2\n  swap1\n  tag_6\n  jump\t// in\ntag_5:\n    /* \"contracts/4_test.sol\":450:489  uint256 public rate = _rTotal / _tTotal */\n  0x02\n  sstore\n    /* \"contracts/4_test.sol\":525:530  10000 */\n  0x2710\n    /* \"contracts/4_test.sol\":496:530  uint256 public qualityBase = 10000 */\n  0x03\n  sstore\n    /* \"contracts/4_test.sol\":74:3229  contract Test{\r... */\n  callvalue\n  dup1\n  iszero\n  tag_7\n  jumpi\n  0x00\n  dup1\n  revert\ntag_7:\n  pop\n  jump(tag_8)\n    /* \"#utility.yul\":7:192   */\ntag_6:\n    /* \"#utility.yul\":47:48   */\n  0x00\n    /* \"#utility.yul\":64:84   */\n  tag_11\n    /* \"#utility.yul\":82:83   */\n  dup3\n    /* \"#utility.yul\":64:84   */\n  tag_12\n  jump\t// in\ntag_11:\n    /* \"#utility.yul\":59:84   */\n  swap2\n  pop\n    /* \"#utility.yul\":98:118   */\n  tag_13\n    /* \"#utility.yul\":116:117   */\n  dup4\n    /* \"#utility.yul\":98:118   */\n  tag_12\n  jump\t// in\ntag_13:\n    /* \"#utility.yul\":93:118   */\n  swap3\n  pop\n    /* \"#utility.yul\":137:138   */\n  dup3\n    /* \"#utility.yul\":127:162   */\n  tag_14\n  jumpi\n    /* \"#utility.yul\":142:160   */\n  tag_15\n  tag_16\n  jump\t// in\ntag_15:\n    /* \"#utility.yul\":127:162   */\ntag_14:\n    /* \"#utility.yul\":184:185   */\n  dup3\n    /* \"#utility.yul\":181:182   */\n  dup3\n    /* \"#utility.yul\":177:186   */\n  div\n    /* \"#utility.yul\":172:186   */\n  swap1\n  pop\n    /* \"#utility.yul\":7:192   */\n  swap3\n  swap2\n  pop\n  pop\n  jump\t// out\n    /* \"#utility.yul\":198:389   */\ntag_4:\n    /* \"#utility.yul\":238:242   */\n  0x00\n    /* \"#utility.yul\":258:278   */\n  tag_18\n    /* \"#utility.yul\":276:277   */\n  dup3\n    /* \"#utility.yul\":258:278   */\n  tag_12\n  jump\t// in\ntag_18:\n    /* \"#utility.yul\":253:278   */\n  swap2\n  pop\n    /* \"#utility.yul\":292:312   */\n  tag_19\n    /* \"#utility.yul\":310:311   */\n  dup4\n    /* \"#utility.yul\":292:312   */\n  tag_12\n  jump\t// in\ntag_19:\n    /* \"#utility.yul\":287:312   */\n  swap3\n  pop\n    /* \"#utility.yul\":331:332   */\n  dup3\n    /* \"#utility.yul\":328:329   */\n  dup3\n    /* \"#utility.yul\":325:333   */\n  lt\n    /* \"#utility.yul\":322:356   */\n  iszero\n  tag_20\n  jumpi\n    /* \"#utility.yul\":336:354   */\n  tag_21\n  tag_22\n  jump\t// in\ntag_21:\n    /* \"#utility.yul\":322:356   */\ntag_20:\n    /* \"#utility.yul\":381:382   */\n  dup3\n    /* \"#utility.yul\":378:379   */\n  dup3\n    /* \"#utility.yul\":374:383   */\n  sub\n    /* \"#utility.yul\":366:383   */\n  swap1\n  pop\n    /* \"#utility.yul\":198:389   */\n  swap3\n  swap2\n  pop\n  pop\n  jump\t// out\n    /* \"#utility.yul\":395:472   */\ntag_12:\n    /* \"#utility.yul\":432:439   */\n  0x00\n    /* \"#utility.yul\":461:466   */\n  dup2\n    /* \"#utility.yul\":450:466   */\n  swap1\n  pop\n    /* \"#utility.yul\":395:472   */\n  swap2\n  swap1\n  pop\n  jump\t// out\n    /* \"#utility.yul\":478:654   */\ntag_2:\n    /* \"#utility.yul\":510:511   */\n  0x00\n    /* \"#utility.yul\":527:547   */\n  tag_25\n    /* \"#utility.yul\":545:546   */\n  dup3\n    /* \"#utility.yul\":527:547   */\n  tag_12\n  jump\t// in\ntag_25:\n    /* \"#utility.yul\":522:547   */\n  swap2\n  pop\n    /* \"#utility.yul\":561:581   */\n  tag_26\n    /* \"#utility.yul\":579:580   */\n  dup4\n    /* \"#utility.yul\":561:581   */\n  tag_12\n  jump\t// in\ntag_26:\n    /* \"#utility.yul\":556:581   */\n  swap3\n  pop\n    /* \"#utility.yul\":600:601   */\n  dup3\n    /* \"#utility.yul\":590:625   */\n  tag_27\n  jumpi\n    /* \"#utility.yul\":605:623   */\n  tag_28\n  tag_16\n  jump\t// in\ntag_28:\n    /* \"#utility.yul\":590:625   */\ntag_27:\n    /* \"#utility.yul\":646:647   */\n  dup3\n    /* \"#utility.yul\":643:644   */\n  dup3\n    /* \"#utility.yul\":639:648   */\n  mod\n    /* \"#utility.yul\":634:648   */\n  swap1\n  pop\n    /* \"#utility.yul\":478:654   */\n  swap3\n  swap2\n  pop\n  pop\n  jump\t// out\n    /* \"#utility.yul\":660:840   */\ntag_22:\n    /* \"#utility.yul\":708:785   */\n  0x4e487b7100000000000000000000000000000000000000000000000000000000\n    /* \"#utility.yul\":705:706   */\n  0x00\n    /* \"#utility.yul\":698:786   */\n  mstore\n    /* \"#utility.yul\":805:809   */\n  0x11\n    /* \"#utility.yul\":802:803   */\n  0x04\n    /* \"#utility.yul\":795:810   */\n  mstore\n    /* \"#utility.yul\":829:833   */\n  0x24\n    /* \"#utility.yul\":826:827   */\n  0x00\n    /* \"#utility.yul\":819:834   */\n  revert\n    /* \"#utility.yul\":846:1026   */\ntag_16:\n    /* \"#utility.yul\":894:971   */\n  0x4e487b7100000000000000000000000000000000000000000000000000000000\n    /* \"#utility.yul\":891:892   */\n  0x00\n    /* \"#utility.yul\":884:972   */\n  mstore\n    /* \"#utility.yul\":991:995   */\n  0x12\n    /* \"#utility.yul\":988:989   */\n  0x04\n    /* \"#utility.yul\":981:996   */\n  mstore\n    /* \"#utility.yul\":1015:1019   */\n  0x24\n    /* \"#utility.yul\":1012:1013   */\n  0x00\n    /* \"#utility.yul\":1005:1020   */\n  revert\n    /* \"contracts/4_test.sol\":74:3229  contract Test{\r... */\ntag_8:\n  dataSize(sub_0)\n  dup1\n  dataOffset(sub_0)\n  0x00\n  codecopy\n  0x00\n  return\nstop\n\nsub_0: assembly {\n        /* \"contracts/4_test.sol\":74:3229  contract Test{\r... */\n      mstore(0x40, 0x80)\n      callvalue\n      dup1\n      iszero\n      tag_1\n      jumpi\n      0x00\n      dup1\n      revert\n    tag_1:\n      pop\n      jumpi(tag_2, lt(calldatasize, 0x04))\n      shr(0xe0, calldataload(0x00))\n      dup1\n      0x45e0b9d4\n      gt\n      tag_12\n      jumpi\n      dup1\n      0x45e0b9d4\n      eq\n      tag_7\n      jumpi\n      dup1\n      0x48758697\n      eq\n      tag_8\n      jumpi\n      dup1\n      0x70ba1113\n      eq\n      tag_9\n      jumpi\n      dup1\n      0xaf465a27\n      eq\n      tag_10\n      jumpi\n      dup1\n      0xd49d5181\n      eq\n      tag_11\n      jumpi\n      jump(tag_2)\n    tag_12:\n      dup1\n      0x18405ca7\n      eq\n      tag_3\n      jumpi\n      dup1\n      0x2a1bbc34\n      eq\n      tag_4\n      jumpi\n      dup1\n      0x2c4e722e\n      eq\n      tag_5\n      jumpi\n      dup1\n      0x33a7da05\n      eq\n      tag_6\n      jumpi\n    tag_2:\n      0x00\n      dup1\n      revert\n        /* \"contracts/4_test.sol\":1683:2533  function getProductivity(uint256 _quality, uint8 _rarity)\r... */\n    tag_3:\n      tag_13\n      0x04\n      dup1\n      calldatasize\n      sub\n      dup2\n      add\n      swap1\n      tag_14\n      swap2\n      swap1\n      tag_15\n      jump\t// in\n    tag_14:\n      tag_16\n      jump\t// in\n    tag_13:\n      mload(0x40)\n      tag_17\n      swap2\n      swap1\n      tag_18\n      jump\t// in\n    tag_17:\n      mload(0x40)\n      dup1\n      swap2\n      sub\n      swap1\n      return\n        /* \"contracts/4_test.sol\":1381:1675  function generate()\r... */\n    tag_4:\n      tag_19\n      tag_20\n      jump\t// in\n    tag_19:\n      mload(0x40)\n      tag_21\n      swap3\n      swap2\n      swap1\n      tag_22\n      jump\t// in\n    tag_21:\n      mload(0x40)\n      dup1\n      swap2\n      sub\n      swap1\n      return\n        /* \"contracts/4_test.sol\":450:489  uint256 public rate = _rTotal / _tTotal */\n    tag_5:\n      tag_23\n      tag_24\n      jump\t// in\n    tag_23:\n      mload(0x40)\n      tag_25\n      swap2\n      swap1\n      tag_18\n      jump\t// in\n    tag_25:\n      mload(0x40)\n      dup1\n      swap2\n      sub\n      swap1\n      return\n        /* \"contracts/4_test.sol\":496:530  uint256 public qualityBase = 10000 */\n    tag_6:\n      tag_26\n      tag_27\n      jump\t// in\n    tag_26:\n      mload(0x40)\n      tag_28\n      swap2\n      swap1\n      tag_18\n      jump\t// in\n    tag_28:\n      mload(0x40)\n      dup1\n      swap2\n      sub\n      swap1\n      return\n        /* \"contracts/4_test.sol\":311:359  uint256 public _rTotal = (MAX - (MAX % _tTotal)) */\n    tag_7:\n      tag_29\n      tag_30\n      jump\t// in\n    tag_29:\n      mload(0x40)\n      tag_31\n      swap2\n      swap1\n      tag_18\n      jump\t// in\n    tag_31:\n      mload(0x40)\n      dup1\n      swap2\n      sub\n      swap1\n      return\n        /* \"contracts/4_test.sol\":2541:3224  function getRarity(uint256 quality) public view returns (uint8) {\r... */\n    tag_8:\n      tag_32\n      0x04\n      dup1\n      calldatasize\n      sub\n      dup2\n      add\n      swap1\n      tag_33\n      swap2\n      swap1\n      tag_34\n      jump\t// in\n    tag_33:\n      tag_35\n      jump\t// in\n    tag_32:\n      mload(0x40)\n      tag_36\n      swap2\n      swap1\n      tag_37\n      jump\t// in\n    tag_36:\n      mload(0x40)\n      dup1\n      swap2\n      sub\n      swap1\n      return\n        /* \"contracts/4_test.sol\":1176:1373  function percent() public view returns(uint256) {\r... */\n    tag_9:\n      tag_38\n      tag_39\n      jump\t// in\n    tag_38:\n      mload(0x40)\n      tag_40\n      swap2\n      swap1\n      tag_18\n      jump\t// in\n    tag_40:\n      mload(0x40)\n      dup1\n      swap2\n      sub\n      swap1\n      return\n        /* \"contracts/4_test.sol\":248:291  uint256 public _tTotal = 5 * 10**6 * 10**18 */\n    tag_10:\n      tag_41\n      tag_42\n      jump\t// in\n    tag_41:\n      mload(0x40)\n      tag_43\n      swap2\n      swap1\n      tag_18\n      jump\t// in\n    tag_43:\n      mload(0x40)\n      dup1\n      swap2\n      sub\n      swap1\n      return\n        /* \"contracts/4_test.sol\":94:135  uint256 public constant MAX = ~uint256(0) */\n    tag_11:\n      tag_44\n      tag_45\n      jump\t// in\n    tag_44:\n      mload(0x40)\n      tag_46\n      swap2\n      swap1\n      tag_18\n      jump\t// in\n    tag_46:\n      mload(0x40)\n      dup1\n      swap2\n      sub\n      swap1\n      return\n        /* \"contracts/4_test.sol\":1683:2533  function getProductivity(uint256 _quality, uint8 _rarity)\r... */\n    tag_16:\n        /* \"contracts/4_test.sol\":1789:1803  uint256 unfold */\n      0x00\n        /* \"contracts/4_test.sol\":1839:1840  0 */\n      dup1\n        /* \"contracts/4_test.sol\":1829:1836  _rarity */\n      dup3\n        /* \"contracts/4_test.sol\":1829:1840  _rarity > 0 */\n      0xff\n      and\n      gt\n        /* \"contracts/4_test.sol\":1829:1856  _rarity > 0 && _rarity <= 5 */\n      dup1\n      iszero\n      tag_48\n      jumpi\n      pop\n        /* \"contracts/4_test.sol\":1855:1856  5 */\n      0x05\n        /* \"contracts/4_test.sol\":1844:1851  _rarity */\n      dup3\n        /* \"contracts/4_test.sol\":1844:1856  _rarity <= 5 */\n      0xff\n      and\n      gt\n      iszero\n        /* \"contracts/4_test.sol\":1829:1856  _rarity > 0 && _rarity <= 5 */\n    tag_48:\n        /* \"contracts/4_test.sol\":1821:1875  require(_rarity > 0 && _rarity <= 5, \"invalid rarity\") */\n      tag_49\n      jumpi\n      mload(0x40)\n      0x08c379a000000000000000000000000000000000000000000000000000000000\n      dup2\n      mstore\n      0x04\n      add\n      tag_50\n      swap1\n      tag_51\n      jump\t// in\n    tag_50:\n      mload(0x40)\n      dup1\n      swap2\n      sub\n      swap1\n      revert\n    tag_49:\n        /* \"contracts/4_test.sol\":1903:1904  1 */\n      0x01\n        /* \"contracts/4_test.sol\":1892:1899  _rarity */\n      dup3\n        /* \"contracts/4_test.sol\":1892:1904  _rarity == 1 */\n      0xff\n      and\n      eq\n        /* \"contracts/4_test.sol\":1888:2526  if (_rarity == 1) {\r... */\n      iszero\n      tag_52\n      jumpi\n        /* \"contracts/4_test.sol\":1951:1955  5000 */\n      0x1388\n        /* \"contracts/4_test.sol\":1942:1947  20000 */\n      0x4e20\n        /* \"contracts/4_test.sol\":1931:1939  _quality */\n      dup5\n        /* \"contracts/4_test.sol\":1931:1947  _quality * 20000 */\n      tag_53\n      swap2\n      swap1\n      tag_54\n      jump\t// in\n    tag_53:\n        /* \"contracts/4_test.sol\":1930:1955  (_quality * 20000) / 5000 */\n      tag_55\n      swap2\n      swap1\n      tag_56\n      jump\t// in\n    tag_55:\n        /* \"contracts/4_test.sol\":1921:1955  unfold = (_quality * 20000) / 5000 */\n      swap1\n      pop\n        /* \"contracts/4_test.sol\":1986:1992  110000 */\n      0x01adb0\n        /* \"contracts/4_test.sol\":1977:1983  unfold */\n      dup2\n        /* \"contracts/4_test.sol\":1977:1992  unfold + 110000 */\n      tag_57\n      swap2\n      swap1\n      tag_58\n      jump\t// in\n    tag_57:\n        /* \"contracts/4_test.sol\":1970:1992  return unfold + 110000 */\n      swap1\n      pop\n      jump(tag_47)\n        /* \"contracts/4_test.sol\":1888:2526  if (_rarity == 1) {\r... */\n    tag_52:\n        /* \"contracts/4_test.sol\":2025:2026  2 */\n      0x02\n        /* \"contracts/4_test.sol\":2014:2021  _rarity */\n      dup3\n        /* \"contracts/4_test.sol\":2014:2026  _rarity == 2 */\n      0xff\n      and\n      eq\n        /* \"contracts/4_test.sol\":2010:2526  if (_rarity == 2) {\r... */\n      iszero\n      tag_60\n      jumpi\n        /* \"contracts/4_test.sol\":2082:2086  3000 */\n      0x0bb8\n        /* \"contracts/4_test.sol\":2073:2078  20000 */\n      0x4e20\n        /* \"contracts/4_test.sol\":2065:2069  5000 */\n      0x1388\n        /* \"contracts/4_test.sol\":2054:2062  _quality */\n      dup6\n        /* \"contracts/4_test.sol\":2054:2069  _quality - 5000 */\n      tag_61\n      swap2\n      swap1\n      tag_62\n      jump\t// in\n    tag_61:\n        /* \"contracts/4_test.sol\":2053:2078  (_quality - 5000) * 20000 */\n      tag_63\n      swap2\n      swap1\n      tag_54\n      jump\t// in\n    tag_63:\n        /* \"contracts/4_test.sol\":2052:2086  ((_quality - 5000) * 20000) / 3000 */\n      tag_64\n      swap2\n      swap1\n      tag_56\n      jump\t// in\n    tag_64:\n        /* \"contracts/4_test.sol\":2043:2086  unfold = ((_quality - 5000) * 20000) / 3000 */\n      swap1\n      pop\n        /* \"contracts/4_test.sol\":2117:2123  120000 */\n      0x01d4c0\n        /* \"contracts/4_test.sol\":2108:2114  unfold */\n      dup2\n        /* \"contracts/4_test.sol\":2108:2123  unfold + 120000 */\n      tag_65\n      swap2\n      swap1\n      tag_58\n      jump\t// in\n    tag_65:\n        /* \"contracts/4_test.sol\":2101:2123  return unfold + 120000 */\n      swap1\n      pop\n      jump(tag_47)\n        /* \"contracts/4_test.sol\":2010:2526  if (_rarity == 2) {\r... */\n    tag_60:\n        /* \"contracts/4_test.sol\":2156:2157  3 */\n      0x03\n        /* \"contracts/4_test.sol\":2145:2152  _rarity */\n      dup3\n        /* \"contracts/4_test.sol\":2145:2157  _rarity == 3 */\n      0xff\n      and\n      eq\n        /* \"contracts/4_test.sol\":2141:2526  if (_rarity == 3) {\r... */\n      iszero\n      tag_67\n      jumpi\n        /* \"contracts/4_test.sol\":2213:2217  1500 */\n      0x05dc\n        /* \"contracts/4_test.sol\":2204:2209  20000 */\n      0x4e20\n        /* \"contracts/4_test.sol\":2196:2200  8000 */\n      0x1f40\n        /* \"contracts/4_test.sol\":2185:2193  _quality */\n      dup6\n        /* \"contracts/4_test.sol\":2185:2200  _quality - 8000 */\n      tag_68\n      swap2\n      swap1\n      tag_62\n      jump\t// in\n    tag_68:\n        /* \"contracts/4_test.sol\":2184:2209  (_quality - 8000) * 20000 */\n      tag_69\n      swap2\n      swap1\n      tag_54\n      jump\t// in\n    tag_69:\n        /* \"contracts/4_test.sol\":2183:2217  ((_quality - 8000) * 20000) / 1500 */\n      tag_70\n      swap2\n      swap1\n      tag_56\n      jump\t// in\n    tag_70:\n        /* \"contracts/4_test.sol\":2174:2217  unfold = ((_quality - 8000) * 20000) / 1500 */\n      swap1\n      pop\n        /* \"contracts/4_test.sol\":2248:2254  140000 */\n      0x0222e0\n        /* \"contracts/4_test.sol\":2239:2245  unfold */\n      dup2\n        /* \"contracts/4_test.sol\":2239:2254  unfold + 140000 */\n      tag_71\n      swap2\n      swap1\n      tag_58\n      jump\t// in\n    tag_71:\n        /* \"contracts/4_test.sol\":2232:2254  return unfold + 140000 */\n      swap1\n      pop\n      jump(tag_47)\n        /* \"contracts/4_test.sol\":2141:2526  if (_rarity == 3) {\r... */\n    tag_67:\n        /* \"contracts/4_test.sol\":2287:2288  4 */\n      0x04\n        /* \"contracts/4_test.sol\":2276:2283  _rarity */\n      dup3\n        /* \"contracts/4_test.sol\":2276:2288  _rarity == 4 */\n      0xff\n      and\n      eq\n        /* \"contracts/4_test.sol\":2272:2526  if (_rarity == 4) {\r... */\n      iszero\n      tag_73\n      jumpi\n        /* \"contracts/4_test.sol\":2344:2347  400 */\n      0x0190\n        /* \"contracts/4_test.sol\":2335:2340  20000 */\n      0x4e20\n        /* \"contracts/4_test.sol\":2327:2331  9000 */\n      0x2328\n        /* \"contracts/4_test.sol\":2316:2324  _quality */\n      dup6\n        /* \"contracts/4_test.sol\":2316:2331  _quality - 9000 */\n      tag_74\n      swap2\n      swap1\n      tag_62\n      jump\t// in\n    tag_74:\n        /* \"contracts/4_test.sol\":2315:2340  (_quality - 9000) * 20000 */\n      tag_75\n      swap2\n      swap1\n      tag_54\n      jump\t// in\n    tag_75:\n        /* \"contracts/4_test.sol\":2314:2347  ((_quality - 9000) * 20000) / 400 */\n      tag_76\n      swap2\n      swap1\n      tag_56\n      jump\t// in\n    tag_76:\n        /* \"contracts/4_test.sol\":2305:2347  unfold = ((_quality - 9000) * 20000) / 400 */\n      swap1\n      pop\n        /* \"contracts/4_test.sol\":2378:2384  160000 */\n      0x027100\n        /* \"contracts/4_test.sol\":2369:2375  unfold */\n      dup2\n        /* \"contracts/4_test.sol\":2369:2384  unfold + 160000 */\n      tag_77\n      swap2\n      swap1\n      tag_58\n      jump\t// in\n    tag_77:\n        /* \"contracts/4_test.sol\":2362:2384  return unfold + 160000 */\n      swap1\n      pop\n      jump(tag_47)\n        /* \"contracts/4_test.sol\":2272:2526  if (_rarity == 4) {\r... */\n    tag_73:\n        /* \"contracts/4_test.sol\":2417:2418  5 */\n      0x05\n        /* \"contracts/4_test.sol\":2406:2413  _rarity */\n      dup3\n        /* \"contracts/4_test.sol\":2406:2418  _rarity == 5 */\n      0xff\n      and\n      eq\n        /* \"contracts/4_test.sol\":2402:2526  if (_rarity == 5) {\r... */\n      iszero\n      tag_79\n      jumpi\n        /* \"contracts/4_test.sol\":2474:2477  100 */\n      0x64\n        /* \"contracts/4_test.sol\":2465:2470  20000 */\n      0x4e20\n        /* \"contracts/4_test.sol\":2457:2461  9800 */\n      0x2648\n        /* \"contracts/4_test.sol\":2446:2454  _quality */\n      dup6\n        /* \"contracts/4_test.sol\":2446:2461  _quality - 9800 */\n      tag_80\n      swap2\n      swap1\n      tag_62\n      jump\t// in\n    tag_80:\n        /* \"contracts/4_test.sol\":2445:2470  (_quality - 9800) * 20000 */\n      tag_81\n      swap2\n      swap1\n      tag_54\n      jump\t// in\n    tag_81:\n        /* \"contracts/4_test.sol\":2444:2477  ((_quality - 9800) * 20000) / 100 */\n      tag_82\n      swap2\n      swap1\n      tag_56\n      jump\t// in\n    tag_82:\n        /* \"contracts/4_test.sol\":2435:2477  unfold = ((_quality - 9800) * 20000) / 100 */\n      swap1\n      pop\n        /* \"contracts/4_test.sol\":2508:2514  180000 */\n      0x02bf20\n        /* \"contracts/4_test.sol\":2499:2505  unfold */\n      dup2\n        /* \"contracts/4_test.sol\":2499:2514  unfold + 180000 */\n      tag_83\n      swap2\n      swap1\n      tag_58\n      jump\t// in\n    tag_83:\n        /* \"contracts/4_test.sol\":2492:2514  return unfold + 180000 */\n      swap1\n      pop\n      jump(tag_47)\n        /* \"contracts/4_test.sol\":2402:2526  if (_rarity == 5) {\r... */\n    tag_79:\n        /* \"contracts/4_test.sol\":1683:2533  function getProductivity(uint256 _quality, uint8 _rarity)\r... */\n    tag_47:\n      swap3\n      swap2\n      pop\n      pop\n      jump\t// out\n        /* \"contracts/4_test.sol\":1381:1675  function generate()\r... */\n    tag_20:\n        /* \"contracts/4_test.sol\":1434:1446  uint8 rarity */\n      0x00\n        /* \"contracts/4_test.sol\":1448:1468  uint256 productivity */\n      dup1\n        /* \"contracts/4_test.sol\":1486:1498  uint256 seed */\n      0x00\n        /* \"contracts/4_test.sol\":1501:1524  computeSeed(msg.sender) */\n      tag_85\n        /* \"contracts/4_test.sol\":1513:1523  msg.sender */\n      caller\n        /* \"contracts/4_test.sol\":1501:1512  computeSeed */\n      tag_86\n        /* \"contracts/4_test.sol\":1501:1524  computeSeed(msg.sender) */\n      jump\t// in\n    tag_85:\n        /* \"contracts/4_test.sol\":1486:1524  uint256 seed = computeSeed(msg.sender) */\n      swap1\n      pop\n        /* \"contracts/4_test.sol\":1535:1550  uint256 quality */\n      0x00\n        /* \"contracts/4_test.sol\":1560:1571  qualityBase */\n      sload(0x03)\n        /* \"contracts/4_test.sol\":1553:1557  seed */\n      dup3\n        /* \"contracts/4_test.sol\":1553:1571  seed % qualityBase */\n      tag_87\n      swap2\n      swap1\n      tag_88\n      jump\t// in\n    tag_87:\n        /* \"contracts/4_test.sol\":1535:1571  uint256 quality = seed % qualityBase */\n      swap1\n      pop\n        /* \"contracts/4_test.sol\":1591:1609  getRarity(quality) */\n      tag_89\n        /* \"contracts/4_test.sol\":1601:1608  quality */\n      dup2\n        /* \"contracts/4_test.sol\":1591:1600  getRarity */\n      tag_35\n        /* \"contracts/4_test.sol\":1591:1609  getRarity(quality) */\n      jump\t// in\n    tag_89:\n        /* \"contracts/4_test.sol\":1582:1609  rarity = getRarity(quality) */\n      swap4\n      pop\n        /* \"contracts/4_test.sol\":1635:1667  getProductivity(quality, rarity) */\n      tag_90\n        /* \"contracts/4_test.sol\":1651:1658  quality */\n      dup2\n        /* \"contracts/4_test.sol\":1660:1666  rarity */\n      dup6\n        /* \"contracts/4_test.sol\":1635:1650  getProductivity */\n      tag_16\n        /* \"contracts/4_test.sol\":1635:1667  getProductivity(quality, rarity) */\n      jump\t// in\n    tag_90:\n        /* \"contracts/4_test.sol\":1620:1667  productivity = getProductivity(quality, rarity) */\n      swap3\n      pop\n        /* \"contracts/4_test.sol\":1475:1675  {\r... */\n      pop\n      pop\n        /* \"contracts/4_test.sol\":1381:1675  function generate()\r... */\n      swap1\n      swap2\n      jump\t// out\n        /* \"contracts/4_test.sol\":450:489  uint256 public rate = _rTotal / _tTotal */\n    tag_24:\n      sload(0x02)\n      dup2\n      jump\t// out\n        /* \"contracts/4_test.sol\":496:530  uint256 public qualityBase = 10000 */\n    tag_27:\n      sload(0x03)\n      dup2\n      jump\t// out\n        /* \"contracts/4_test.sol\":311:359  uint256 public _rTotal = (MAX - (MAX % _tTotal)) */\n    tag_30:\n      sload(0x01)\n      dup2\n      jump\t// out\n        /* \"contracts/4_test.sol\":2541:3224  function getRarity(uint256 quality) public view returns (uint8) {\r... */\n    tag_35:\n        /* \"contracts/4_test.sol\":2598:2603  uint8 */\n      0x00\n        /* \"contracts/4_test.sol\":2652:2656  1000 */\n      0x03e8\n        /* \"contracts/4_test.sol\":2645:2648  500 */\n      0x01f4\n        /* \"contracts/4_test.sol\":2631:2642  qualityBase */\n      sload(0x03)\n        /* \"contracts/4_test.sol\":2631:2648  qualityBase * 500 */\n      tag_92\n      swap2\n      swap1\n      tag_54\n      jump\t// in\n    tag_92:\n        /* \"contracts/4_test.sol\":2630:2656  (qualityBase * 500) / 1000 */\n      tag_93\n      swap2\n      swap1\n      tag_56\n      jump\t// in\n    tag_93:\n        /* \"contracts/4_test.sol\":2620:2627  quality */\n      dup3\n        /* \"contracts/4_test.sol\":2620:2656  quality < (qualityBase * 500) / 1000 */\n      lt\n        /* \"contracts/4_test.sol\":2616:3217  if (quality < (qualityBase * 500) / 1000) {\r... */\n      iszero\n      tag_94\n      jumpi\n        /* \"contracts/4_test.sol\":2680:2681  1 */\n      0x01\n        /* \"contracts/4_test.sol\":2673:2681  return 1 */\n      swap1\n      pop\n      jump(tag_91)\n        /* \"contracts/4_test.sol\":2616:3217  if (quality < (qualityBase * 500) / 1000) {\r... */\n    tag_94:\n        /* \"contracts/4_test.sol\":2747:2754  quality */\n      dup2\n        /* \"contracts/4_test.sol\":2739:2743  1000 */\n      0x03e8\n        /* \"contracts/4_test.sol\":2732:2735  500 */\n      0x01f4\n        /* \"contracts/4_test.sol\":2718:2729  qualityBase */\n      sload(0x03)\n        /* \"contracts/4_test.sol\":2718:2735  qualityBase * 500 */\n      tag_96\n      swap2\n      swap1\n      tag_54\n      jump\t// in\n    tag_96:\n        /* \"contracts/4_test.sol\":2717:2743  (qualityBase * 500) / 1000 */\n      tag_97\n      swap2\n      swap1\n      tag_56\n      jump\t// in\n    tag_97:\n        /* \"contracts/4_test.sol\":2717:2754  (qualityBase * 500) / 1000 <= quality */\n      gt\n      iszero\n        /* \"contracts/4_test.sol\":2717:2807  (qualityBase * 500) / 1000 <= quality &&\r... */\n      dup1\n      iszero\n      tag_98\n      jumpi\n      pop\n        /* \"contracts/4_test.sol\":2803:2807  1000 */\n      0x03e8\n        /* \"contracts/4_test.sol\":2796:2799  800 */\n      0x0320\n        /* \"contracts/4_test.sol\":2782:2793  qualityBase */\n      sload(0x03)\n        /* \"contracts/4_test.sol\":2782:2799  qualityBase * 800 */\n      tag_99\n      swap2\n      swap1\n      tag_54\n      jump\t// in\n    tag_99:\n        /* \"contracts/4_test.sol\":2781:2807  (qualityBase * 800) / 1000 */\n      tag_100\n      swap2\n      swap1\n      tag_56\n      jump\t// in\n    tag_100:\n        /* \"contracts/4_test.sol\":2771:2778  quality */\n      dup3\n        /* \"contracts/4_test.sol\":2771:2807  quality < (qualityBase * 800) / 1000 */\n      lt\n        /* \"contracts/4_test.sol\":2717:2807  (qualityBase * 500) / 1000 <= quality &&\r... */\n    tag_98:\n        /* \"contracts/4_test.sol\":2699:3217  if (\r... */\n      iszero\n      tag_101\n      jumpi\n        /* \"contracts/4_test.sol\":2841:2842  2 */\n      0x02\n        /* \"contracts/4_test.sol\":2834:2842  return 2 */\n      swap1\n      pop\n      jump(tag_91)\n        /* \"contracts/4_test.sol\":2699:3217  if (\r... */\n    tag_101:\n        /* \"contracts/4_test.sol\":2908:2915  quality */\n      dup2\n        /* \"contracts/4_test.sol\":2900:2904  1000 */\n      0x03e8\n        /* \"contracts/4_test.sol\":2893:2896  800 */\n      0x0320\n        /* \"contracts/4_test.sol\":2879:2890  qualityBase */\n      sload(0x03)\n        /* \"contracts/4_test.sol\":2879:2896  qualityBase * 800 */\n      tag_103\n      swap2\n      swap1\n      tag_54\n      jump\t// in\n    tag_103:\n        /* \"contracts/4_test.sol\":2878:2904  (qualityBase * 800) / 1000 */\n      tag_104\n      swap2\n      swap1\n      tag_56\n      jump\t// in\n    tag_104:\n        /* \"contracts/4_test.sol\":2878:2915  (qualityBase * 800) / 1000 <= quality */\n      gt\n      iszero\n        /* \"contracts/4_test.sol\":2878:2968  (qualityBase * 800) / 1000 <= quality &&\r... */\n      dup1\n      iszero\n      tag_105\n      jumpi\n      pop\n        /* \"contracts/4_test.sol\":2964:2968  1000 */\n      0x03e8\n        /* \"contracts/4_test.sol\":2957:2960  950 */\n      0x03b6\n        /* \"contracts/4_test.sol\":2943:2954  qualityBase */\n      sload(0x03)\n        /* \"contracts/4_test.sol\":2943:2960  qualityBase * 950 */\n      tag_106\n      swap2\n      swap1\n      tag_54\n      jump\t// in\n    tag_106:\n        /* \"contracts/4_test.sol\":2942:2968  (qualityBase * 950) / 1000 */\n      tag_107\n      swap2\n      swap1\n      tag_56\n      jump\t// in\n    tag_107:\n        /* \"contracts/4_test.sol\":2932:2939  quality */\n      dup3\n        /* \"contracts/4_test.sol\":2932:2968  quality < (qualityBase * 950) / 1000 */\n      lt\n        /* \"contracts/4_test.sol\":2878:2968  (qualityBase * 800) / 1000 <= quality &&\r... */\n    tag_105:\n        /* \"contracts/4_test.sol\":2860:3217  if (\r... */\n      iszero\n      tag_108\n      jumpi\n        /* \"contracts/4_test.sol\":3002:3003  3 */\n      0x03\n        /* \"contracts/4_test.sol\":2995:3003  return 3 */\n      swap1\n      pop\n      jump(tag_91)\n        /* \"contracts/4_test.sol\":2860:3217  if (\r... */\n    tag_108:\n        /* \"contracts/4_test.sol\":3069:3076  quality */\n      dup2\n        /* \"contracts/4_test.sol\":3061:3065  1000 */\n      0x03e8\n        /* \"contracts/4_test.sol\":3054:3057  950 */\n      0x03b6\n        /* \"contracts/4_test.sol\":3040:3051  qualityBase */\n      sload(0x03)\n        /* \"contracts/4_test.sol\":3040:3057  qualityBase * 950 */\n      tag_110\n      swap2\n      swap1\n      tag_54\n      jump\t// in\n    tag_110:\n        /* \"contracts/4_test.sol\":3039:3065  (qualityBase * 950) / 1000 */\n      tag_111\n      swap2\n      swap1\n      tag_56\n      jump\t// in\n    tag_111:\n        /* \"contracts/4_test.sol\":3039:3076  (qualityBase * 950) / 1000 <= quality */\n      gt\n      iszero\n        /* \"contracts/4_test.sol\":3039:3129  (qualityBase * 950) / 1000 <= quality &&\r... */\n      dup1\n      iszero\n      tag_112\n      jumpi\n      pop\n        /* \"contracts/4_test.sol\":3125:3129  1000 */\n      0x03e8\n        /* \"contracts/4_test.sol\":3118:3121  990 */\n      0x03de\n        /* \"contracts/4_test.sol\":3104:3115  qualityBase */\n      sload(0x03)\n        /* \"contracts/4_test.sol\":3104:3121  qualityBase * 990 */\n      tag_113\n      swap2\n      swap1\n      tag_54\n      jump\t// in\n    tag_113:\n        /* \"contracts/4_test.sol\":3103:3129  (qualityBase * 990) / 1000 */\n      tag_114\n      swap2\n      swap1\n      tag_56\n      jump\t// in\n    tag_114:\n        /* \"contracts/4_test.sol\":3093:3100  quality */\n      dup3\n        /* \"contracts/4_test.sol\":3093:3129  quality < (qualityBase * 990) / 1000 */\n      lt\n        /* \"contracts/4_test.sol\":3039:3129  (qualityBase * 950) / 1000 <= quality &&\r... */\n    tag_112:\n        /* \"contracts/4_test.sol\":3021:3217  if (\r... */\n      iszero\n      tag_115\n      jumpi\n        /* \"contracts/4_test.sol\":3163:3164  4 */\n      0x04\n        /* \"contracts/4_test.sol\":3156:3164  return 4 */\n      swap1\n      pop\n      jump(tag_91)\n        /* \"contracts/4_test.sol\":3021:3217  if (\r... */\n    tag_115:\n        /* \"contracts/4_test.sol\":3204:3205  5 */\n      0x05\n        /* \"contracts/4_test.sol\":3197:3205  return 5 */\n      swap1\n      pop\n        /* \"contracts/4_test.sol\":2541:3224  function getRarity(uint256 quality) public view returns (uint8) {\r... */\n    tag_91:\n      swap2\n      swap1\n      pop\n      jump\t// out\n        /* \"contracts/4_test.sol\":1176:1373  function percent() public view returns(uint256) {\r... */\n    tag_39:\n        /* \"contracts/4_test.sol\":1215:1222  uint256 */\n      0x00\n        /* \"contracts/4_test.sol\":1235:1247  uint256 seed */\n      dup1\n        /* \"contracts/4_test.sol\":1250:1273  computeSeed(msg.sender) */\n      tag_118\n        /* \"contracts/4_test.sol\":1262:1272  msg.sender */\n      caller\n        /* \"contracts/4_test.sol\":1250:1261  computeSeed */\n      tag_86\n        /* \"contracts/4_test.sol\":1250:1273  computeSeed(msg.sender) */\n      jump\t// in\n    tag_118:\n        /* \"contracts/4_test.sol\":1235:1273  uint256 seed = computeSeed(msg.sender) */\n      swap1\n      pop\n        /* \"contracts/4_test.sol\":1284:1299  uint256 quality */\n      0x00\n        /* \"contracts/4_test.sol\":1335:1340  10000 */\n      0x2710\n        /* \"contracts/4_test.sol\":1318:1331  200 - 100 + 1 */\n      0x65\n        /* \"contracts/4_test.sol\":1310:1313  100 */\n      0x64\n        /* \"contracts/4_test.sol\":1303:1307  seed */\n      dup5\n        /* \"contracts/4_test.sol\":1303:1313  seed % 100 */\n      tag_119\n      swap2\n      swap1\n      tag_88\n      jump\t// in\n    tag_119:\n        /* \"contracts/4_test.sol\":1302:1332  (seed % 100) * (200 - 100 + 1) */\n      tag_120\n      swap2\n      swap1\n      tag_54\n      jump\t// in\n    tag_120:\n        /* \"contracts/4_test.sol\":1302:1340  (seed % 100) * (200 - 100 + 1) + 10000 */\n      tag_121\n      swap2\n      swap1\n      tag_58\n      jump\t// in\n    tag_121:\n        /* \"contracts/4_test.sol\":1284:1340  uint256 quality = (seed % 100) * (200 - 100 + 1) + 10000 */\n      swap1\n      pop\n        /* \"contracts/4_test.sol\":1358:1365  quality */\n      dup1\n        /* \"contracts/4_test.sol\":1351:1365  return quality */\n      swap3\n      pop\n      pop\n      pop\n        /* \"contracts/4_test.sol\":1176:1373  function percent() public view returns(uint256) {\r... */\n      swap1\n      jump\t// out\n        /* \"contracts/4_test.sol\":248:291  uint256 public _tTotal = 5 * 10**6 * 10**18 */\n    tag_42:\n      sload(0x00)\n      dup2\n      jump\t// out\n        /* \"contracts/4_test.sol\":94:135  uint256 public constant MAX = ~uint256(0) */\n    tag_45:\n        /* \"contracts/4_test.sol\":133:134  0 */\n      0x00\n        /* \"contracts/4_test.sol\":124:135  ~uint256(0) */\n      not\n        /* \"contracts/4_test.sol\":94:135  uint256 public constant MAX = ~uint256(0) */\n      dup2\n      jump\t// out\n        /* \"contracts/4_test.sol\":541:1168  function computeSeed(address user) internal view returns (uint256) {\r... */\n    tag_86:\n        /* \"contracts/4_test.sol\":599:606  uint256 */\n      0x00\n        /* \"contracts/4_test.sol\":619:631  uint256 _now */\n      dup1\n        /* \"contracts/4_test.sol\":634:649  block.timestamp */\n      timestamp\n        /* \"contracts/4_test.sol\":619:649  uint256 _now = block.timestamp */\n      swap1\n      pop\n        /* \"contracts/4_test.sol\":662:674  uint256 seed */\n      0x00\n        /* \"contracts/4_test.sol\":1081:1093  block.number */\n      number\n        /* \"contracts/4_test.sol\":1048:1052  _now */\n      dup3\n        /* \"contracts/4_test.sol\":1038:1042  user */\n      dup6\n        /* \"contracts/4_test.sol\":1021:1043  abi.encodePacked(user) */\n      add(0x20, mload(0x40))\n      tag_123\n      swap2\n      swap1\n      tag_124\n      jump\t// in\n    tag_123:\n      mload(0x40)\n      0x20\n      dup2\n      dup4\n      sub\n      sub\n      dup2\n      mstore\n      swap1\n      0x40\n      mstore\n        /* \"contracts/4_test.sol\":1011:1044  keccak256(abi.encodePacked(user)) */\n      dup1\n      mload\n      swap1\n      0x20\n      add\n      keccak256\n        /* \"contracts/4_test.sol\":1003:1045  uint256(keccak256(abi.encodePacked(user))) */\n      0x00\n      shr\n        /* \"contracts/4_test.sol\":1003:1052  uint256(keccak256(abi.encodePacked(user))) / _now */\n      tag_125\n      swap2\n      swap1\n      tag_56\n      jump\t// in\n    tag_125:\n        /* \"contracts/4_test.sol\":960:974  block.gaslimit */\n      gaslimit\n        /* \"contracts/4_test.sol\":927:931  _now */\n      dup5\n        /* \"contracts/4_test.sol\":878:892  block.coinbase */\n      coinbase\n        /* \"contracts/4_test.sol\":861:893  abi.encodePacked(block.coinbase) */\n      add(0x20, mload(0x40))\n      tag_126\n      swap2\n      swap1\n      tag_127\n      jump\t// in\n    tag_126:\n      mload(0x40)\n      0x20\n      dup2\n      dup4\n      sub\n      sub\n      dup2\n      mstore\n      swap1\n      0x40\n      mstore\n        /* \"contracts/4_test.sol\":851:894  keccak256(abi.encodePacked(block.coinbase)) */\n      dup1\n      mload\n      swap1\n      0x20\n      add\n      keccak256\n        /* \"contracts/4_test.sol\":843:895  uint256(keccak256(abi.encodePacked(block.coinbase))) */\n      0x00\n      shr\n        /* \"contracts/4_test.sol\":843:931  uint256(keccak256(abi.encodePacked(block.coinbase))) /\r... */\n      tag_128\n      swap2\n      swap1\n      tag_56\n      jump\t// in\n    tag_128:\n        /* \"contracts/4_test.sol\":798:814  block.difficulty */\n      difficulty\n        /* \"contracts/4_test.sol\":766:770  _now */\n      dup7\n        /* \"contracts/4_test.sol\":766:814  _now +\r... */\n      tag_129\n      swap2\n      swap1\n      tag_58\n      jump\t// in\n    tag_129:\n        /* \"contracts/4_test.sol\":766:932  _now +\r... */\n      tag_130\n      swap2\n      swap1\n      tag_58\n      jump\t// in\n    tag_130:\n        /* \"contracts/4_test.sol\":766:974  _now +\r... */\n      tag_131\n      swap2\n      swap1\n      tag_58\n      jump\t// in\n    tag_131:\n        /* \"contracts/4_test.sol\":766:1053  _now +\r... */\n      tag_132\n      swap2\n      swap1\n      tag_58\n      jump\t// in\n    tag_132:\n        /* \"contracts/4_test.sol\":766:1093  _now +\r... */\n      tag_133\n      swap2\n      swap1\n      tag_58\n      jump\t// in\n    tag_133:\n        /* \"contracts/4_test.sol\":727:1112  abi.encodePacked(\r... */\n      add(0x20, mload(0x40))\n      tag_134\n      swap2\n      swap1\n      tag_135\n      jump\t// in\n    tag_134:\n      mload(0x40)\n      0x20\n      dup2\n      dup4\n      sub\n      sub\n      dup2\n      mstore\n      swap1\n      0x40\n      mstore\n        /* \"contracts/4_test.sol\":699:1127  keccak256(\r... */\n      dup1\n      mload\n      swap1\n      0x20\n      add\n      keccak256\n        /* \"contracts/4_test.sol\":677:1138  uint256(\r... */\n      0x00\n      shr\n        /* \"contracts/4_test.sol\":662:1138  uint256 seed = uint256(\r... */\n      swap1\n      pop\n        /* \"contracts/4_test.sol\":1156:1160  seed */\n      dup1\n        /* \"contracts/4_test.sol\":1149:1160  return seed */\n      swap3\n      pop\n      pop\n      pop\n        /* \"contracts/4_test.sol\":541:1168  function computeSeed(address user) internal view returns (uint256) {\r... */\n      swap2\n      swap1\n      pop\n      jump\t// out\n        /* \"#utility.yul\":7:146   */\n    tag_137:\n        /* \"#utility.yul\":53:58   */\n      0x00\n        /* \"#utility.yul\":91:97   */\n      dup2\n        /* \"#utility.yul\":78:98   */\n      calldataload\n        /* \"#utility.yul\":69:98   */\n      swap1\n      pop\n        /* \"#utility.yul\":107:140   */\n      tag_139\n        /* \"#utility.yul\":134:139   */\n      dup2\n        /* \"#utility.yul\":107:140   */\n      tag_140\n      jump\t// in\n    tag_139:\n        /* \"#utility.yul\":7:146   */\n      swap3\n      swap2\n      pop\n      pop\n      jump\t// out\n        /* \"#utility.yul\":152:287   */\n    tag_141:\n        /* \"#utility.yul\":196:201   */\n      0x00\n        /* \"#utility.yul\":234:240   */\n      dup2\n        /* \"#utility.yul\":221:241   */\n      calldataload\n        /* \"#utility.yul\":212:241   */\n      swap1\n      pop\n        /* \"#utility.yul\":250:281   */\n      tag_143\n        /* \"#utility.yul\":275:280   */\n      dup2\n        /* \"#utility.yul\":250:281   */\n      tag_144\n      jump\t// in\n    tag_143:\n        /* \"#utility.yul\":152:287   */\n      swap3\n      swap2\n      pop\n      pop\n      jump\t// out\n        /* \"#utility.yul\":293:622   */\n    tag_34:\n        /* \"#utility.yul\":352:358   */\n      0x00\n        /* \"#utility.yul\":401:403   */\n      0x20\n        /* \"#utility.yul\":389:398   */\n      dup3\n        /* \"#utility.yul\":380:387   */\n      dup5\n        /* \"#utility.yul\":376:399   */\n      sub\n        /* \"#utility.yul\":372:404   */\n      slt\n        /* \"#utility.yul\":369:488   */\n      iszero\n      tag_146\n      jumpi\n        /* \"#utility.yul\":407:486   */\n      tag_147\n      tag_148\n      jump\t// in\n    tag_147:\n        /* \"#utility.yul\":369:488   */\n    tag_146:\n        /* \"#utility.yul\":527:528   */\n      0x00\n        /* \"#utility.yul\":552:605   */\n      tag_149\n        /* \"#utility.yul\":597:604   */\n      dup5\n        /* \"#utility.yul\":588:594   */\n      dup3\n        /* \"#utility.yul\":577:586   */\n      dup6\n        /* \"#utility.yul\":573:595   */\n      add\n        /* \"#utility.yul\":552:605   */\n      tag_137\n      jump\t// in\n    tag_149:\n        /* \"#utility.yul\":542:605   */\n      swap2\n      pop\n        /* \"#utility.yul\":498:615   */\n      pop\n        /* \"#utility.yul\":293:622   */\n      swap3\n      swap2\n      pop\n      pop\n      jump\t// out\n        /* \"#utility.yul\":628:1098   */\n    tag_15:\n        /* \"#utility.yul\":694:700   */\n      0x00\n        /* \"#utility.yul\":702:708   */\n      dup1\n        /* \"#utility.yul\":751:753   */\n      0x40\n        /* \"#utility.yul\":739:748   */\n      dup4\n        /* \"#utility.yul\":730:737   */\n      dup6\n        /* \"#utility.yul\":726:749   */\n      sub\n        /* \"#utility.yul\":722:754   */\n      slt\n        /* \"#utility.yul\":719:838   */\n      iszero\n      tag_151\n      jumpi\n        /* \"#utility.yul\":757:836   */\n      tag_152\n      tag_148\n      jump\t// in\n    tag_152:\n        /* \"#utility.yul\":719:838   */\n    tag_151:\n        /* \"#utility.yul\":877:878   */\n      0x00\n        /* \"#utility.yul\":902:955   */\n      tag_153\n        /* \"#utility.yul\":947:954   */\n      dup6\n        /* \"#utility.yul\":938:944   */\n      dup3\n        /* \"#utility.yul\":927:936   */\n      dup7\n        /* \"#utility.yul\":923:945   */\n      add\n        /* \"#utility.yul\":902:955   */\n      tag_137\n      jump\t// in\n    tag_153:\n        /* \"#utility.yul\":892:955   */\n      swap3\n      pop\n        /* \"#utility.yul\":848:965   */\n      pop\n        /* \"#utility.yul\":1004:1006   */\n      0x20\n        /* \"#utility.yul\":1030:1081   */\n      tag_154\n        /* \"#utility.yul\":1073:1080   */\n      dup6\n        /* \"#utility.yul\":1064:1070   */\n      dup3\n        /* \"#utility.yul\":1053:1062   */\n      dup7\n        /* \"#utility.yul\":1049:1071   */\n      add\n        /* \"#utility.yul\":1030:1081   */\n      tag_141\n      jump\t// in\n    tag_154:\n        /* \"#utility.yul\":1020:1081   */\n      swap2\n      pop\n        /* \"#utility.yul\":975:1091   */\n      pop\n        /* \"#utility.yul\":628:1098   */\n      swap3\n      pop\n      swap3\n      swap1\n      pop\n      jump\t// out\n        /* \"#utility.yul\":1104:1293   */\n    tag_155:\n        /* \"#utility.yul\":1225:1286   */\n      tag_157\n        /* \"#utility.yul\":1253:1285   */\n      tag_158\n        /* \"#utility.yul\":1279:1284   */\n      dup3\n        /* \"#utility.yul\":1253:1285   */\n      tag_159\n      jump\t// in\n    tag_158:\n        /* \"#utility.yul\":1225:1286   */\n      tag_160\n      jump\t// in\n    tag_157:\n        /* \"#utility.yul\":1220:1223   */\n      dup3\n        /* \"#utility.yul\":1213:1287   */\n      mstore\n        /* \"#utility.yul\":1104:1293   */\n      pop\n      pop\n      jump\t// out\n        /* \"#utility.yul\":1299:1456   */\n    tag_161:\n        /* \"#utility.yul\":1404:1449   */\n      tag_163\n        /* \"#utility.yul\":1424:1448   */\n      tag_164\n        /* \"#utility.yul\":1442:1447   */\n      dup3\n        /* \"#utility.yul\":1424:1448   */\n      tag_165\n      jump\t// in\n    tag_164:\n        /* \"#utility.yul\":1404:1449   */\n      tag_166\n      jump\t// in\n    tag_163:\n        /* \"#utility.yul\":1399:1402   */\n      dup3\n        /* \"#utility.yul\":1392:1450   */\n      mstore\n        /* \"#utility.yul\":1299:1456   */\n      pop\n      pop\n      jump\t// out\n        /* \"#utility.yul\":1462:1828   */\n    tag_167:\n        /* \"#utility.yul\":1604:1607   */\n      0x00\n        /* \"#utility.yul\":1625:1692   */\n      tag_169\n        /* \"#utility.yul\":1689:1691   */\n      0x0e\n        /* \"#utility.yul\":1684:1687   */\n      dup4\n        /* \"#utility.yul\":1625:1692   */\n      tag_170\n      jump\t// in\n    tag_169:\n        /* \"#utility.yul\":1618:1692   */\n      swap2\n      pop\n        /* \"#utility.yul\":1701:1794   */\n      tag_171\n        /* \"#utility.yul\":1790:1793   */\n      dup3\n        /* \"#utility.yul\":1701:1794   */\n      tag_172\n      jump\t// in\n    tag_171:\n        /* \"#utility.yul\":1819:1821   */\n      0x20\n        /* \"#utility.yul\":1814:1817   */\n      dup3\n        /* \"#utility.yul\":1810:1822   */\n      add\n        /* \"#utility.yul\":1803:1822   */\n      swap1\n      pop\n        /* \"#utility.yul\":1462:1828   */\n      swap2\n      swap1\n      pop\n      jump\t// out\n        /* \"#utility.yul\":1834:1952   */\n    tag_173:\n        /* \"#utility.yul\":1921:1945   */\n      tag_175\n        /* \"#utility.yul\":1939:1944   */\n      dup2\n        /* \"#utility.yul\":1921:1945   */\n      tag_176\n      jump\t// in\n    tag_175:\n        /* \"#utility.yul\":1916:1919   */\n      dup3\n        /* \"#utility.yul\":1909:1946   */\n      mstore\n        /* \"#utility.yul\":1834:1952   */\n      pop\n      pop\n      jump\t// out\n        /* \"#utility.yul\":1958:2115   */\n    tag_177:\n        /* \"#utility.yul\":2063:2108   */\n      tag_179\n        /* \"#utility.yul\":2083:2107   */\n      tag_180\n        /* \"#utility.yul\":2101:2106   */\n      dup3\n        /* \"#utility.yul\":2083:2107   */\n      tag_176\n      jump\t// in\n    tag_180:\n        /* \"#utility.yul\":2063:2108   */\n      tag_181\n      jump\t// in\n    tag_179:\n        /* \"#utility.yul\":2058:2061   */\n      dup3\n        /* \"#utility.yul\":2051:2109   */\n      mstore\n        /* \"#utility.yul\":1958:2115   */\n      pop\n      pop\n      jump\t// out\n        /* \"#utility.yul\":2121:2233   */\n    tag_182:\n        /* \"#utility.yul\":2204:2226   */\n      tag_184\n        /* \"#utility.yul\":2220:2225   */\n      dup2\n        /* \"#utility.yul\":2204:2226   */\n      tag_185\n      jump\t// in\n    tag_184:\n        /* \"#utility.yul\":2199:2202   */\n      dup3\n        /* \"#utility.yul\":2192:2227   */\n      mstore\n        /* \"#utility.yul\":2121:2233   */\n      pop\n      pop\n      jump\t// out\n        /* \"#utility.yul\":2239:2495   */\n    tag_124:\n        /* \"#utility.yul\":2351:2354   */\n      0x00\n        /* \"#utility.yul\":2366:2441   */\n      tag_187\n        /* \"#utility.yul\":2437:2440   */\n      dup3\n        /* \"#utility.yul\":2428:2434   */\n      dup5\n        /* \"#utility.yul\":2366:2441   */\n      tag_161\n      jump\t// in\n    tag_187:\n        /* \"#utility.yul\":2466:2468   */\n      0x14\n        /* \"#utility.yul\":2461:2464   */\n      dup3\n        /* \"#utility.yul\":2457:2469   */\n      add\n        /* \"#utility.yul\":2450:2469   */\n      swap2\n      pop\n        /* \"#utility.yul\":2486:2489   */\n      dup2\n        /* \"#utility.yul\":2479:2489   */\n      swap1\n      pop\n        /* \"#utility.yul\":2239:2495   */\n      swap3\n      swap2\n      pop\n      pop\n      jump\t// out\n        /* \"#utility.yul\":2501:2789   */\n    tag_127:\n        /* \"#utility.yul\":2629:2632   */\n      0x00\n        /* \"#utility.yul\":2644:2735   */\n      tag_189\n        /* \"#utility.yul\":2731:2734   */\n      dup3\n        /* \"#utility.yul\":2722:2728   */\n      dup5\n        /* \"#utility.yul\":2644:2735   */\n      tag_155\n      jump\t// in\n    tag_189:\n        /* \"#utility.yul\":2760:2762   */\n      0x14\n        /* \"#utility.yul\":2755:2758   */\n      dup3\n        /* \"#utility.yul\":2751:2763   */\n      add\n        /* \"#utility.yul\":2744:2763   */\n      swap2\n      pop\n        /* \"#utility.yul\":2780:2783   */\n      dup2\n        /* \"#utility.yul\":2773:2783   */\n      swap1\n      pop\n        /* \"#utility.yul\":2501:2789   */\n      swap3\n      swap2\n      pop\n      pop\n      jump\t// out\n        /* \"#utility.yul\":2795:3051   */\n    tag_135:\n        /* \"#utility.yul\":2907:2910   */\n      0x00\n        /* \"#utility.yul\":2922:2997   */\n      tag_191\n        /* \"#utility.yul\":2993:2996   */\n      dup3\n        /* \"#utility.yul\":2984:2990   */\n      dup5\n        /* \"#utility.yul\":2922:2997   */\n      tag_177\n      jump\t// in\n    tag_191:\n        /* \"#utility.yul\":3022:3024   */\n      0x20\n        /* \"#utility.yul\":3017:3020   */\n      dup3\n        /* \"#utility.yul\":3013:3025   */\n      add\n        /* \"#utility.yul\":3006:3025   */\n      swap2\n      pop\n        /* \"#utility.yul\":3042:3045   */\n      dup2\n        /* \"#utility.yul\":3035:3045   */\n      swap1\n      pop\n        /* \"#utility.yul\":2795:3051   */\n      swap3\n      swap2\n      pop\n      pop\n      jump\t// out\n        /* \"#utility.yul\":3057:3476   */\n    tag_51:\n        /* \"#utility.yul\":3223:3227   */\n      0x00\n        /* \"#utility.yul\":3261:3263   */\n      0x20\n        /* \"#utility.yul\":3250:3259   */\n      dup3\n        /* \"#utility.yul\":3246:3264   */\n      add\n        /* \"#utility.yul\":3238:3264   */\n      swap1\n      pop\n        /* \"#utility.yul\":3310:3319   */\n      dup2\n        /* \"#utility.yul\":3304:3308   */\n      dup2\n        /* \"#utility.yul\":3300:3320   */\n      sub\n        /* \"#utility.yul\":3296:3297   */\n      0x00\n        /* \"#utility.yul\":3285:3294   */\n      dup4\n        /* \"#utility.yul\":3281:3298   */\n      add\n        /* \"#utility.yul\":3274:3321   */\n      mstore\n        /* \"#utility.yul\":3338:3469   */\n      tag_193\n        /* \"#utility.yul\":3464:3468   */\n      dup2\n        /* \"#utility.yul\":3338:3469   */\n      tag_167\n      jump\t// in\n    tag_193:\n        /* \"#utility.yul\":3330:3469   */\n      swap1\n      pop\n        /* \"#utility.yul\":3057:3476   */\n      swap2\n      swap1\n      pop\n      jump\t// out\n        /* \"#utility.yul\":3482:3704   */\n    tag_18:\n        /* \"#utility.yul\":3575:3579   */\n      0x00\n        /* \"#utility.yul\":3613:3615   */\n      0x20\n        /* \"#utility.yul\":3602:3611   */\n      dup3\n        /* \"#utility.yul\":3598:3616   */\n      add\n        /* \"#utility.yul\":3590:3616   */\n      swap1\n      pop\n        /* \"#utility.yul\":3626:3697   */\n      tag_195\n        /* \"#utility.yul\":3694:3695   */\n      0x00\n        /* \"#utility.yul\":3683:3692   */\n      dup4\n        /* \"#utility.yul\":3679:3696   */\n      add\n        /* \"#utility.yul\":3670:3676   */\n      dup5\n        /* \"#utility.yul\":3626:3697   */\n      tag_173\n      jump\t// in\n    tag_195:\n        /* \"#utility.yul\":3482:3704   */\n      swap3\n      swap2\n      pop\n      pop\n      jump\t// out\n        /* \"#utility.yul\":3710:3924   */\n    tag_37:\n        /* \"#utility.yul\":3799:3803   */\n      0x00\n        /* \"#utility.yul\":3837:3839   */\n      0x20\n        /* \"#utility.yul\":3826:3835   */\n      dup3\n        /* \"#utility.yul\":3822:3840   */\n      add\n        /* \"#utility.yul\":3814:3840   */\n      swap1\n      pop\n        /* \"#utility.yul\":3850:3917   */\n      tag_197\n        /* \"#utility.yul\":3914:3915   */\n      0x00\n        /* \"#utility.yul\":3903:3912   */\n      dup4\n        /* \"#utility.yul\":3899:3916   */\n      add\n        /* \"#utility.yul\":3890:3896   */\n      dup5\n        /* \"#utility.yul\":3850:3917   */\n      tag_182\n      jump\t// in\n    tag_197:\n        /* \"#utility.yul\":3710:3924   */\n      swap3\n      swap2\n      pop\n      pop\n      jump\t// out\n        /* \"#utility.yul\":3930:4254   */\n    tag_22:\n        /* \"#utility.yul\":4047:4051   */\n      0x00\n        /* \"#utility.yul\":4085:4087   */\n      0x40\n        /* \"#utility.yul\":4074:4083   */\n      dup3\n        /* \"#utility.yul\":4070:4088   */\n      add\n        /* \"#utility.yul\":4062:4088   */\n      swap1\n      pop\n        /* \"#utility.yul\":4098:4165   */\n      tag_199\n        /* \"#utility.yul\":4162:4163   */\n      0x00\n        /* \"#utility.yul\":4151:4160   */\n      dup4\n        /* \"#utility.yul\":4147:4164   */\n      add\n        /* \"#utility.yul\":4138:4144   */\n      dup6\n        /* \"#utility.yul\":4098:4165   */\n      tag_182\n      jump\t// in\n    tag_199:\n        /* \"#utility.yul\":4175:4247   */\n      tag_200\n        /* \"#utility.yul\":4243:4245   */\n      0x20\n        /* \"#utility.yul\":4232:4241   */\n      dup4\n        /* \"#utility.yul\":4228:4246   */\n      add\n        /* \"#utility.yul\":4219:4225   */\n      dup5\n        /* \"#utility.yul\":4175:4247   */\n      tag_173\n      jump\t// in\n    tag_200:\n        /* \"#utility.yul\":3930:4254   */\n      swap4\n      swap3\n      pop\n      pop\n      pop\n      jump\t// out\n        /* \"#utility.yul\":4341:4510   */\n    tag_170:\n        /* \"#utility.yul\":4425:4436   */\n      0x00\n        /* \"#utility.yul\":4459:4465   */\n      dup3\n        /* \"#utility.yul\":4454:4457   */\n      dup3\n        /* \"#utility.yul\":4447:4466   */\n      mstore\n        /* \"#utility.yul\":4499:4503   */\n      0x20\n        /* \"#utility.yul\":4494:4497   */\n      dup3\n        /* \"#utility.yul\":4490:4504   */\n      add\n        /* \"#utility.yul\":4475:4504   */\n      swap1\n      pop\n        /* \"#utility.yul\":4341:4510   */\n      swap3\n      swap2\n      pop\n      pop\n      jump\t// out\n        /* \"#utility.yul\":4516:4821   */\n    tag_58:\n        /* \"#utility.yul\":4556:4559   */\n      0x00\n        /* \"#utility.yul\":4575:4595   */\n      tag_205\n        /* \"#utility.yul\":4593:4594   */\n      dup3\n        /* \"#utility.yul\":4575:4595   */\n      tag_176\n      jump\t// in\n    tag_205:\n        /* \"#utility.yul\":4570:4595   */\n      swap2\n      pop\n        /* \"#utility.yul\":4609:4629   */\n      tag_206\n        /* \"#utility.yul\":4627:4628   */\n      dup4\n        /* \"#utility.yul\":4609:4629   */\n      tag_176\n      jump\t// in\n    tag_206:\n        /* \"#utility.yul\":4604:4629   */\n      swap3\n      pop\n        /* \"#utility.yul\":4763:4764   */\n      dup3\n        /* \"#utility.yul\":4695:4761   */\n      0xffffffffffffffffffffffffffffffffffffffffffffffffffffffffffffffff\n        /* \"#utility.yul\":4691:4765   */\n      sub\n        /* \"#utility.yul\":4688:4689   */\n      dup3\n        /* \"#utility.yul\":4685:4766   */\n      gt\n        /* \"#utility.yul\":4682:4789   */\n      iszero\n      tag_207\n      jumpi\n        /* \"#utility.yul\":4769:4787   */\n      tag_208\n      tag_209\n      jump\t// in\n    tag_208:\n        /* \"#utility.yul\":4682:4789   */\n    tag_207:\n        /* \"#utility.yul\":4813:4814   */\n      dup3\n        /* \"#utility.yul\":4810:4811   */\n      dup3\n        /* \"#utility.yul\":4806:4815   */\n      add\n        /* \"#utility.yul\":4799:4815   */\n      swap1\n      pop\n        /* \"#utility.yul\":4516:4821   */\n      swap3\n      swap2\n      pop\n      pop\n      jump\t// out\n        /* \"#utility.yul\":4827:5012   */\n    tag_56:\n        /* \"#utility.yul\":4867:4868   */\n      0x00\n        /* \"#utility.yul\":4884:4904   */\n      tag_211\n        /* \"#utility.yul\":4902:4903   */\n      dup3\n        /* \"#utility.yul\":4884:4904   */\n      tag_176\n      jump\t// in\n    tag_211:\n        /* \"#utility.yul\":4879:4904   */\n      swap2\n      pop\n        /* \"#utility.yul\":4918:4938   */\n      tag_212\n        /* \"#utility.yul\":4936:4937   */\n      dup4\n        /* \"#utility.yul\":4918:4938   */\n      tag_176\n      jump\t// in\n    tag_212:\n        /* \"#utility.yul\":4913:4938   */\n      swap3\n      pop\n        /* \"#utility.yul\":4957:4958   */\n      dup3\n        /* \"#utility.yul\":4947:4982   */\n      tag_213\n      jumpi\n        /* \"#utility.yul\":4962:4980   */\n      tag_214\n      tag_215\n      jump\t// in\n    tag_214:\n        /* \"#utility.yul\":4947:4982   */\n    tag_213:\n        /* \"#utility.yul\":5004:5005   */\n      dup3\n        /* \"#utility.yul\":5001:5002   */\n      dup3\n        /* \"#utility.yul\":4997:5006   */\n      div\n        /* \"#utility.yul\":4992:5006   */\n      swap1\n      pop\n        /* \"#utility.yul\":4827:5012   */\n      swap3\n      swap2\n      pop\n      pop\n      jump\t// out\n        /* \"#utility.yul\":5018:5366   */\n    tag_54:\n        /* \"#utility.yul\":5058:5065   */\n      0x00\n        /* \"#utility.yul\":5081:5101   */\n      tag_217\n        /* \"#utility.yul\":5099:5100   */\n      dup3\n        /* \"#utility.yul\":5081:5101   */\n      tag_176\n      jump\t// in\n    tag_217:\n        /* \"#utility.yul\":5076:5101   */\n      swap2\n      pop\n        /* \"#utility.yul\":5115:5135   */\n      tag_218\n        /* \"#utility.yul\":5133:5134   */\n      dup4\n        /* \"#utility.yul\":5115:5135   */\n      tag_176\n      jump\t// in\n    tag_218:\n        /* \"#utility.yul\":5110:5135   */\n      swap3\n      pop\n        /* \"#utility.yul\":5303:5304   */\n      dup2\n        /* \"#utility.yul\":5235:5301   */\n      0xffffffffffffffffffffffffffffffffffffffffffffffffffffffffffffffff\n        /* \"#utility.yul\":5231:5305   */\n      div\n        /* \"#utility.yul\":5228:5229   */\n      dup4\n        /* \"#utility.yul\":5225:5306   */\n      gt\n        /* \"#utility.yul\":5220:5221   */\n      dup3\n        /* \"#utility.yul\":5213:5222   */\n      iszero\n        /* \"#utility.yul\":5206:5223   */\n      iszero\n        /* \"#utility.yul\":5202:5307   */\n      and\n        /* \"#utility.yul\":5199:5330   */\n      iszero\n      tag_219\n      jumpi\n        /* \"#utility.yul\":5310:5328   */\n      tag_220\n      tag_209\n      jump\t// in\n    tag_220:\n        /* \"#utility.yul\":5199:5330   */\n    tag_219:\n        /* \"#utility.yul\":5358:5359   */\n      dup3\n        /* \"#utility.yul\":5355:5356   */\n      dup3\n        /* \"#utility.yul\":5351:5360   */\n      mul\n        /* \"#utility.yul\":5340:5360   */\n      swap1\n      pop\n        /* \"#utility.yul\":5018:5366   */\n      swap3\n      swap2\n      pop\n      pop\n      jump\t// out\n        /* \"#utility.yul\":5372:5563   */\n    tag_62:\n        /* \"#utility.yul\":5412:5416   */\n      0x00\n        /* \"#utility.yul\":5432:5452   */\n      tag_222\n        /* \"#utility.yul\":5450:5451   */\n      dup3\n        /* \"#utility.yul\":5432:5452   */\n      tag_176\n      jump\t// in\n    tag_222:\n        /* \"#utility.yul\":5427:5452   */\n      swap2\n      pop\n        /* \"#utility.yul\":5466:5486   */\n      tag_223\n        /* \"#utility.yul\":5484:5485   */\n      dup4\n        /* \"#utility.yul\":5466:5486   */\n      tag_176\n      jump\t// in\n    tag_223:\n        /* \"#utility.yul\":5461:5486   */\n      swap3\n      pop\n        /* \"#utility.yul\":5505:5506   */\n      dup3\n        /* \"#utility.yul\":5502:5503   */\n      dup3\n        /* \"#utility.yul\":5499:5507   */\n      lt\n        /* \"#utility.yul\":5496:5530   */\n      iszero\n      tag_224\n      jumpi\n        /* \"#utility.yul\":5510:5528   */\n      tag_225\n      tag_209\n      jump\t// in\n    tag_225:\n        /* \"#utility.yul\":5496:5530   */\n    tag_224:\n        /* \"#utility.yul\":5555:5556   */\n      dup3\n        /* \"#utility.yul\":5552:5553   */\n      dup3\n        /* \"#utility.yul\":5548:5557   */\n      sub\n        /* \"#utility.yul\":5540:5557   */\n      swap1\n      pop\n        /* \"#utility.yul\":5372:5563   */\n      swap3\n      swap2\n      pop\n      pop\n      jump\t// out\n        /* \"#utility.yul\":5569:5665   */\n    tag_165:\n        /* \"#utility.yul\":5606:5613   */\n      0x00\n        /* \"#utility.yul\":5635:5659   */\n      tag_227\n        /* \"#utility.yul\":5653:5658   */\n      dup3\n        /* \"#utility.yul\":5635:5659   */\n      tag_228\n      jump\t// in\n    tag_227:\n        /* \"#utility.yul\":5624:5659   */\n      swap1\n      pop\n        /* \"#utility.yul\":5569:5665   */\n      swap2\n      swap1\n      pop\n      jump\t// out\n        /* \"#utility.yul\":5671:5775   */\n    tag_159:\n        /* \"#utility.yul\":5716:5723   */\n      0x00\n        /* \"#utility.yul\":5745:5769   */\n      tag_230\n        /* \"#utility.yul\":5763:5768   */\n      dup3\n        /* \"#utility.yul\":5745:5769   */\n      tag_228\n      jump\t// in\n    tag_230:\n        /* \"#utility.yul\":5734:5769   */\n      swap1\n      pop\n        /* \"#utility.yul\":5671:5775   */\n      swap2\n      swap1\n      pop\n      jump\t// out\n        /* \"#utility.yul\":5781:5907   */\n    tag_228:\n        /* \"#utility.yul\":5818:5825   */\n      0x00\n        /* \"#utility.yul\":5858:5900   */\n      0xffffffffffffffffffffffffffffffffffffffff\n        /* \"#utility.yul\":5851:5856   */\n      dup3\n        /* \"#utility.yul\":5847:5901   */\n      and\n        /* \"#utility.yul\":5836:5901   */\n      swap1\n      pop\n        /* \"#utility.yul\":5781:5907   */\n      swap2\n      swap1\n      pop\n      jump\t// out\n        /* \"#utility.yul\":5913:5990   */\n    tag_176:\n        /* \"#utility.yul\":5950:5957   */\n      0x00\n        /* \"#utility.yul\":5979:5984   */\n      dup2\n        /* \"#utility.yul\":5968:5984   */\n      swap1\n      pop\n        /* \"#utility.yul\":5913:5990   */\n      swap2\n      swap1\n      pop\n      jump\t// out\n        /* \"#utility.yul\":5996:6082   */\n    tag_185:\n        /* \"#utility.yul\":6031:6038   */\n      0x00\n        /* \"#utility.yul\":6071:6075   */\n      0xff\n        /* \"#utility.yul\":6064:6069   */\n      dup3\n        /* \"#utility.yul\":6060:6076   */\n      and\n        /* \"#utility.yul\":6049:6076   */\n      swap1\n      pop\n        /* \"#utility.yul\":5996:6082   */\n      swap2\n      swap1\n      pop\n      jump\t// out\n        /* \"#utility.yul\":6088:6188   */\n    tag_166:\n        /* \"#utility.yul\":6127:6134   */\n      0x00\n        /* \"#utility.yul\":6156:6182   */\n      tag_235\n        /* \"#utility.yul\":6176:6181   */\n      dup3\n        /* \"#utility.yul\":6156:6182   */\n      tag_236\n      jump\t// in\n    tag_235:\n        /* \"#utility.yul\":6145:6182   */\n      swap1\n      pop\n        /* \"#utility.yul\":6088:6188   */\n      swap2\n      swap1\n      pop\n      jump\t// out\n        /* \"#utility.yul\":6194:6302   */\n    tag_160:\n        /* \"#utility.yul\":6241:6248   */\n      0x00\n        /* \"#utility.yul\":6270:6296   */\n      tag_238\n        /* \"#utility.yul\":6290:6295   */\n      dup3\n        /* \"#utility.yul\":6270:6296   */\n      tag_236\n      jump\t// in\n    tag_238:\n        /* \"#utility.yul\":6259:6296   */\n      swap1\n      pop\n        /* \"#utility.yul\":6194:6302   */\n      swap2\n      swap1\n      pop\n      jump\t// out\n        /* \"#utility.yul\":6308:6402   */\n    tag_236:\n        /* \"#utility.yul\":6347:6354   */\n      0x00\n        /* \"#utility.yul\":6376:6396   */\n      tag_240\n        /* \"#utility.yul\":6390:6395   */\n      dup3\n        /* \"#utility.yul\":6376:6396   */\n      tag_241\n      jump\t// in\n    tag_240:\n        /* \"#utility.yul\":6365:6396   */\n      swap1\n      pop\n        /* \"#utility.yul\":6308:6402   */\n      swap2\n      swap1\n      pop\n      jump\t// out\n        /* \"#utility.yul\":6408:6487   */\n    tag_181:\n        /* \"#utility.yul\":6447:6454   */\n      0x00\n        /* \"#utility.yul\":6476:6481   */\n      dup2\n        /* \"#utility.yul\":6465:6481   */\n      swap1\n      pop\n        /* \"#utility.yul\":6408:6487   */\n      swap2\n      swap1\n      pop\n      jump\t// out\n        /* \"#utility.yul\":6493:6669   */\n    tag_88:\n        /* \"#utility.yul\":6525:6526   */\n      0x00\n        /* \"#utility.yul\":6542:6562   */\n      tag_244\n        /* \"#utility.yul\":6560:6561   */\n      dup3\n        /* \"#utility.yul\":6542:6562   */\n      tag_176\n      jump\t// in\n    tag_244:\n        /* \"#utility.yul\":6537:6562   */\n      swap2\n      pop\n        /* \"#utility.yul\":6576:6596   */\n      tag_245\n        /* \"#utility.yul\":6594:6595   */\n      dup4\n        /* \"#utility.yul\":6576:6596   */\n      tag_176\n      jump\t// in\n    tag_245:\n        /* \"#utility.yul\":6571:6596   */\n      swap3\n      pop\n        /* \"#utility.yul\":6615:6616   */\n      dup3\n        /* \"#utility.yul\":6605:6640   */\n      tag_246\n      jumpi\n        /* \"#utility.yul\":6620:6638   */\n      tag_247\n      tag_215\n      jump\t// in\n    tag_247:\n        /* \"#utility.yul\":6605:6640   */\n    tag_246:\n        /* \"#utility.yul\":6661:6662   */\n      dup3\n        /* \"#utility.yul\":6658:6659   */\n      dup3\n        /* \"#utility.yul\":6654:6663   */\n      mod\n        /* \"#utility.yul\":6649:6663   */\n      swap1\n      pop\n        /* \"#utility.yul\":6493:6669   */\n      swap3\n      swap2\n      pop\n      pop\n      jump\t// out\n        /* \"#utility.yul\":6675:6855   */\n    tag_209:\n        /* \"#utility.yul\":6723:6800   */\n      0x4e487b7100000000000000000000000000000000000000000000000000000000\n        /* \"#utility.yul\":6720:6721   */\n      0x00\n        /* \"#utility.yul\":6713:6801   */\n      mstore\n        /* \"#utility.yul\":6820:6824   */\n      0x11\n        /* \"#utility.yul\":6817:6818   */\n      0x04\n        /* \"#utility.yul\":6810:6825   */\n      mstore\n        /* \"#utility.yul\":6844:6848   */\n      0x24\n        /* \"#utility.yul\":6841:6842   */\n      0x00\n        /* \"#utility.yul\":6834:6849   */\n      revert\n        /* \"#utility.yul\":6861:7041   */\n    tag_215:\n        /* \"#utility.yul\":6909:6986   */\n      0x4e487b7100000000000000000000000000000000000000000000000000000000\n        /* \"#utility.yul\":6906:6907   */\n      0x00\n        /* \"#utility.yul\":6899:6987   */\n      mstore\n        /* \"#utility.yul\":7006:7010   */\n      0x12\n        /* \"#utility.yul\":7003:7004   */\n      0x04\n        /* \"#utility.yul\":6996:7011   */\n      mstore\n        /* \"#utility.yul\":7030:7034   */\n      0x24\n        /* \"#utility.yul\":7027:7028   */\n      0x00\n        /* \"#utility.yul\":7020:7035   */\n      revert\n        /* \"#utility.yul\":7170:7287   */\n    tag_148:\n        /* \"#utility.yul\":7279:7280   */\n      0x00\n        /* \"#utility.yul\":7276:7277   */\n      dup1\n        /* \"#utility.yul\":7269:7281   */\n      revert\n        /* \"#utility.yul\":7293:7387   */\n    tag_241:\n        /* \"#utility.yul\":7326:7334   */\n      0x00\n        /* \"#utility.yul\":7374:7379   */\n      dup2\n        /* \"#utility.yul\":7370:7372   */\n      0x60\n        /* \"#utility.yul\":7366:7380   */\n      shl\n        /* \"#utility.yul\":7345:7380   */\n      swap1\n      pop\n        /* \"#utility.yul\":7293:7387   */\n      swap2\n      swap1\n      pop\n      jump\t// out\n        /* \"#utility.yul\":7393:7557   */\n    tag_172:\n        /* \"#utility.yul\":7533:7549   */\n      0x696e76616c696420726172697479000000000000000000000000000000000000\n        /* \"#utility.yul\":7529:7530   */\n      0x00\n        /* \"#utility.yul\":7521:7527   */\n      dup3\n        /* \"#utility.yul\":7517:7531   */\n      add\n        /* \"#utility.yul\":7510:7550   */\n      mstore\n        /* \"#utility.yul\":7393:7557   */\n      pop\n      jump\t// out\n        /* \"#utility.yul\":7563:7685   */\n    tag_140:\n        /* \"#utility.yul\":7636:7660   */\n      tag_256\n        /* \"#utility.yul\":7654:7659   */\n      dup2\n        /* \"#utility.yul\":7636:7660   */\n      tag_176\n      jump\t// in\n    tag_256:\n        /* \"#utility.yul\":7629:7634   */\n      dup2\n        /* \"#utility.yul\":7626:7661   */\n      eq\n        /* \"#utility.yul\":7616:7679   */\n      tag_257\n      jumpi\n        /* \"#utility.yul\":7675:7676   */\n      0x00\n        /* \"#utility.yul\":7672:7673   */\n      dup1\n        /* \"#utility.yul\":7665:7677   */\n      revert\n        /* \"#utility.yul\":7616:7679   */\n    tag_257:\n        /* \"#utility.yul\":7563:7685   */\n      pop\n      jump\t// out\n        /* \"#utility.yul\":7691:7809   */\n    tag_144:\n        /* \"#utility.yul\":7762:7784   */\n      tag_259\n        /* \"#utility.yul\":7778:7783   */\n      dup2\n        /* \"#utility.yul\":7762:7784   */\n      tag_185\n      jump\t// in\n    tag_259:\n        /* \"#utility.yul\":7755:7760   */\n      dup2\n        /* \"#utility.yul\":7752:7785   */\n      eq\n        /* \"#utility.yul\":7742:7803   */\n      tag_260\n      jumpi\n        /* \"#utility.yul\":7799:7800   */\n      0x00\n        /* \"#utility.yul\":7796:7797   */\n      dup1\n        /* \"#utility.yul\":7789:7801   */\n      revert\n        /* \"#utility.yul\":7742:7803   */\n    tag_260:\n        /* \"#utility.yul\":7691:7809   */\n      pop\n      jump\t// out\n\n    auxdata: 0xa2646970667358221220046087af86bc2c9dd27cd258d35e514e805dd28663af505c22d9ca51a38b3e2364736f6c63430008070033\n}\n",
				"bytecode": {
					"linkReferences": {},
					"object": "60806040526a0422ca8b0a00a425000000600055600054600019620000259190620000e3565b6000196200003491906200009e565b60015560005460015462000049919062000066565b6002556127106003553480156200005f57600080fd5b5062000179565b60006200007382620000d9565b91506200008083620000d9565b9250826200009357620000926200014a565b5b828204905092915050565b6000620000ab82620000d9565b9150620000b883620000d9565b925082821015620000ce57620000cd6200011b565b5b828203905092915050565b6000819050919050565b6000620000f082620000d9565b9150620000fd83620000d9565b92508262000110576200010f6200014a565b5b828206905092915050565b7f4e487b7100000000000000000000000000000000000000000000000000000000600052601160045260246000fd5b7f4e487b7100000000000000000000000000000000000000000000000000000000600052601260045260246000fd5b610b2580620001896000396000f3fe608060405234801561001057600080fd5b50600436106100935760003560e01c806345e0b9d41161006657806345e0b9d414610123578063487586971461014157806370ba111314610171578063af465a271461018f578063d49d5181146101ad57610093565b806318405ca7146100985780632a1bbc34146100c85780632c4e722e146100e757806333a7da0514610105575b600080fd5b6100b260048036038101906100ad91906106a0565b6101cb565b6040516100bf91906107d7565b60405180910390f35b6100d0610397565b6040516100de92919061080d565b60405180910390f35b6100ef6103d6565b6040516100fc91906107d7565b60405180910390f35b61010d6103dc565b60405161011a91906107d7565b60405180910390f35b61012b6103e2565b60405161013891906107d7565b60405180910390f35b61015b60048036038101906101569190610673565b6103e8565b60405161016891906107f2565b60405180910390f35b610179610520565b60405161018691906107d7565b60405180910390f35b610197610560565b6040516101a491906107d7565b60405180910390f35b6101b5610566565b6040516101c291906107d7565b60405180910390f35b6000808260ff161180156101e3575060058260ff1611155b610222576040517f08c379a0000000000000000000000000000000000000000000000000000000008152600401610219906107b7565b60405180910390fd5b60018260ff16141561026157611388614e208461023f91906108ce565b610249919061089d565b90506201adb08161025a9190610847565b9050610391565b60028260ff1614156102ad57610bb8614e20611388856102819190610928565b61028b91906108ce565b610295919061089d565b90506201d4c0816102a69190610847565b9050610391565b60038260ff1614156102f9576105dc614e20611f40856102cd9190610928565b6102d791906108ce565b6102e1919061089d565b9050620222e0816102f29190610847565b9050610391565b60048260ff16141561034557610190614e20612328856103199190610928565b61032391906108ce565b61032d919061089d565b9050620271008161033e9190610847565b9050610391565b60058260ff161415610390576064614e20612648856103649190610928565b61036e91906108ce565b610378919061089d565b90506202bf20816103899190610847565b9050610391565b5b92915050565b60008060006103a53361056c565b90506000600354826103b791906109f7565b90506103c2816103e8565b93506103ce81856101cb565b925050509091565b60025481565b60035481565b60015481565b60006103e86101f46003546103fd91906108ce565b610407919061089d565b821015610417576001905061051b565b816103e86101f460035461042b91906108ce565b610435919061089d565b1115801561045e57506103e861032060035461045191906108ce565b61045b919061089d565b82105b1561046c576002905061051b565b816103e861032060035461048091906108ce565b61048a919061089d565b111580156104b357506103e86103b66003546104a691906108ce565b6104b0919061089d565b82105b156104c1576003905061051b565b816103e86103b66003546104d591906108ce565b6104df919061089d565b1115801561050857506103e86103de6003546104fb91906108ce565b610505919061089d565b82105b15610516576004905061051b565b600590505b919050565b60008061052c3361056c565b90506000612710606560648461054291906109f7565b61054c91906108ce565b6105569190610847565b9050809250505090565b60005481565b60001981565b60008042905060004382856040516020016105879190610766565b6040516020818303038152906040528051906020012060001c6105aa919061089d565b4584416040516020016105bd9190610781565b6040516020818303038152906040528051906020012060001c6105e0919061089d565b44866105ec9190610847565b6105f69190610847565b6106009190610847565b61060a9190610847565b6106149190610847565b604051602001610624919061079c565b6040516020818303038152906040528051906020012060001c90508092505050919050565b60008135905061065881610ac1565b92915050565b60008135905061066d81610ad8565b92915050565b60006020828403121561068957610688610a86565b5b600061069784828501610649565b91505092915050565b600080604083850312156106b7576106b6610a86565b5b60006106c585828601610649565b92505060206106d68582860161065e565b9150509250929050565b6106f16106ec8261096e565b6109c9565b82525050565b6107086107038261095c565b6109b7565b82525050565b600061071b600e83610836565b915061072682610a98565b602082019050919050565b61073a816109a0565b82525050565b61075161074c826109a0565b6109ed565b82525050565b610760816109aa565b82525050565b600061077282846106f7565b60148201915081905092915050565b600061078d82846106e0565b60148201915081905092915050565b60006107a88284610740565b60208201915081905092915050565b600060208201905081810360008301526107d08161070e565b9050919050565b60006020820190506107ec6000830184610731565b92915050565b60006020820190506108076000830184610757565b92915050565b60006040820190506108226000830185610757565b61082f6020830184610731565b9392505050565b600082825260208201905092915050565b6000610852826109a0565b915061085d836109a0565b9250827fffffffffffffffffffffffffffffffffffffffffffffffffffffffffffffffff0382111561089257610891610a28565b5b828201905092915050565b60006108a8826109a0565b91506108b3836109a0565b9250826108c3576108c2610a57565b5b828204905092915050565b60006108d9826109a0565b91506108e4836109a0565b9250817fffffffffffffffffffffffffffffffffffffffffffffffffffffffffffffffff048311821515161561091d5761091c610a28565b5b828202905092915050565b6000610933826109a0565b915061093e836109a0565b92508282101561095157610950610a28565b5b828203905092915050565b600061096782610980565b9050919050565b600061097982610980565b9050919050565b600073ffffffffffffffffffffffffffffffffffffffff82169050919050565b6000819050919050565b600060ff82169050919050565b60006109c2826109db565b9050919050565b60006109d4826109db565b9050919050565b60006109e682610a8b565b9050919050565b6000819050919050565b6000610a02826109a0565b9150610a0d836109a0565b925082610a1d57610a1c610a57565b5b828206905092915050565b7f4e487b7100000000000000000000000000000000000000000000000000000000600052601160045260246000fd5b7f4e487b7100000000000000000000000000000000000000000000000000000000600052601260045260246000fd5b600080fd5b60008160601b9050919050565b7f696e76616c696420726172697479000000000000000000000000000000000000600082015250565b610aca816109a0565b8114610ad557600080fd5b50565b610ae1816109aa565b8114610aec57600080fd5b5056fea2646970667358221220046087af86bc2c9dd27cd258d35e514e805dd28663af505c22d9ca51a38b3e2364736f6c63430008070033",
					"opcodes": "PUSH1 0x80 PUSH1 0x40 MSTORE PUSH11 0x422CA8B0A00A425000000 PUSH1 0x0 SSTORE PUSH1 0x0 SLOAD PUSH1 0x0 NOT PUSH3 0x25 SWAP2 SWAP1 PUSH3 0xE3 JUMP JUMPDEST PUSH1 0x0 NOT PUSH3 0x34 SWAP2 SWAP1 PUSH3 0x9E JUMP JUMPDEST PUSH1 0x1 SSTORE PUSH1 0x0 SLOAD PUSH1 0x1 SLOAD PUSH3 0x49 SWAP2 SWAP1 PUSH3 0x66 JUMP JUMPDEST PUSH1 0x2 SSTORE PUSH2 0x2710 PUSH1 0x3 SSTORE CALLVALUE DUP1 ISZERO PUSH3 0x5F JUMPI PUSH1 0x0 DUP1 REVERT JUMPDEST POP PUSH3 0x179 JUMP JUMPDEST PUSH1 0x0 PUSH3 0x73 DUP3 PUSH3 0xD9 JUMP JUMPDEST SWAP2 POP PUSH3 0x80 DUP4 PUSH3 0xD9 JUMP JUMPDEST SWAP3 POP DUP3 PUSH3 0x93 JUMPI PUSH3 0x92 PUSH3 0x14A JUMP JUMPDEST JUMPDEST DUP3 DUP3 DIV SWAP1 POP SWAP3 SWAP2 POP POP JUMP JUMPDEST PUSH1 0x0 PUSH3 0xAB DUP3 PUSH3 0xD9 JUMP JUMPDEST SWAP2 POP PUSH3 0xB8 DUP4 PUSH3 0xD9 JUMP JUMPDEST SWAP3 POP DUP3 DUP3 LT ISZERO PUSH3 0xCE JUMPI PUSH3 0xCD PUSH3 0x11B JUMP JUMPDEST JUMPDEST DUP3 DUP3 SUB SWAP1 POP SWAP3 SWAP2 POP POP JUMP JUMPDEST PUSH1 0x0 DUP2 SWAP1 POP SWAP2 SWAP1 POP JUMP JUMPDEST PUSH1 0x0 PUSH3 0xF0 DUP3 PUSH3 0xD9 JUMP JUMPDEST SWAP2 POP PUSH3 0xFD DUP4 PUSH3 0xD9 JUMP JUMPDEST SWAP3 POP DUP3 PUSH3 0x110 JUMPI PUSH3 0x10F PUSH3 0x14A JUMP JUMPDEST JUMPDEST DUP3 DUP3 MOD SWAP1 POP SWAP3 SWAP2 POP POP JUMP JUMPDEST PUSH32 0x4E487B7100000000000000000000000000000000000000000000000000000000 PUSH1 0x0 MSTORE PUSH1 0x11 PUSH1 0x4 MSTORE PUSH1 0x24 PUSH1 0x0 REVERT JUMPDEST PUSH32 0x4E487B7100000000000000000000000000000000000000000000000000000000 PUSH1 0x0 MSTORE PUSH1 0x12 PUSH1 0x4 MSTORE PUSH1 0x24 PUSH1 0x0 REVERT JUMPDEST PUSH2 0xB25 DUP1 PUSH3 0x189 PUSH1 0x0 CODECOPY PUSH1 0x0 RETURN INVALID PUSH1 0x80 PUSH1 0x40 MSTORE CALLVALUE DUP1 ISZERO PUSH2 0x10 JUMPI PUSH1 0x0 DUP1 REVERT JUMPDEST POP PUSH1 0x4 CALLDATASIZE LT PUSH2 0x93 JUMPI PUSH1 0x0 CALLDATALOAD PUSH1 0xE0 SHR DUP1 PUSH4 0x45E0B9D4 GT PUSH2 0x66 JUMPI DUP1 PUSH4 0x45E0B9D4 EQ PUSH2 0x123 JUMPI DUP1 PUSH4 0x48758697 EQ PUSH2 0x141 JUMPI DUP1 PUSH4 0x70BA1113 EQ PUSH2 0x171 JUMPI DUP1 PUSH4 0xAF465A27 EQ PUSH2 0x18F JUMPI DUP1 PUSH4 0xD49D5181 EQ PUSH2 0x1AD JUMPI PUSH2 0x93 JUMP JUMPDEST DUP1 PUSH4 0x18405CA7 EQ PUSH2 0x98 JUMPI DUP1 PUSH4 0x2A1BBC34 EQ PUSH2 0xC8 JUMPI DUP1 PUSH4 0x2C4E722E EQ PUSH2 0xE7 JUMPI DUP1 PUSH4 0x33A7DA05 EQ PUSH2 0x105 JUMPI JUMPDEST PUSH1 0x0 DUP1 REVERT JUMPDEST PUSH2 0xB2 PUSH1 0x4 DUP1 CALLDATASIZE SUB DUP2 ADD SWAP1 PUSH2 0xAD SWAP2 SWAP1 PUSH2 0x6A0 JUMP JUMPDEST PUSH2 0x1CB JUMP JUMPDEST PUSH1 0x40 MLOAD PUSH2 0xBF SWAP2 SWAP1 PUSH2 0x7D7 JUMP JUMPDEST PUSH1 0x40 MLOAD DUP1 SWAP2 SUB SWAP1 RETURN JUMPDEST PUSH2 0xD0 PUSH2 0x397 JUMP JUMPDEST PUSH1 0x40 MLOAD PUSH2 0xDE SWAP3 SWAP2 SWAP1 PUSH2 0x80D JUMP JUMPDEST PUSH1 0x40 MLOAD DUP1 SWAP2 SUB SWAP1 RETURN JUMPDEST PUSH2 0xEF PUSH2 0x3D6 JUMP JUMPDEST PUSH1 0x40 MLOAD PUSH2 0xFC SWAP2 SWAP1 PUSH2 0x7D7 JUMP JUMPDEST PUSH1 0x40 MLOAD DUP1 SWAP2 SUB SWAP1 RETURN JUMPDEST PUSH2 0x10D PUSH2 0x3DC JUMP JUMPDEST PUSH1 0x40 MLOAD PUSH2 0x11A SWAP2 SWAP1 PUSH2 0x7D7 JUMP JUMPDEST PUSH1 0x40 MLOAD DUP1 SWAP2 SUB SWAP1 RETURN JUMPDEST PUSH2 0x12B PUSH2 0x3E2 JUMP JUMPDEST PUSH1 0x40 MLOAD PUSH2 0x138 SWAP2 SWAP1 PUSH2 0x7D7 JUMP JUMPDEST PUSH1 0x40 MLOAD DUP1 SWAP2 SUB SWAP1 RETURN JUMPDEST PUSH2 0x15B PUSH1 0x4 DUP1 CALLDATASIZE SUB DUP2 ADD SWAP1 PUSH2 0x156 SWAP2 SWAP1 PUSH2 0x673 JUMP JUMPDEST PUSH2 0x3E8 JUMP JUMPDEST PUSH1 0x40 MLOAD PUSH2 0x168 SWAP2 SWAP1 PUSH2 0x7F2 JUMP JUMPDEST PUSH1 0x40 MLOAD DUP1 SWAP2 SUB SWAP1 RETURN JUMPDEST PUSH2 0x179 PUSH2 0x520 JUMP JUMPDEST PUSH1 0x40 MLOAD PUSH2 0x186 SWAP2 SWAP1 PUSH2 0x7D7 JUMP JUMPDEST PUSH1 0x40 MLOAD DUP1 SWAP2 SUB SWAP1 RETURN JUMPDEST PUSH2 0x197 PUSH2 0x560 JUMP JUMPDEST PUSH1 0x40 MLOAD PUSH2 0x1A4 SWAP2 SWAP1 PUSH2 0x7D7 JUMP JUMPDEST PUSH1 0x40 MLOAD DUP1 SWAP2 SUB SWAP1 RETURN JUMPDEST PUSH2 0x1B5 PUSH2 0x566 JUMP JUMPDEST PUSH1 0x40 MLOAD PUSH2 0x1C2 SWAP2 SWAP1 PUSH2 0x7D7 JUMP JUMPDEST PUSH1 0x40 MLOAD DUP1 SWAP2 SUB SWAP1 RETURN JUMPDEST PUSH1 0x0 DUP1 DUP3 PUSH1 0xFF AND GT DUP1 ISZERO PUSH2 0x1E3 JUMPI POP PUSH1 0x5 DUP3 PUSH1 0xFF AND GT ISZERO JUMPDEST PUSH2 0x222 JUMPI PUSH1 0x40 MLOAD PUSH32 0x8C379A000000000000000000000000000000000000000000000000000000000 DUP2 MSTORE PUSH1 0x4 ADD PUSH2 0x219 SWAP1 PUSH2 0x7B7 JUMP JUMPDEST PUSH1 0x40 MLOAD DUP1 SWAP2 SUB SWAP1 REVERT JUMPDEST PUSH1 0x1 DUP3 PUSH1 0xFF AND EQ ISZERO PUSH2 0x261 JUMPI PUSH2 0x1388 PUSH2 0x4E20 DUP5 PUSH2 0x23F SWAP2 SWAP1 PUSH2 0x8CE JUMP JUMPDEST PUSH2 0x249 SWAP2 SWAP1 PUSH2 0x89D JUMP JUMPDEST SWAP1 POP PUSH3 0x1ADB0 DUP2 PUSH2 0x25A SWAP2 SWAP1 PUSH2 0x847 JUMP JUMPDEST SWAP1 POP PUSH2 0x391 JUMP JUMPDEST PUSH1 0x2 DUP3 PUSH1 0xFF AND EQ ISZERO PUSH2 0x2AD JUMPI PUSH2 0xBB8 PUSH2 0x4E20 PUSH2 0x1388 DUP6 PUSH2 0x281 SWAP2 SWAP1 PUSH2 0x928 JUMP JUMPDEST PUSH2 0x28B SWAP2 SWAP1 PUSH2 0x8CE JUMP JUMPDEST PUSH2 0x295 SWAP2 SWAP1 PUSH2 0x89D JUMP JUMPDEST SWAP1 POP PUSH3 0x1D4C0 DUP2 PUSH2 0x2A6 SWAP2 SWAP1 PUSH2 0x847 JUMP JUMPDEST SWAP1 POP PUSH2 0x391 JUMP JUMPDEST PUSH1 0x3 DUP3 PUSH1 0xFF AND EQ ISZERO PUSH2 0x2F9 JUMPI PUSH2 0x5DC PUSH2 0x4E20 PUSH2 0x1F40 DUP6 PUSH2 0x2CD SWAP2 SWAP1 PUSH2 0x928 JUMP JUMPDEST PUSH2 0x2D7 SWAP2 SWAP1 PUSH2 0x8CE JUMP JUMPDEST PUSH2 0x2E1 SWAP2 SWAP1 PUSH2 0x89D JUMP JUMPDEST SWAP1 POP PUSH3 0x222E0 DUP2 PUSH2 0x2F2 SWAP2 SWAP1 PUSH2 0x847 JUMP JUMPDEST SWAP1 POP PUSH2 0x391 JUMP JUMPDEST PUSH1 0x4 DUP3 PUSH1 0xFF AND EQ ISZERO PUSH2 0x345 JUMPI PUSH2 0x190 PUSH2 0x4E20 PUSH2 0x2328 DUP6 PUSH2 0x319 SWAP2 SWAP1 PUSH2 0x928 JUMP JUMPDEST PUSH2 0x323 SWAP2 SWAP1 PUSH2 0x8CE JUMP JUMPDEST PUSH2 0x32D SWAP2 SWAP1 PUSH2 0x89D JUMP JUMPDEST SWAP1 POP PUSH3 0x27100 DUP2 PUSH2 0x33E SWAP2 SWAP1 PUSH2 0x847 JUMP JUMPDEST SWAP1 POP PUSH2 0x391 JUMP JUMPDEST PUSH1 0x5 DUP3 PUSH1 0xFF AND EQ ISZERO PUSH2 0x390 JUMPI PUSH1 0x64 PUSH2 0x4E20 PUSH2 0x2648 DUP6 PUSH2 0x364 SWAP2 SWAP1 PUSH2 0x928 JUMP JUMPDEST PUSH2 0x36E SWAP2 SWAP1 PUSH2 0x8CE JUMP JUMPDEST PUSH2 0x378 SWAP2 SWAP1 PUSH2 0x89D JUMP JUMPDEST SWAP1 POP PUSH3 0x2BF20 DUP2 PUSH2 0x389 SWAP2 SWAP1 PUSH2 0x847 JUMP JUMPDEST SWAP1 POP PUSH2 0x391 JUMP JUMPDEST JUMPDEST SWAP3 SWAP2 POP POP JUMP JUMPDEST PUSH1 0x0 DUP1 PUSH1 0x0 PUSH2 0x3A5 CALLER PUSH2 0x56C JUMP JUMPDEST SWAP1 POP PUSH1 0x0 PUSH1 0x3 SLOAD DUP3 PUSH2 0x3B7 SWAP2 SWAP1 PUSH2 0x9F7 JUMP JUMPDEST SWAP1 POP PUSH2 0x3C2 DUP2 PUSH2 0x3E8 JUMP JUMPDEST SWAP4 POP PUSH2 0x3CE DUP2 DUP6 PUSH2 0x1CB JUMP JUMPDEST SWAP3 POP POP POP SWAP1 SWAP2 JUMP JUMPDEST PUSH1 0x2 SLOAD DUP2 JUMP JUMPDEST PUSH1 0x3 SLOAD DUP2 JUMP JUMPDEST PUSH1 0x1 SLOAD DUP2 JUMP JUMPDEST PUSH1 0x0 PUSH2 0x3E8 PUSH2 0x1F4 PUSH1 0x3 SLOAD PUSH2 0x3FD SWAP2 SWAP1 PUSH2 0x8CE JUMP JUMPDEST PUSH2 0x407 SWAP2 SWAP1 PUSH2 0x89D JUMP JUMPDEST DUP3 LT ISZERO PUSH2 0x417 JUMPI PUSH1 0x1 SWAP1 POP PUSH2 0x51B JUMP JUMPDEST DUP2 PUSH2 0x3E8 PUSH2 0x1F4 PUSH1 0x3 SLOAD PUSH2 0x42B SWAP2 SWAP1 PUSH2 0x8CE JUMP JUMPDEST PUSH2 0x435 SWAP2 SWAP1 PUSH2 0x89D JUMP JUMPDEST GT ISZERO DUP1 ISZERO PUSH2 0x45E JUMPI POP PUSH2 0x3E8 PUSH2 0x320 PUSH1 0x3 SLOAD PUSH2 0x451 SWAP2 SWAP1 PUSH2 0x8CE JUMP JUMPDEST PUSH2 0x45B SWAP2 SWAP1 PUSH2 0x89D JUMP JUMPDEST DUP3 LT JUMPDEST ISZERO PUSH2 0x46C JUMPI PUSH1 0x2 SWAP1 POP PUSH2 0x51B JUMP JUMPDEST DUP2 PUSH2 0x3E8 PUSH2 0x320 PUSH1 0x3 SLOAD PUSH2 0x480 SWAP2 SWAP1 PUSH2 0x8CE JUMP JUMPDEST PUSH2 0x48A SWAP2 SWAP1 PUSH2 0x89D JUMP JUMPDEST GT ISZERO DUP1 ISZERO PUSH2 0x4B3 JUMPI POP PUSH2 0x3E8 PUSH2 0x3B6 PUSH1 0x3 SLOAD PUSH2 0x4A6 SWAP2 SWAP1 PUSH2 0x8CE JUMP JUMPDEST PUSH2 0x4B0 SWAP2 SWAP1 PUSH2 0x89D JUMP JUMPDEST DUP3 LT JUMPDEST ISZERO PUSH2 0x4C1 JUMPI PUSH1 0x3 SWAP1 POP PUSH2 0x51B JUMP JUMPDEST DUP2 PUSH2 0x3E8 PUSH2 0x3B6 PUSH1 0x3 SLOAD PUSH2 0x4D5 SWAP2 SWAP1 PUSH2 0x8CE JUMP JUMPDEST PUSH2 0x4DF SWAP2 SWAP1 PUSH2 0x89D JUMP JUMPDEST GT ISZERO DUP1 ISZERO PUSH2 0x508 JUMPI POP PUSH2 0x3E8 PUSH2 0x3DE PUSH1 0x3 SLOAD PUSH2 0x4FB SWAP2 SWAP1 PUSH2 0x8CE JUMP JUMPDEST PUSH2 0x505 SWAP2 SWAP1 PUSH2 0x89D JUMP JUMPDEST DUP3 LT JUMPDEST ISZERO PUSH2 0x516 JUMPI PUSH1 0x4 SWAP1 POP PUSH2 0x51B JUMP JUMPDEST PUSH1 0x5 SWAP1 POP JUMPDEST SWAP2 SWAP1 POP JUMP JUMPDEST PUSH1 0x0 DUP1 PUSH2 0x52C CALLER PUSH2 0x56C JUMP JUMPDEST SWAP1 POP PUSH1 0x0 PUSH2 0x2710 PUSH1 0x65 PUSH1 0x64 DUP5 PUSH2 0x542 SWAP2 SWAP1 PUSH2 0x9F7 JUMP JUMPDEST PUSH2 0x54C SWAP2 SWAP1 PUSH2 0x8CE JUMP JUMPDEST PUSH2 0x556 SWAP2 SWAP1 PUSH2 0x847 JUMP JUMPDEST SWAP1 POP DUP1 SWAP3 POP POP POP SWAP1 JUMP JUMPDEST PUSH1 0x0 SLOAD DUP2 JUMP JUMPDEST PUSH1 0x0 NOT DUP2 JUMP JUMPDEST PUSH1 0x0 DUP1 TIMESTAMP SWAP1 POP PUSH1 0x0 NUMBER DUP3 DUP6 PUSH1 0x40 MLOAD PUSH1 0x20 ADD PUSH2 0x587 SWAP2 SWAP1 PUSH2 0x766 JUMP JUMPDEST PUSH1 0x40 MLOAD PUSH1 0x20 DUP2 DUP4 SUB SUB DUP2 MSTORE SWAP1 PUSH1 0x40 MSTORE DUP1 MLOAD SWAP1 PUSH1 0x20 ADD KECCAK256 PUSH1 0x0 SHR PUSH2 0x5AA SWAP2 SWAP1 PUSH2 0x89D JUMP JUMPDEST GASLIMIT DUP5 COINBASE PUSH1 0x40 MLOAD PUSH1 0x20 ADD PUSH2 0x5BD SWAP2 SWAP1 PUSH2 0x781 JUMP JUMPDEST PUSH1 0x40 MLOAD PUSH1 0x20 DUP2 DUP4 SUB SUB DUP2 MSTORE SWAP1 PUSH1 0x40 MSTORE DUP1 MLOAD SWAP1 PUSH1 0x20 ADD KECCAK256 PUSH1 0x0 SHR PUSH2 0x5E0 SWAP2 SWAP1 PUSH2 0x89D JUMP JUMPDEST DIFFICULTY DUP7 PUSH2 0x5EC SWAP2 SWAP1 PUSH2 0x847 JUMP JUMPDEST PUSH2 0x5F6 SWAP2 SWAP1 PUSH2 0x847 JUMP JUMPDEST PUSH2 0x600 SWAP2 SWAP1 PUSH2 0x847 JUMP JUMPDEST PUSH2 0x60A SWAP2 SWAP1 PUSH2 0x847 JUMP JUMPDEST PUSH2 0x614 SWAP2 SWAP1 PUSH2 0x847 JUMP JUMPDEST PUSH1 0x40 MLOAD PUSH1 0x20 ADD PUSH2 0x624 SWAP2 SWAP1 PUSH2 0x79C JUMP JUMPDEST PUSH1 0x40 MLOAD PUSH1 0x20 DUP2 DUP4 SUB SUB DUP2 MSTORE SWAP1 PUSH1 0x40 MSTORE DUP1 MLOAD SWAP1 PUSH1 0x20 ADD KECCAK256 PUSH1 0x0 SHR SWAP1 POP DUP1 SWAP3 POP POP POP SWAP2 SWAP1 POP JUMP JUMPDEST PUSH1 0x0 DUP2 CALLDATALOAD SWAP1 POP PUSH2 0x658 DUP2 PUSH2 0xAC1 JUMP JUMPDEST SWAP3 SWAP2 POP POP JUMP JUMPDEST PUSH1 0x0 DUP2 CALLDATALOAD SWAP1 POP PUSH2 0x66D DUP2 PUSH2 0xAD8 JUMP JUMPDEST SWAP3 SWAP2 POP POP JUMP JUMPDEST PUSH1 0x0 PUSH1 0x20 DUP3 DUP5 SUB SLT ISZERO PUSH2 0x689 JUMPI PUSH2 0x688 PUSH2 0xA86 JUMP JUMPDEST JUMPDEST PUSH1 0x0 PUSH2 0x697 DUP5 DUP3 DUP6 ADD PUSH2 0x649 JUMP JUMPDEST SWAP2 POP POP SWAP3 SWAP2 POP POP JUMP JUMPDEST PUSH1 0x0 DUP1 PUSH1 0x40 DUP4 DUP6 SUB SLT ISZERO PUSH2 0x6B7 JUMPI PUSH2 0x6B6 PUSH2 0xA86 JUMP JUMPDEST JUMPDEST PUSH1 0x0 PUSH2 0x6C5 DUP6 DUP3 DUP7 ADD PUSH2 0x649 JUMP JUMPDEST SWAP3 POP POP PUSH1 0x20 PUSH2 0x6D6 DUP6 DUP3 DUP7 ADD PUSH2 0x65E JUMP JUMPDEST SWAP2 POP POP SWAP3 POP SWAP3 SWAP1 POP JUMP JUMPDEST PUSH2 0x6F1 PUSH2 0x6EC DUP3 PUSH2 0x96E JUMP JUMPDEST PUSH2 0x9C9 JUMP JUMPDEST DUP3 MSTORE POP POP JUMP JUMPDEST PUSH2 0x708 PUSH2 0x703 DUP3 PUSH2 0x95C JUMP JUMPDEST PUSH2 0x9B7 JUMP JUMPDEST DUP3 MSTORE POP POP JUMP JUMPDEST PUSH1 0x0 PUSH2 0x71B PUSH1 0xE DUP4 PUSH2 0x836 JUMP JUMPDEST SWAP2 POP PUSH2 0x726 DUP3 PUSH2 0xA98 JUMP JUMPDEST PUSH1 0x20 DUP3 ADD SWAP1 POP SWAP2 SWAP1 POP JUMP JUMPDEST PUSH2 0x73A DUP2 PUSH2 0x9A0 JUMP JUMPDEST DUP3 MSTORE POP POP JUMP JUMPDEST PUSH2 0x751 PUSH2 0x74C DUP3 PUSH2 0x9A0 JUMP JUMPDEST PUSH2 0x9ED JUMP JUMPDEST DUP3 MSTORE POP POP JUMP JUMPDEST PUSH2 0x760 DUP2 PUSH2 0x9AA JUMP JUMPDEST DUP3 MSTORE POP POP JUMP JUMPDEST PUSH1 0x0 PUSH2 0x772 DUP3 DUP5 PUSH2 0x6F7 JUMP JUMPDEST PUSH1 0x14 DUP3 ADD SWAP2 POP DUP2 SWAP1 POP SWAP3 SWAP2 POP POP JUMP JUMPDEST PUSH1 0x0 PUSH2 0x78D DUP3 DUP5 PUSH2 0x6E0 JUMP JUMPDEST PUSH1 0x14 DUP3 ADD SWAP2 POP DUP2 SWAP1 POP SWAP3 SWAP2 POP POP JUMP JUMPDEST PUSH1 0x0 PUSH2 0x7A8 DUP3 DUP5 PUSH2 0x740 JUMP JUMPDEST PUSH1 0x20 DUP3 ADD SWAP2 POP DUP2 SWAP1 POP SWAP3 SWAP2 POP POP JUMP JUMPDEST PUSH1 0x0 PUSH1 0x20 DUP3 ADD SWAP1 POP DUP2 DUP2 SUB PUSH1 0x0 DUP4 ADD MSTORE PUSH2 0x7D0 DUP2 PUSH2 0x70E JUMP JUMPDEST SWAP1 POP SWAP2 SWAP1 POP JUMP JUMPDEST PUSH1 0x0 PUSH1 0x20 DUP3 ADD SWAP1 POP PUSH2 0x7EC PUSH1 0x0 DUP4 ADD DUP5 PUSH2 0x731 JUMP JUMPDEST SWAP3 SWAP2 POP POP JUMP JUMPDEST PUSH1 0x0 PUSH1 0x20 DUP3 ADD SWAP1 POP PUSH2 0x807 PUSH1 0x0 DUP4 ADD DUP5 PUSH2 0x757 JUMP JUMPDEST SWAP3 SWAP2 POP POP JUMP JUMPDEST PUSH1 0x0 PUSH1 0x40 DUP3 ADD SWAP1 POP PUSH2 0x822 PUSH1 0x0 DUP4 ADD DUP6 PUSH2 0x757 JUMP JUMPDEST PUSH2 0x82F PUSH1 0x20 DUP4 ADD DUP5 PUSH2 0x731 JUMP JUMPDEST SWAP4 SWAP3 POP POP POP JUMP JUMPDEST PUSH1 0x0 DUP3 DUP3 MSTORE PUSH1 0x20 DUP3 ADD SWAP1 POP SWAP3 SWAP2 POP POP JUMP JUMPDEST PUSH1 0x0 PUSH2 0x852 DUP3 PUSH2 0x9A0 JUMP JUMPDEST SWAP2 POP PUSH2 0x85D DUP4 PUSH2 0x9A0 JUMP JUMPDEST SWAP3 POP DUP3 PUSH32 0xFFFFFFFFFFFFFFFFFFFFFFFFFFFFFFFFFFFFFFFFFFFFFFFFFFFFFFFFFFFFFFFF SUB DUP3 GT ISZERO PUSH2 0x892 JUMPI PUSH2 0x891 PUSH2 0xA28 JUMP JUMPDEST JUMPDEST DUP3 DUP3 ADD SWAP1 POP SWAP3 SWAP2 POP POP JUMP JUMPDEST PUSH1 0x0 PUSH2 0x8A8 DUP3 PUSH2 0x9A0 JUMP JUMPDEST SWAP2 POP PUSH2 0x8B3 DUP4 PUSH2 0x9A0 JUMP JUMPDEST SWAP3 POP DUP3 PUSH2 0x8C3 JUMPI PUSH2 0x8C2 PUSH2 0xA57 JUMP JUMPDEST JUMPDEST DUP3 DUP3 DIV SWAP1 POP SWAP3 SWAP2 POP POP JUMP JUMPDEST PUSH1 0x0 PUSH2 0x8D9 DUP3 PUSH2 0x9A0 JUMP JUMPDEST SWAP2 POP PUSH2 0x8E4 DUP4 PUSH2 0x9A0 JUMP JUMPDEST SWAP3 POP DUP2 PUSH32 0xFFFFFFFFFFFFFFFFFFFFFFFFFFFFFFFFFFFFFFFFFFFFFFFFFFFFFFFFFFFFFFFF DIV DUP4 GT DUP3 ISZERO ISZERO AND ISZERO PUSH2 0x91D JUMPI PUSH2 0x91C PUSH2 0xA28 JUMP JUMPDEST JUMPDEST DUP3 DUP3 MUL SWAP1 POP SWAP3 SWAP2 POP POP JUMP JUMPDEST PUSH1 0x0 PUSH2 0x933 DUP3 PUSH2 0x9A0 JUMP JUMPDEST SWAP2 POP PUSH2 0x93E DUP4 PUSH2 0x9A0 JUMP JUMPDEST SWAP3 POP DUP3 DUP3 LT ISZERO PUSH2 0x951 JUMPI PUSH2 0x950 PUSH2 0xA28 JUMP JUMPDEST JUMPDEST DUP3 DUP3 SUB SWAP1 POP SWAP3 SWAP2 POP POP JUMP JUMPDEST PUSH1 0x0 PUSH2 0x967 DUP3 PUSH2 0x980 JUMP JUMPDEST SWAP1 POP SWAP2 SWAP1 POP JUMP JUMPDEST PUSH1 0x0 PUSH2 0x979 DUP3 PUSH2 0x980 JUMP JUMPDEST SWAP1 POP SWAP2 SWAP1 POP JUMP JUMPDEST PUSH1 0x0 PUSH20 0xFFFFFFFFFFFFFFFFFFFFFFFFFFFFFFFFFFFFFFFF DUP3 AND SWAP1 POP SWAP2 SWAP1 POP JUMP JUMPDEST PUSH1 0x0 DUP2 SWAP1 POP SWAP2 SWAP1 POP JUMP JUMPDEST PUSH1 0x0 PUSH1 0xFF DUP3 AND SWAP1 POP SWAP2 SWAP1 POP JUMP JUMPDEST PUSH1 0x0 PUSH2 0x9C2 DUP3 PUSH2 0x9DB JUMP JUMPDEST SWAP1 POP SWAP2 SWAP1 POP JUMP JUMPDEST PUSH1 0x0 PUSH2 0x9D4 DUP3 PUSH2 0x9DB JUMP JUMPDEST SWAP1 POP SWAP2 SWAP1 POP JUMP JUMPDEST PUSH1 0x0 PUSH2 0x9E6 DUP3 PUSH2 0xA8B JUMP JUMPDEST SWAP1 POP SWAP2 SWAP1 POP JUMP JUMPDEST PUSH1 0x0 DUP2 SWAP1 POP SWAP2 SWAP1 POP JUMP JUMPDEST PUSH1 0x0 PUSH2 0xA02 DUP3 PUSH2 0x9A0 JUMP JUMPDEST SWAP2 POP PUSH2 0xA0D DUP4 PUSH2 0x9A0 JUMP JUMPDEST SWAP3 POP DUP3 PUSH2 0xA1D JUMPI PUSH2 0xA1C PUSH2 0xA57 JUMP JUMPDEST JUMPDEST DUP3 DUP3 MOD SWAP1 POP SWAP3 SWAP2 POP POP JUMP JUMPDEST PUSH32 0x4E487B7100000000000000000000000000000000000000000000000000000000 PUSH1 0x0 MSTORE PUSH1 0x11 PUSH1 0x4 MSTORE PUSH1 0x24 PUSH1 0x0 REVERT JUMPDEST PUSH32 0x4E487B7100000000000000000000000000000000000000000000000000000000 PUSH1 0x0 MSTORE PUSH1 0x12 PUSH1 0x4 MSTORE PUSH1 0x24 PUSH1 0x0 REVERT JUMPDEST PUSH1 0x0 DUP1 REVERT JUMPDEST PUSH1 0x0 DUP2 PUSH1 0x60 SHL SWAP1 POP SWAP2 SWAP1 POP JUMP JUMPDEST PUSH32 0x696E76616C696420726172697479000000000000000000000000000000000000 PUSH1 0x0 DUP3 ADD MSTORE POP JUMP JUMPDEST PUSH2 0xACA DUP2 PUSH2 0x9A0 JUMP JUMPDEST DUP2 EQ PUSH2 0xAD5 JUMPI PUSH1 0x0 DUP1 REVERT JUMPDEST POP JUMP JUMPDEST PUSH2 0xAE1 DUP2 PUSH2 0x9AA JUMP JUMPDEST DUP2 EQ PUSH2 0xAEC JUMPI PUSH1 0x0 DUP1 REVERT JUMPDEST POP JUMP INVALID LOG2 PUSH5 0x6970667358 0x22 SLT KECCAK256 DIV PUSH1 0x87 0xAF DUP7 0xBC 0x2C SWAP14 0xD2 PUSH29 0xD258D35E514E805DD28663AF505C22D9CA51A38B3E2364736F6C634300 ADDMOD SMOD STOP CALLER "
				},
				"gasEstimates": {
					"creation": {
						"codeDepositCost": "570600",
						"executionCost": "infinite",
						"totalCost": "infinite"
					},
					"external": {
						"MAX()": "420",
						"_rTotal()": "2429",
						"_tTotal()": "2495",
						"generate()": "infinite",
						"getProductivity(uint256,uint8)": "infinite",
						"getRarity(uint256)": "infinite",
						"percent()": "infinite",
						"qualityBase()": "2496",
						"rate()": "2474"
					},
					"internal": {
						"computeSeed(address)": "infinite"
					}
				},
				"methodIdentifiers": {
					"MAX()": "d49d5181",
					"_rTotal()": "45e0b9d4",
					"_tTotal()": "af465a27",
					"generate()": "2a1bbc34",
					"getProductivity(uint256,uint8)": "18405ca7",
					"getRarity(uint256)": "48758697",
					"percent()": "70ba1113",
					"qualityBase()": "33a7da05",
					"rate()": "2c4e722e"
				}
			},
			"userdoc": {
				"kind": "user",
				"methods": {},
				"version": 1
			}
		}
	}
}