{
	"contracts/4_test.sol": {
		"Test": {
			"abi": [
				{
					"inputs": [],
					"name": "MAX",
					"outputs": [
						{
							"internalType": "uint256",
							"name": "",
							"type": "uint256"
						}
					],
					"stateMutability": "view",
					"type": "function"
				},
				{
					"inputs": [],
					"name": "_rTotal",
					"outputs": [
						{
							"internalType": "uint256",
							"name": "",
							"type": "uint256"
						}
					],
					"stateMutability": "view",
					"type": "function"
				},
				{
					"inputs": [],
					"name": "_tTotal",
					"outputs": [
						{
							"internalType": "uint256",
							"name": "",
							"type": "uint256"
						}
					],
					"stateMutability": "view",
					"type": "function"
				},
				{
					"inputs": [],
					"name": "percent",
					"outputs": [
						{
							"internalType": "uint256",
							"name": "",
							"type": "uint256"
						}
					],
					"stateMutability": "view",
					"type": "function"
				},
				{
					"inputs": [],
					"name": "rate",
					"outputs": [
						{
							"internalType": "uint256",
							"name": "",
							"type": "uint256"
						}
					],
					"stateMutability": "view",
					"type": "function"
				}
			],
			"devdoc": {
				"kind": "dev",
				"methods": {},
				"version": 1
			},
			"evm": {
				"assembly": "    /* \"contracts/4_test.sol\":74:1336  contract Test{\r... */\n  mstore(0x40, 0x80)\n    /* \"contracts/4_test.sol\":273:291  5 * 10**6 * 10**18 */\n  0x0422ca8b0a00a425000000\n    /* \"contracts/4_test.sol\":248:291  uint256 public _tTotal = 5 * 10**6 * 10**18 */\n  0x00\n  sstore\n    /* \"contracts/4_test.sol\":350:357  _tTotal */\n  sload(0x00)\n    /* \"contracts/4_test.sol\":133:134  0 */\n  0x00\n    /* \"contracts/4_test.sol\":124:135  ~uint256(0) */\n  not\n    /* \"contracts/4_test.sol\":344:357  MAX % _tTotal */\n  tag_1\n  swap2\n  swap1\n  tag_2\n  jump\t// in\ntag_1:\n    /* \"contracts/4_test.sol\":133:134  0 */\n  0x00\n    /* \"contracts/4_test.sol\":124:135  ~uint256(0) */\n  not\n    /* \"contracts/4_test.sol\":337:358  MAX - (MAX % _tTotal) */\n  tag_3\n  swap2\n  swap1\n  tag_4\n  jump\t// in\ntag_3:\n    /* \"contracts/4_test.sol\":311:359  uint256 public _rTotal = (MAX - (MAX % _tTotal)) */\n  0x01\n  sstore\n    /* \"contracts/4_test.sol\":482:489  _tTotal */\n  sload(0x00)\n    /* \"contracts/4_test.sol\":472:479  _rTotal */\n  sload(0x01)\n    /* \"contracts/4_test.sol\":472:489  _rTotal / _tTotal */\n  tag_5\n  swap2\n  swap1\n  tag_6\n  jump\t// in\ntag_5:\n    /* \"contracts/4_test.sol\":450:489  uint256 public rate = _rTotal / _tTotal */\n  0x02\n  sstore\n    /* \"contracts/4_test.sol\":74:1336  contract Test{\r... */\n  callvalue\n  dup1\n  iszero\n  tag_7\n  jumpi\n  0x00\n  dup1\n  revert\ntag_7:\n  pop\n  jump(tag_8)\n    /* \"#utility.yul\":7:192   */\ntag_6:\n    /* \"#utility.yul\":47:48   */\n  0x00\n    /* \"#utility.yul\":64:84   */\n  tag_11\n    /* \"#utility.yul\":82:83   */\n  dup3\n    /* \"#utility.yul\":64:84   */\n  tag_12\n  jump\t// in\ntag_11:\n    /* \"#utility.yul\":59:84   */\n  swap2\n  pop\n    /* \"#utility.yul\":98:118   */\n  tag_13\n    /* \"#utility.yul\":116:117   */\n  dup4\n    /* \"#utility.yul\":98:118   */\n  tag_12\n  jump\t// in\ntag_13:\n    /* \"#utility.yul\":93:118   */\n  swap3\n  pop\n    /* \"#utility.yul\":137:138   */\n  dup3\n    /* \"#utility.yul\":127:162   */\n  tag_14\n  jumpi\n    /* \"#utility.yul\":142:160   */\n  tag_15\n  tag_16\n  jump\t// in\ntag_15:\n    /* \"#utility.yul\":127:162   */\ntag_14:\n    /* \"#utility.yul\":184:185   */\n  dup3\n    /* \"#utility.yul\":181:182   */\n  dup3\n    /* \"#utility.yul\":177:186   */\n  div\n    /* \"#utility.yul\":172:186   */\n  swap1\n  pop\n    /* \"#utility.yul\":7:192   */\n  swap3\n  swap2\n  pop\n  pop\n  jump\t// out\n    /* \"#utility.yul\":198:389   */\ntag_4:\n    /* \"#utility.yul\":238:242   */\n  0x00\n    /* \"#utility.yul\":258:278   */\n  tag_18\n    /* \"#utility.yul\":276:277   */\n  dup3\n    /* \"#utility.yul\":258:278   */\n  tag_12\n  jump\t// in\ntag_18:\n    /* \"#utility.yul\":253:278   */\n  swap2\n  pop\n    /* \"#utility.yul\":292:312   */\n  tag_19\n    /* \"#utility.yul\":310:311   */\n  dup4\n    /* \"#utility.yul\":292:312   */\n  tag_12\n  jump\t// in\ntag_19:\n    /* \"#utility.yul\":287:312   */\n  swap3\n  pop\n    /* \"#utility.yul\":331:332   */\n  dup3\n    /* \"#utility.yul\":328:329   */\n  dup3\n    /* \"#utility.yul\":325:333   */\n  lt\n    /* \"#utility.yul\":322:356   */\n  iszero\n  tag_20\n  jumpi\n    /* \"#utility.yul\":336:354   */\n  tag_21\n  tag_22\n  jump\t// in\ntag_21:\n    /* \"#utility.yul\":322:356   */\ntag_20:\n    /* \"#utility.yul\":381:382   */\n  dup3\n    /* \"#utility.yul\":378:379   */\n  dup3\n    /* \"#utility.yul\":374:383   */\n  sub\n    /* \"#utility.yul\":366:383   */\n  swap1\n  pop\n    /* \"#utility.yul\":198:389   */\n  swap3\n  swap2\n  pop\n  pop\n  jump\t// out\n    /* \"#utility.yul\":395:472   */\ntag_12:\n    /* \"#utility.yul\":432:439   */\n  0x00\n    /* \"#utility.yul\":461:466   */\n  dup2\n    /* \"#utility.yul\":450:466   */\n  swap1\n  pop\n    /* \"#utility.yul\":395:472   */\n  swap2\n  swap1\n  pop\n  jump\t// out\n    /* \"#utility.yul\":478:654   */\ntag_2:\n    /* \"#utility.yul\":510:511   */\n  0x00\n    /* \"#utility.yul\":527:547   */\n  tag_25\n    /* \"#utility.yul\":545:546   */\n  dup3\n    /* \"#utility.yul\":527:547   */\n  tag_12\n  jump\t// in\ntag_25:\n    /* \"#utility.yul\":522:547   */\n  swap2\n  pop\n    /* \"#utility.yul\":561:581   */\n  tag_26\n    /* \"#utility.yul\":579:580   */\n  dup4\n    /* \"#utility.yul\":561:581   */\n  tag_12\n  jump\t// in\ntag_26:\n    /* \"#utility.yul\":556:581   */\n  swap3\n  pop\n    /* \"#utility.yul\":600:601   */\n  dup3\n    /* \"#utility.yul\":590:625   */\n  tag_27\n  jumpi\n    /* \"#utility.yul\":605:623   */\n  tag_28\n  tag_16\n  jump\t// in\ntag_28:\n    /* \"#utility.yul\":590:625   */\ntag_27:\n    /* \"#utility.yul\":646:647   */\n  dup3\n    /* \"#utility.yul\":643:644   */\n  dup3\n    /* \"#utility.yul\":639:648   */\n  mod\n    /* \"#utility.yul\":634:648   */\n  swap1\n  pop\n    /* \"#utility.yul\":478:654   */\n  swap3\n  swap2\n  pop\n  pop\n  jump\t// out\n    /* \"#utility.yul\":660:840   */\ntag_22:\n    /* \"#utility.yul\":708:785   */\n  0x4e487b7100000000000000000000000000000000000000000000000000000000\n    /* \"#utility.yul\":705:706   */\n  0x00\n    /* \"#utility.yul\":698:786   */\n  mstore\n    /* \"#utility.yul\":805:809   */\n  0x11\n    /* \"#utility.yul\":802:803   */\n  0x04\n    /* \"#utility.yul\":795:810   */\n  mstore\n    /* \"#utility.yul\":829:833   */\n  0x24\n    /* \"#utility.yul\":826:827   */\n  0x00\n    /* \"#utility.yul\":819:834   */\n  revert\n    /* \"#utility.yul\":846:1026   */\ntag_16:\n    /* \"#utility.yul\":894:971   */\n  0x4e487b7100000000000000000000000000000000000000000000000000000000\n    /* \"#utility.yul\":891:892   */\n  0x00\n    /* \"#utility.yul\":884:972   */\n  mstore\n    /* \"#utility.yul\":991:995   */\n  0x12\n    /* \"#utility.yul\":988:989   */\n  0x04\n    /* \"#utility.yul\":981:996   */\n  mstore\n    /* \"#utility.yul\":1015:1019   */\n  0x24\n    /* \"#utility.yul\":1012:1013   */\n  0x00\n    /* \"#utility.yul\":1005:1020   */\n  revert\n    /* \"contracts/4_test.sol\":74:1336  contract Test{\r... */\ntag_8:\n  dataSize(sub_0)\n  dup1\n  dataOffset(sub_0)\n  0x00\n  codecopy\n  0x00\n  return\nstop\n\nsub_0: assembly {\n        /* \"contracts/4_test.sol\":74:1336  contract Test{\r... */\n      mstore(0x40, 0x80)\n      callvalue\n      dup1\n      iszero\n      tag_1\n      jumpi\n      0x00\n      dup1\n      revert\n    tag_1:\n      pop\n      jumpi(tag_2, lt(calldatasize, 0x04))\n      shr(0xe0, calldataload(0x00))\n      dup1\n      0x2c4e722e\n      eq\n      tag_3\n      jumpi\n      dup1\n      0x45e0b9d4\n      eq\n      tag_4\n      jumpi\n      dup1\n      0x70ba1113\n      eq\n      tag_5\n      jumpi\n      dup1\n      0xaf465a27\n      eq\n      tag_6\n      jumpi\n      dup1\n      0xd49d5181\n      eq\n      tag_7\n      jumpi\n    tag_2:\n      0x00\n      dup1\n      revert\n        /* \"contracts/4_test.sol\":450:489  uint256 public rate = _rTotal / _tTotal */\n    tag_3:\n      tag_8\n      tag_9\n      jump\t// in\n    tag_8:\n      mload(0x40)\n      tag_10\n      swap2\n      swap1\n      tag_11\n      jump\t// in\n    tag_10:\n      mload(0x40)\n      dup1\n      swap2\n      sub\n      swap1\n      return\n        /* \"contracts/4_test.sol\":311:359  uint256 public _rTotal = (MAX - (MAX % _tTotal)) */\n    tag_4:\n      tag_12\n      tag_13\n      jump\t// in\n    tag_12:\n      mload(0x40)\n      tag_14\n      swap2\n      swap1\n      tag_11\n      jump\t// in\n    tag_14:\n      mload(0x40)\n      dup1\n      swap2\n      sub\n      swap1\n      return\n        /* \"contracts/4_test.sol\":1131:1331  function percent() public view returns(uint256) {\r... */\n    tag_5:\n      tag_15\n      tag_16\n      jump\t// in\n    tag_15:\n      mload(0x40)\n      tag_17\n      swap2\n      swap1\n      tag_11\n      jump\t// in\n    tag_17:\n      mload(0x40)\n      dup1\n      swap2\n      sub\n      swap1\n      return\n        /* \"contracts/4_test.sol\":248:291  uint256 public _tTotal = 5 * 10**6 * 10**18 */\n    tag_6:\n      tag_18\n      tag_19\n      jump\t// in\n    tag_18:\n      mload(0x40)\n      tag_20\n      swap2\n      swap1\n      tag_11\n      jump\t// in\n    tag_20:\n      mload(0x40)\n      dup1\n      swap2\n      sub\n      swap1\n      return\n        /* \"contracts/4_test.sol\":94:135  uint256 public constant MAX = ~uint256(0) */\n    tag_7:\n      tag_21\n      tag_22\n      jump\t// in\n    tag_21:\n      mload(0x40)\n      tag_23\n      swap2\n      swap1\n      tag_11\n      jump\t// in\n    tag_23:\n      mload(0x40)\n      dup1\n      swap2\n      sub\n      swap1\n      return\n        /* \"contracts/4_test.sol\":450:489  uint256 public rate = _rTotal / _tTotal */\n    tag_9:\n      sload(0x02)\n      dup2\n      jump\t// out\n        /* \"contracts/4_test.sol\":311:359  uint256 public _rTotal = (MAX - (MAX % _tTotal)) */\n    tag_13:\n      sload(0x01)\n      dup2\n      jump\t// out\n        /* \"contracts/4_test.sol\":1131:1331  function percent() public view returns(uint256) {\r... */\n    tag_16:\n        /* \"contracts/4_test.sol\":1170:1177  uint256 */\n      0x00\n        /* \"contracts/4_test.sol\":1190:1202  uint256 seed */\n      dup1\n        /* \"contracts/4_test.sol\":1205:1228  computeSeed(msg.sender) */\n      tag_25\n        /* \"contracts/4_test.sol\":1217:1227  msg.sender */\n      caller\n        /* \"contracts/4_test.sol\":1205:1216  computeSeed */\n      tag_26\n        /* \"contracts/4_test.sol\":1205:1228  computeSeed(msg.sender) */\n      jump\t// in\n    tag_25:\n        /* \"contracts/4_test.sol\":1190:1228  uint256 seed = computeSeed(msg.sender) */\n      swap1\n      pop\n        /* \"contracts/4_test.sol\":1239:1254  uint256 quality */\n      0x00\n        /* \"contracts/4_test.sol\":1292:1298  100000 */\n      0x0186a0\n        /* \"contracts/4_test.sol\":1275:1288  200 - 100 + 1 */\n      0x65\n        /* \"contracts/4_test.sol\":1265:1270  10000 */\n      0x2710\n        /* \"contracts/4_test.sol\":1258:1262  seed */\n      dup5\n        /* \"contracts/4_test.sol\":1258:1270  seed % 10000 */\n      tag_27\n      swap2\n      swap1\n      tag_28\n      jump\t// in\n    tag_27:\n        /* \"contracts/4_test.sol\":1257:1289  (seed % 10000) * (200 - 100 + 1) */\n      tag_29\n      swap2\n      swap1\n      tag_30\n      jump\t// in\n    tag_29:\n        /* \"contracts/4_test.sol\":1257:1298  (seed % 10000) * (200 - 100 + 1) + 100000 */\n      tag_31\n      swap2\n      swap1\n      tag_32\n      jump\t// in\n    tag_31:\n        /* \"contracts/4_test.sol\":1239:1298  uint256 quality = (seed % 10000) * (200 - 100 + 1) + 100000 */\n      swap1\n      pop\n        /* \"contracts/4_test.sol\":1316:1323  quality */\n      dup1\n        /* \"contracts/4_test.sol\":1309:1323  return quality */\n      swap3\n      pop\n      pop\n      pop\n        /* \"contracts/4_test.sol\":1131:1331  function percent() public view returns(uint256) {\r... */\n      swap1\n      jump\t// out\n        /* \"contracts/4_test.sol\":248:291  uint256 public _tTotal = 5 * 10**6 * 10**18 */\n    tag_19:\n      sload(0x00)\n      dup2\n      jump\t// out\n        /* \"contracts/4_test.sol\":94:135  uint256 public constant MAX = ~uint256(0) */\n    tag_22:\n        /* \"contracts/4_test.sol\":133:134  0 */\n      0x00\n        /* \"contracts/4_test.sol\":124:135  ~uint256(0) */\n      not\n        /* \"contracts/4_test.sol\":94:135  uint256 public constant MAX = ~uint256(0) */\n      dup2\n      jump\t// out\n        /* \"contracts/4_test.sol\":496:1123  function computeSeed(address user) internal view returns (uint256) {\r... */\n    tag_26:\n        /* \"contracts/4_test.sol\":554:561  uint256 */\n      0x00\n        /* \"contracts/4_test.sol\":574:586  uint256 _now */\n      dup1\n        /* \"contracts/4_test.sol\":589:604  block.timestamp */\n      timestamp\n        /* \"contracts/4_test.sol\":574:604  uint256 _now = block.timestamp */\n      swap1\n      pop\n        /* \"contracts/4_test.sol\":617:629  uint256 seed */\n      0x00\n        /* \"contracts/4_test.sol\":1036:1048  block.number */\n      number\n        /* \"contracts/4_test.sol\":1003:1007  _now */\n      dup3\n        /* \"contracts/4_test.sol\":993:997  user */\n      dup6\n        /* \"contracts/4_test.sol\":976:998  abi.encodePacked(user) */\n      add(0x20, mload(0x40))\n      tag_34\n      swap2\n      swap1\n      tag_35\n      jump\t// in\n    tag_34:\n      mload(0x40)\n      0x20\n      dup2\n      dup4\n      sub\n      sub\n      dup2\n      mstore\n      swap1\n      0x40\n      mstore\n        /* \"contracts/4_test.sol\":966:999  keccak256(abi.encodePacked(user)) */\n      dup1\n      mload\n      swap1\n      0x20\n      add\n      keccak256\n        /* \"contracts/4_test.sol\":958:1000  uint256(keccak256(abi.encodePacked(user))) */\n      0x00\n      shr\n        /* \"contracts/4_test.sol\":958:1007  uint256(keccak256(abi.encodePacked(user))) / _now */\n      tag_36\n      swap2\n      swap1\n      tag_37\n      jump\t// in\n    tag_36:\n        /* \"contracts/4_test.sol\":915:929  block.gaslimit */\n      gaslimit\n        /* \"contracts/4_test.sol\":882:886  _now */\n      dup5\n        /* \"contracts/4_test.sol\":833:847  block.coinbase */\n      coinbase\n        /* \"contracts/4_test.sol\":816:848  abi.encodePacked(block.coinbase) */\n      add(0x20, mload(0x40))\n      tag_38\n      swap2\n      swap1\n      tag_39\n      jump\t// in\n    tag_38:\n      mload(0x40)\n      0x20\n      dup2\n      dup4\n      sub\n      sub\n      dup2\n      mstore\n      swap1\n      0x40\n      mstore\n        /* \"contracts/4_test.sol\":806:849  keccak256(abi.encodePacked(block.coinbase)) */\n      dup1\n      mload\n      swap1\n      0x20\n      add\n      keccak256\n        /* \"contracts/4_test.sol\":798:850  uint256(keccak256(abi.encodePacked(block.coinbase))) */\n      0x00\n      shr\n        /* \"contracts/4_test.sol\":798:886  uint256(keccak256(abi.encodePacked(block.coinbase))) /\r... */\n      tag_40\n      swap2\n      swap1\n      tag_37\n      jump\t// in\n    tag_40:\n        /* \"contracts/4_test.sol\":753:769  block.difficulty */\n      difficulty\n        /* \"contracts/4_test.sol\":721:725  _now */\n      dup7\n        /* \"contracts/4_test.sol\":721:769  _now +\r... */\n      tag_41\n      swap2\n      swap1\n      tag_32\n      jump\t// in\n    tag_41:\n        /* \"contracts/4_test.sol\":721:887  _now +\r... */\n      tag_42\n      swap2\n      swap1\n      tag_32\n      jump\t// in\n    tag_42:\n        /* \"contracts/4_test.sol\":721:929  _now +\r... */\n      tag_43\n      swap2\n      swap1\n      tag_32\n      jump\t// in\n    tag_43:\n        /* \"contracts/4_test.sol\":721:1008  _now +\r... */\n      tag_44\n      swap2\n      swap1\n      tag_32\n      jump\t// in\n    tag_44:\n        /* \"contracts/4_test.sol\":721:1048  _now +\r... */\n      tag_45\n      swap2\n      swap1\n      tag_32\n      jump\t// in\n    tag_45:\n        /* \"contracts/4_test.sol\":682:1067  abi.encodePacked(\r... */\n      add(0x20, mload(0x40))\n      tag_46\n      swap2\n      swap1\n      tag_47\n      jump\t// in\n    tag_46:\n      mload(0x40)\n      0x20\n      dup2\n      dup4\n      sub\n      sub\n      dup2\n      mstore\n      swap1\n      0x40\n      mstore\n        /* \"contracts/4_test.sol\":654:1082  keccak256(\r... */\n      dup1\n      mload\n      swap1\n      0x20\n      add\n      keccak256\n        /* \"contracts/4_test.sol\":632:1093  uint256(\r... */\n      0x00\n      shr\n        /* \"contracts/4_test.sol\":617:1093  uint256 seed = uint256(\r... */\n      swap1\n      pop\n        /* \"contracts/4_test.sol\":1111:1115  seed */\n      dup1\n        /* \"contracts/4_test.sol\":1104:1115  return seed */\n      swap3\n      pop\n      pop\n      pop\n        /* \"contracts/4_test.sol\":496:1123  function computeSeed(address user) internal view returns (uint256) {\r... */\n      swap2\n      swap1\n      pop\n      jump\t// out\n        /* \"#utility.yul\":7:196   */\n    tag_49:\n        /* \"#utility.yul\":128:189   */\n      tag_51\n        /* \"#utility.yul\":156:188   */\n      tag_52\n        /* \"#utility.yul\":182:187   */\n      dup3\n        /* \"#utility.yul\":156:188   */\n      tag_53\n      jump\t// in\n    tag_52:\n        /* \"#utility.yul\":128:189   */\n      tag_54\n      jump\t// in\n    tag_51:\n        /* \"#utility.yul\":123:126   */\n      dup3\n        /* \"#utility.yul\":116:190   */\n      mstore\n        /* \"#utility.yul\":7:196   */\n      pop\n      pop\n      jump\t// out\n        /* \"#utility.yul\":202:359   */\n    tag_55:\n        /* \"#utility.yul\":307:352   */\n      tag_57\n        /* \"#utility.yul\":327:351   */\n      tag_58\n        /* \"#utility.yul\":345:350   */\n      dup3\n        /* \"#utility.yul\":327:351   */\n      tag_59\n      jump\t// in\n    tag_58:\n        /* \"#utility.yul\":307:352   */\n      tag_60\n      jump\t// in\n    tag_57:\n        /* \"#utility.yul\":302:305   */\n      dup3\n        /* \"#utility.yul\":295:353   */\n      mstore\n        /* \"#utility.yul\":202:359   */\n      pop\n      pop\n      jump\t// out\n        /* \"#utility.yul\":365:483   */\n    tag_61:\n        /* \"#utility.yul\":452:476   */\n      tag_63\n        /* \"#utility.yul\":470:475   */\n      dup2\n        /* \"#utility.yul\":452:476   */\n      tag_64\n      jump\t// in\n    tag_63:\n        /* \"#utility.yul\":447:450   */\n      dup3\n        /* \"#utility.yul\":440:477   */\n      mstore\n        /* \"#utility.yul\":365:483   */\n      pop\n      pop\n      jump\t// out\n        /* \"#utility.yul\":489:646   */\n    tag_65:\n        /* \"#utility.yul\":594:639   */\n      tag_67\n        /* \"#utility.yul\":614:638   */\n      tag_68\n        /* \"#utility.yul\":632:637   */\n      dup3\n        /* \"#utility.yul\":614:638   */\n      tag_64\n      jump\t// in\n    tag_68:\n        /* \"#utility.yul\":594:639   */\n      tag_69\n      jump\t// in\n    tag_67:\n        /* \"#utility.yul\":589:592   */\n      dup3\n        /* \"#utility.yul\":582:640   */\n      mstore\n        /* \"#utility.yul\":489:646   */\n      pop\n      pop\n      jump\t// out\n        /* \"#utility.yul\":652:908   */\n    tag_35:\n        /* \"#utility.yul\":764:767   */\n      0x00\n        /* \"#utility.yul\":779:854   */\n      tag_71\n        /* \"#utility.yul\":850:853   */\n      dup3\n        /* \"#utility.yul\":841:847   */\n      dup5\n        /* \"#utility.yul\":779:854   */\n      tag_55\n      jump\t// in\n    tag_71:\n        /* \"#utility.yul\":879:881   */\n      0x14\n        /* \"#utility.yul\":874:877   */\n      dup3\n        /* \"#utility.yul\":870:882   */\n      add\n        /* \"#utility.yul\":863:882   */\n      swap2\n      pop\n        /* \"#utility.yul\":899:902   */\n      dup2\n        /* \"#utility.yul\":892:902   */\n      swap1\n      pop\n        /* \"#utility.yul\":652:908   */\n      swap3\n      swap2\n      pop\n      pop\n      jump\t// out\n        /* \"#utility.yul\":914:1202   */\n    tag_39:\n        /* \"#utility.yul\":1042:1045   */\n      0x00\n        /* \"#utility.yul\":1057:1148   */\n      tag_73\n        /* \"#utility.yul\":1144:1147   */\n      dup3\n        /* \"#utility.yul\":1135:1141   */\n      dup5\n        /* \"#utility.yul\":1057:1148   */\n      tag_49\n      jump\t// in\n    tag_73:\n        /* \"#utility.yul\":1173:1175   */\n      0x14\n        /* \"#utility.yul\":1168:1171   */\n      dup3\n        /* \"#utility.yul\":1164:1176   */\n      add\n        /* \"#utility.yul\":1157:1176   */\n      swap2\n      pop\n        /* \"#utility.yul\":1193:1196   */\n      dup2\n        /* \"#utility.yul\":1186:1196   */\n      swap1\n      pop\n        /* \"#utility.yul\":914:1202   */\n      swap3\n      swap2\n      pop\n      pop\n      jump\t// out\n        /* \"#utility.yul\":1208:1464   */\n    tag_47:\n        /* \"#utility.yul\":1320:1323   */\n      0x00\n        /* \"#utility.yul\":1335:1410   */\n      tag_75\n        /* \"#utility.yul\":1406:1409   */\n      dup3\n        /* \"#utility.yul\":1397:1403   */\n      dup5\n        /* \"#utility.yul\":1335:1410   */\n      tag_65\n      jump\t// in\n    tag_75:\n        /* \"#utility.yul\":1435:1437   */\n      0x20\n        /* \"#utility.yul\":1430:1433   */\n      dup3\n        /* \"#utility.yul\":1426:1438   */\n      add\n        /* \"#utility.yul\":1419:1438   */\n      swap2\n      pop\n        /* \"#utility.yul\":1455:1458   */\n      dup2\n        /* \"#utility.yul\":1448:1458   */\n      swap1\n      pop\n        /* \"#utility.yul\":1208:1464   */\n      swap3\n      swap2\n      pop\n      pop\n      jump\t// out\n        /* \"#utility.yul\":1470:1692   */\n    tag_11:\n        /* \"#utility.yul\":1563:1567   */\n      0x00\n        /* \"#utility.yul\":1601:1603   */\n      0x20\n        /* \"#utility.yul\":1590:1599   */\n      dup3\n        /* \"#utility.yul\":1586:1604   */\n      add\n        /* \"#utility.yul\":1578:1604   */\n      swap1\n      pop\n        /* \"#utility.yul\":1614:1685   */\n      tag_77\n        /* \"#utility.yul\":1682:1683   */\n      0x00\n        /* \"#utility.yul\":1671:1680   */\n      dup4\n        /* \"#utility.yul\":1667:1684   */\n      add\n        /* \"#utility.yul\":1658:1664   */\n      dup5\n        /* \"#utility.yul\":1614:1685   */\n      tag_61\n      jump\t// in\n    tag_77:\n        /* \"#utility.yul\":1470:1692   */\n      swap3\n      swap2\n      pop\n      pop\n      jump\t// out\n        /* \"#utility.yul\":1698:2003   */\n    tag_32:\n        /* \"#utility.yul\":1738:1741   */\n      0x00\n        /* \"#utility.yul\":1757:1777   */\n      tag_79\n        /* \"#utility.yul\":1775:1776   */\n      dup3\n        /* \"#utility.yul\":1757:1777   */\n      tag_64\n      jump\t// in\n    tag_79:\n        /* \"#utility.yul\":1752:1777   */\n      swap2\n      pop\n        /* \"#utility.yul\":1791:1811   */\n      tag_80\n        /* \"#utility.yul\":1809:1810   */\n      dup4\n        /* \"#utility.yul\":1791:1811   */\n      tag_64\n      jump\t// in\n    tag_80:\n        /* \"#utility.yul\":1786:1811   */\n      swap3\n      pop\n        /* \"#utility.yul\":1945:1946   */\n      dup3\n        /* \"#utility.yul\":1877:1943   */\n      0xffffffffffffffffffffffffffffffffffffffffffffffffffffffffffffffff\n        /* \"#utility.yul\":1873:1947   */\n      sub\n        /* \"#utility.yul\":1870:1871   */\n      dup3\n        /* \"#utility.yul\":1867:1948   */\n      gt\n        /* \"#utility.yul\":1864:1971   */\n      iszero\n      tag_81\n      jumpi\n        /* \"#utility.yul\":1951:1969   */\n      tag_82\n      tag_83\n      jump\t// in\n    tag_82:\n        /* \"#utility.yul\":1864:1971   */\n    tag_81:\n        /* \"#utility.yul\":1995:1996   */\n      dup3\n        /* \"#utility.yul\":1992:1993   */\n      dup3\n        /* \"#utility.yul\":1988:1997   */\n      add\n        /* \"#utility.yul\":1981:1997   */\n      swap1\n      pop\n        /* \"#utility.yul\":1698:2003   */\n      swap3\n      swap2\n      pop\n      pop\n      jump\t// out\n        /* \"#utility.yul\":2009:2194   */\n    tag_37:\n        /* \"#utility.yul\":2049:2050   */\n      0x00\n        /* \"#utility.yul\":2066:2086   */\n      tag_85\n        /* \"#utility.yul\":2084:2085   */\n      dup3\n        /* \"#utility.yul\":2066:2086   */\n      tag_64\n      jump\t// in\n    tag_85:\n        /* \"#utility.yul\":2061:2086   */\n      swap2\n      pop\n        /* \"#utility.yul\":2100:2120   */\n      tag_86\n        /* \"#utility.yul\":2118:2119   */\n      dup4\n        /* \"#utility.yul\":2100:2120   */\n      tag_64\n      jump\t// in\n    tag_86:\n        /* \"#utility.yul\":2095:2120   */\n      swap3\n      pop\n        /* \"#utility.yul\":2139:2140   */\n      dup3\n        /* \"#utility.yul\":2129:2164   */\n      tag_87\n      jumpi\n        /* \"#utility.yul\":2144:2162   */\n      tag_88\n      tag_89\n      jump\t// in\n    tag_88:\n        /* \"#utility.yul\":2129:2164   */\n    tag_87:\n        /* \"#utility.yul\":2186:2187   */\n      dup3\n        /* \"#utility.yul\":2183:2184   */\n      dup3\n        /* \"#utility.yul\":2179:2188   */\n      div\n        /* \"#utility.yul\":2174:2188   */\n      swap1\n      pop\n        /* \"#utility.yul\":2009:2194   */\n      swap3\n      swap2\n      pop\n      pop\n      jump\t// out\n        /* \"#utility.yul\":2200:2548   */\n    tag_30:\n        /* \"#utility.yul\":2240:2247   */\n      0x00\n        /* \"#utility.yul\":2263:2283   */\n      tag_91\n        /* \"#utility.yul\":2281:2282   */\n      dup3\n        /* \"#utility.yul\":2263:2283   */\n      tag_64\n      jump\t// in\n    tag_91:\n        /* \"#utility.yul\":2258:2283   */\n      swap2\n      pop\n        /* \"#utility.yul\":2297:2317   */\n      tag_92\n        /* \"#utility.yul\":2315:2316   */\n      dup4\n        /* \"#utility.yul\":2297:2317   */\n      tag_64\n      jump\t// in\n    tag_92:\n        /* \"#utility.yul\":2292:2317   */\n      swap3\n      pop\n        /* \"#utility.yul\":2485:2486   */\n      dup2\n        /* \"#utility.yul\":2417:2483   */\n      0xffffffffffffffffffffffffffffffffffffffffffffffffffffffffffffffff\n        /* \"#utility.yul\":2413:2487   */\n      div\n        /* \"#utility.yul\":2410:2411   */\n      dup4\n        /* \"#utility.yul\":2407:2488   */\n      gt\n        /* \"#utility.yul\":2402:2403   */\n      dup3\n        /* \"#utility.yul\":2395:2404   */\n      iszero\n        /* \"#utility.yul\":2388:2405   */\n      iszero\n        /* \"#utility.yul\":2384:2489   */\n      and\n        /* \"#utility.yul\":2381:2512   */\n      iszero\n      tag_93\n      jumpi\n        /* \"#utility.yul\":2492:2510   */\n      tag_94\n      tag_83\n      jump\t// in\n    tag_94:\n        /* \"#utility.yul\":2381:2512   */\n    tag_93:\n        /* \"#utility.yul\":2540:2541   */\n      dup3\n        /* \"#utility.yul\":2537:2538   */\n      dup3\n        /* \"#utility.yul\":2533:2542   */\n      mul\n        /* \"#utility.yul\":2522:2542   */\n      swap1\n      pop\n        /* \"#utility.yul\":2200:2548   */\n      swap3\n      swap2\n      pop\n      pop\n      jump\t// out\n        /* \"#utility.yul\":2554:2650   */\n    tag_59:\n        /* \"#utility.yul\":2591:2598   */\n      0x00\n        /* \"#utility.yul\":2620:2644   */\n      tag_96\n        /* \"#utility.yul\":2638:2643   */\n      dup3\n        /* \"#utility.yul\":2620:2644   */\n      tag_97\n      jump\t// in\n    tag_96:\n        /* \"#utility.yul\":2609:2644   */\n      swap1\n      pop\n        /* \"#utility.yul\":2554:2650   */\n      swap2\n      swap1\n      pop\n      jump\t// out\n        /* \"#utility.yul\":2656:2760   */\n    tag_53:\n        /* \"#utility.yul\":2701:2708   */\n      0x00\n        /* \"#utility.yul\":2730:2754   */\n      tag_99\n        /* \"#utility.yul\":2748:2753   */\n      dup3\n        /* \"#utility.yul\":2730:2754   */\n      tag_97\n      jump\t// in\n    tag_99:\n        /* \"#utility.yul\":2719:2754   */\n      swap1\n      pop\n        /* \"#utility.yul\":2656:2760   */\n      swap2\n      swap1\n      pop\n      jump\t// out\n        /* \"#utility.yul\":2766:2892   */\n    tag_97:\n        /* \"#utility.yul\":2803:2810   */\n      0x00\n        /* \"#utility.yul\":2843:2885   */\n      0xffffffffffffffffffffffffffffffffffffffff\n        /* \"#utility.yul\":2836:2841   */\n      dup3\n        /* \"#utility.yul\":2832:2886   */\n      and\n        /* \"#utility.yul\":2821:2886   */\n      swap1\n      pop\n        /* \"#utility.yul\":2766:2892   */\n      swap2\n      swap1\n      pop\n      jump\t// out\n        /* \"#utility.yul\":2898:2975   */\n    tag_64:\n        /* \"#utility.yul\":2935:2942   */\n      0x00\n        /* \"#utility.yul\":2964:2969   */\n      dup2\n        /* \"#utility.yul\":2953:2969   */\n      swap1\n      pop\n        /* \"#utility.yul\":2898:2975   */\n      swap2\n      swap1\n      pop\n      jump\t// out\n        /* \"#utility.yul\":2981:3081   */\n    tag_60:\n        /* \"#utility.yul\":3020:3027   */\n      0x00\n        /* \"#utility.yul\":3049:3075   */\n      tag_103\n        /* \"#utility.yul\":3069:3074   */\n      dup3\n        /* \"#utility.yul\":3049:3075   */\n      tag_104\n      jump\t// in\n    tag_103:\n        /* \"#utility.yul\":3038:3075   */\n      swap1\n      pop\n        /* \"#utility.yul\":2981:3081   */\n      swap2\n      swap1\n      pop\n      jump\t// out\n        /* \"#utility.yul\":3087:3195   */\n    tag_54:\n        /* \"#utility.yul\":3134:3141   */\n      0x00\n        /* \"#utility.yul\":3163:3189   */\n      tag_106\n        /* \"#utility.yul\":3183:3188   */\n      dup3\n        /* \"#utility.yul\":3163:3189   */\n      tag_104\n      jump\t// in\n    tag_106:\n        /* \"#utility.yul\":3152:3189   */\n      swap1\n      pop\n        /* \"#utility.yul\":3087:3195   */\n      swap2\n      swap1\n      pop\n      jump\t// out\n        /* \"#utility.yul\":3201:3295   */\n    tag_104:\n        /* \"#utility.yul\":3240:3247   */\n      0x00\n        /* \"#utility.yul\":3269:3289   */\n      tag_108\n        /* \"#utility.yul\":3283:3288   */\n      dup3\n        /* \"#utility.yul\":3269:3289   */\n      tag_109\n      jump\t// in\n    tag_108:\n        /* \"#utility.yul\":3258:3289   */\n      swap1\n      pop\n        /* \"#utility.yul\":3201:3295   */\n      swap2\n      swap1\n      pop\n      jump\t// out\n        /* \"#utility.yul\":3301:3380   */\n    tag_69:\n        /* \"#utility.yul\":3340:3347   */\n      0x00\n        /* \"#utility.yul\":3369:3374   */\n      dup2\n        /* \"#utility.yul\":3358:3374   */\n      swap1\n      pop\n        /* \"#utility.yul\":3301:3380   */\n      swap2\n      swap1\n      pop\n      jump\t// out\n        /* \"#utility.yul\":3386:3562   */\n    tag_28:\n        /* \"#utility.yul\":3418:3419   */\n      0x00\n        /* \"#utility.yul\":3435:3455   */\n      tag_112\n        /* \"#utility.yul\":3453:3454   */\n      dup3\n        /* \"#utility.yul\":3435:3455   */\n      tag_64\n      jump\t// in\n    tag_112:\n        /* \"#utility.yul\":3430:3455   */\n      swap2\n      pop\n        /* \"#utility.yul\":3469:3489   */\n      tag_113\n        /* \"#utility.yul\":3487:3488   */\n      dup4\n        /* \"#utility.yul\":3469:3489   */\n      tag_64\n      jump\t// in\n    tag_113:\n        /* \"#utility.yul\":3464:3489   */\n      swap3\n      pop\n        /* \"#utility.yul\":3508:3509   */\n      dup3\n        /* \"#utility.yul\":3498:3533   */\n      tag_114\n      jumpi\n        /* \"#utility.yul\":3513:3531   */\n      tag_115\n      tag_89\n      jump\t// in\n    tag_115:\n        /* \"#utility.yul\":3498:3533   */\n    tag_114:\n        /* \"#utility.yul\":3554:3555   */\n      dup3\n        /* \"#utility.yul\":3551:3552   */\n      dup3\n        /* \"#utility.yul\":3547:3556   */\n      mod\n        /* \"#utility.yul\":3542:3556   */\n      swap1\n      pop\n        /* \"#utility.yul\":3386:3562   */\n      swap3\n      swap2\n      pop\n      pop\n      jump\t// out\n        /* \"#utility.yul\":3568:3748   */\n    tag_83:\n        /* \"#utility.yul\":3616:3693   */\n      0x4e487b7100000000000000000000000000000000000000000000000000000000\n        /* \"#utility.yul\":3613:3614   */\n      0x00\n        /* \"#utility.yul\":3606:3694   */\n      mstore\n        /* \"#utility.yul\":3713:3717   */\n      0x11\n        /* \"#utility.yul\":3710:3711   */\n      0x04\n        /* \"#utility.yul\":3703:3718   */\n      mstore\n        /* \"#utility.yul\":3737:3741   */\n      0x24\n        /* \"#utility.yul\":3734:3735   */\n      0x00\n        /* \"#utility.yul\":3727:3742   */\n      revert\n        /* \"#utility.yul\":3754:3934   */\n    tag_89:\n        /* \"#utility.yul\":3802:3879   */\n      0x4e487b7100000000000000000000000000000000000000000000000000000000\n        /* \"#utility.yul\":3799:3800   */\n      0x00\n        /* \"#utility.yul\":3792:3880   */\n      mstore\n        /* \"#utility.yul\":3899:3903   */\n      0x12\n        /* \"#utility.yul\":3896:3897   */\n      0x04\n        /* \"#utility.yul\":3889:3904   */\n      mstore\n        /* \"#utility.yul\":3923:3927   */\n      0x24\n        /* \"#utility.yul\":3920:3921   */\n      0x00\n        /* \"#utility.yul\":3913:3928   */\n      revert\n        /* \"#utility.yul\":3940:4034   */\n    tag_109:\n        /* \"#utility.yul\":3973:3981   */\n      0x00\n        /* \"#utility.yul\":4021:4026   */\n      dup2\n        /* \"#utility.yul\":4017:4019   */\n      0x60\n        /* \"#utility.yul\":4013:4027   */\n      shl\n        /* \"#utility.yul\":3992:4027   */\n      swap1\n      pop\n        /* \"#utility.yul\":3940:4034   */\n      swap2\n      swap1\n      pop\n      jump\t// out\n\n    auxdata: 0xa2646970667358221220ad620115a844fa6f9fef9051bd3fd6c6554b4792afaf19cdcf58dc9b12caa42364736f6c63430008070033\n}\n",
				"bytecode": {
					"linkReferences": {},
					"object": "60806040526a0422ca8b0a00a42500000060005560005460001961002391906100c7565b6000196100309190610089565b6001556000546001546100439190610058565b60025534801561005257600080fd5b50610156565b6000610063826100bd565b915061006e836100bd565b92508261007e5761007d610127565b5b828204905092915050565b6000610094826100bd565b915061009f836100bd565b9250828210156100b2576100b16100f8565b5b828203905092915050565b6000819050919050565b60006100d2826100bd565b91506100dd836100bd565b9250826100ed576100ec610127565b5b828206905092915050565b7f4e487b7100000000000000000000000000000000000000000000000000000000600052601160045260246000fd5b7f4e487b7100000000000000000000000000000000000000000000000000000000600052601260045260246000fd5b61052a806101656000396000f3fe608060405234801561001057600080fd5b50600436106100575760003560e01c80632c4e722e1461005c57806345e0b9d41461007a57806370ba111314610098578063af465a27146100b6578063d49d5181146100d4575b600080fd5b6100646100f2565b60405161007191906102ce565b60405180910390f35b6100826100f8565b60405161008f91906102ce565b60405180910390f35b6100a06100fe565b6040516100ad91906102ce565b60405180910390f35b6100be610140565b6040516100cb91906102ce565b60405180910390f35b6100dc610146565b6040516100e991906102ce565b60405180910390f35b60025481565b60015481565b60008061010a3361014c565b90506000620186a06065612710846101229190610458565b61012c9190610370565b61013691906102e9565b9050809250505090565b60005481565b60001981565b6000804290506000438285604051602001610167919061027d565b6040516020818303038152906040528051906020012060001c61018a919061033f565b45844160405160200161019d9190610298565b6040516020818303038152906040528051906020012060001c6101c0919061033f565b44866101cc91906102e9565b6101d691906102e9565b6101e091906102e9565b6101ea91906102e9565b6101f491906102e9565b60405160200161020491906102b3565b6040516020818303038152906040528051906020012060001c90508092505050919050565b61023a610235826103dc565b61042a565b82525050565b61025161024c826103ca565b610418565b82525050565b6102608161040e565b82525050565b6102776102728261040e565b61044e565b82525050565b60006102898284610240565b60148201915081905092915050565b60006102a48284610229565b60148201915081905092915050565b60006102bf8284610266565b60208201915081905092915050565b60006020820190506102e36000830184610257565b92915050565b60006102f48261040e565b91506102ff8361040e565b9250827fffffffffffffffffffffffffffffffffffffffffffffffffffffffffffffffff0382111561033457610333610489565b5b828201905092915050565b600061034a8261040e565b91506103558361040e565b925082610365576103646104b8565b5b828204905092915050565b600061037b8261040e565b91506103868361040e565b9250817fffffffffffffffffffffffffffffffffffffffffffffffffffffffffffffffff04831182151516156103bf576103be610489565b5b828202905092915050565b60006103d5826103ee565b9050919050565b60006103e7826103ee565b9050919050565b600073ffffffffffffffffffffffffffffffffffffffff82169050919050565b6000819050919050565b60006104238261043c565b9050919050565b60006104358261043c565b9050919050565b6000610447826104e7565b9050919050565b6000819050919050565b60006104638261040e565b915061046e8361040e565b92508261047e5761047d6104b8565b5b828206905092915050565b7f4e487b7100000000000000000000000000000000000000000000000000000000600052601160045260246000fd5b7f4e487b7100000000000000000000000000000000000000000000000000000000600052601260045260246000fd5b60008160601b905091905056fea2646970667358221220ad620115a844fa6f9fef9051bd3fd6c6554b4792afaf19cdcf58dc9b12caa42364736f6c63430008070033",
					"opcodes": "PUSH1 0x80 PUSH1 0x40 MSTORE PUSH11 0x422CA8B0A00A425000000 PUSH1 0x0 SSTORE PUSH1 0x0 SLOAD PUSH1 0x0 NOT PUSH2 0x23 SWAP2 SWAP1 PUSH2 0xC7 JUMP JUMPDEST PUSH1 0x0 NOT PUSH2 0x30 SWAP2 SWAP1 PUSH2 0x89 JUMP JUMPDEST PUSH1 0x1 SSTORE PUSH1 0x0 SLOAD PUSH1 0x1 SLOAD PUSH2 0x43 SWAP2 SWAP1 PUSH2 0x58 JUMP JUMPDEST PUSH1 0x2 SSTORE CALLVALUE DUP1 ISZERO PUSH2 0x52 JUMPI PUSH1 0x0 DUP1 REVERT JUMPDEST POP PUSH2 0x156 JUMP JUMPDEST PUSH1 0x0 PUSH2 0x63 DUP3 PUSH2 0xBD JUMP JUMPDEST SWAP2 POP PUSH2 0x6E DUP4 PUSH2 0xBD JUMP JUMPDEST SWAP3 POP DUP3 PUSH2 0x7E JUMPI PUSH2 0x7D PUSH2 0x127 JUMP JUMPDEST JUMPDEST DUP3 DUP3 DIV SWAP1 POP SWAP3 SWAP2 POP POP JUMP JUMPDEST PUSH1 0x0 PUSH2 0x94 DUP3 PUSH2 0xBD JUMP JUMPDEST SWAP2 POP PUSH2 0x9F DUP4 PUSH2 0xBD JUMP JUMPDEST SWAP3 POP DUP3 DUP3 LT ISZERO PUSH2 0xB2 JUMPI PUSH2 0xB1 PUSH2 0xF8 JUMP JUMPDEST JUMPDEST DUP3 DUP3 SUB SWAP1 POP SWAP3 SWAP2 POP POP JUMP JUMPDEST PUSH1 0x0 DUP2 SWAP1 POP SWAP2 SWAP1 POP JUMP JUMPDEST PUSH1 0x0 PUSH2 0xD2 DUP3 PUSH2 0xBD JUMP JUMPDEST SWAP2 POP PUSH2 0xDD DUP4 PUSH2 0xBD JUMP JUMPDEST SWAP3 POP DUP3 PUSH2 0xED JUMPI PUSH2 0xEC PUSH2 0x127 JUMP JUMPDEST JUMPDEST DUP3 DUP3 MOD SWAP1 POP SWAP3 SWAP2 POP POP JUMP JUMPDEST PUSH32 0x4E487B7100000000000000000000000000000000000000000000000000000000 PUSH1 0x0 MSTORE PUSH1 0x11 PUSH1 0x4 MSTORE PUSH1 0x24 PUSH1 0x0 REVERT JUMPDEST PUSH32 0x4E487B7100000000000000000000000000000000000000000000000000000000 PUSH1 0x0 MSTORE PUSH1 0x12 PUSH1 0x4 MSTORE PUSH1 0x24 PUSH1 0x0 REVERT JUMPDEST PUSH2 0x52A DUP1 PUSH2 0x165 PUSH1 0x0 CODECOPY PUSH1 0x0 RETURN INVALID PUSH1 0x80 PUSH1 0x40 MSTORE CALLVALUE DUP1 ISZERO PUSH2 0x10 JUMPI PUSH1 0x0 DUP1 REVERT JUMPDEST POP PUSH1 0x4 CALLDATASIZE LT PUSH2 0x57 JUMPI PUSH1 0x0 CALLDATALOAD PUSH1 0xE0 SHR DUP1 PUSH4 0x2C4E722E EQ PUSH2 0x5C JUMPI DUP1 PUSH4 0x45E0B9D4 EQ PUSH2 0x7A JUMPI DUP1 PUSH4 0x70BA1113 EQ PUSH2 0x98 JUMPI DUP1 PUSH4 0xAF465A27 EQ PUSH2 0xB6 JUMPI DUP1 PUSH4 0xD49D5181 EQ PUSH2 0xD4 JUMPI JUMPDEST PUSH1 0x0 DUP1 REVERT JUMPDEST PUSH2 0x64 PUSH2 0xF2 JUMP JUMPDEST PUSH1 0x40 MLOAD PUSH2 0x71 SWAP2 SWAP1 PUSH2 0x2CE JUMP JUMPDEST PUSH1 0x40 MLOAD DUP1 SWAP2 SUB SWAP1 RETURN JUMPDEST PUSH2 0x82 PUSH2 0xF8 JUMP JUMPDEST PUSH1 0x40 MLOAD PUSH2 0x8F SWAP2 SWAP1 PUSH2 0x2CE JUMP JUMPDEST PUSH1 0x40 MLOAD DUP1 SWAP2 SUB SWAP1 RETURN JUMPDEST PUSH2 0xA0 PUSH2 0xFE JUMP JUMPDEST PUSH1 0x40 MLOAD PUSH2 0xAD SWAP2 SWAP1 PUSH2 0x2CE JUMP JUMPDEST PUSH1 0x40 MLOAD DUP1 SWAP2 SUB SWAP1 RETURN JUMPDEST PUSH2 0xBE PUSH2 0x140 JUMP JUMPDEST PUSH1 0x40 MLOAD PUSH2 0xCB SWAP2 SWAP1 PUSH2 0x2CE JUMP JUMPDEST PUSH1 0x40 MLOAD DUP1 SWAP2 SUB SWAP1 RETURN JUMPDEST PUSH2 0xDC PUSH2 0x146 JUMP JUMPDEST PUSH1 0x40 MLOAD PUSH2 0xE9 SWAP2 SWAP1 PUSH2 0x2CE JUMP JUMPDEST PUSH1 0x40 MLOAD DUP1 SWAP2 SUB SWAP1 RETURN JUMPDEST PUSH1 0x2 SLOAD DUP2 JUMP JUMPDEST PUSH1 0x1 SLOAD DUP2 JUMP JUMPDEST PUSH1 0x0 DUP1 PUSH2 0x10A CALLER PUSH2 0x14C JUMP JUMPDEST SWAP1 POP PUSH1 0x0 PUSH3 0x186A0 PUSH1 0x65 PUSH2 0x2710 DUP5 PUSH2 0x122 SWAP2 SWAP1 PUSH2 0x458 JUMP JUMPDEST PUSH2 0x12C SWAP2 SWAP1 PUSH2 0x370 JUMP JUMPDEST PUSH2 0x136 SWAP2 SWAP1 PUSH2 0x2E9 JUMP JUMPDEST SWAP1 POP DUP1 SWAP3 POP POP POP SWAP1 JUMP JUMPDEST PUSH1 0x0 SLOAD DUP2 JUMP JUMPDEST PUSH1 0x0 NOT DUP2 JUMP JUMPDEST PUSH1 0x0 DUP1 TIMESTAMP SWAP1 POP PUSH1 0x0 NUMBER DUP3 DUP6 PUSH1 0x40 MLOAD PUSH1 0x20 ADD PUSH2 0x167 SWAP2 SWAP1 PUSH2 0x27D JUMP JUMPDEST PUSH1 0x40 MLOAD PUSH1 0x20 DUP2 DUP4 SUB SUB DUP2 MSTORE SWAP1 PUSH1 0x40 MSTORE DUP1 MLOAD SWAP1 PUSH1 0x20 ADD KECCAK256 PUSH1 0x0 SHR PUSH2 0x18A SWAP2 SWAP1 PUSH2 0x33F JUMP JUMPDEST GASLIMIT DUP5 COINBASE PUSH1 0x40 MLOAD PUSH1 0x20 ADD PUSH2 0x19D SWAP2 SWAP1 PUSH2 0x298 JUMP JUMPDEST PUSH1 0x40 MLOAD PUSH1 0x20 DUP2 DUP4 SUB SUB DUP2 MSTORE SWAP1 PUSH1 0x40 MSTORE DUP1 MLOAD SWAP1 PUSH1 0x20 ADD KECCAK256 PUSH1 0x0 SHR PUSH2 0x1C0 SWAP2 SWAP1 PUSH2 0x33F JUMP JUMPDEST DIFFICULTY DUP7 PUSH2 0x1CC SWAP2 SWAP1 PUSH2 0x2E9 JUMP JUMPDEST PUSH2 0x1D6 SWAP2 SWAP1 PUSH2 0x2E9 JUMP JUMPDEST PUSH2 0x1E0 SWAP2 SWAP1 PUSH2 0x2E9 JUMP JUMPDEST PUSH2 0x1EA SWAP2 SWAP1 PUSH2 0x2E9 JUMP JUMPDEST PUSH2 0x1F4 SWAP2 SWAP1 PUSH2 0x2E9 JUMP JUMPDEST PUSH1 0x40 MLOAD PUSH1 0x20 ADD PUSH2 0x204 SWAP2 SWAP1 PUSH2 0x2B3 JUMP JUMPDEST PUSH1 0x40 MLOAD PUSH1 0x20 DUP2 DUP4 SUB SUB DUP2 MSTORE SWAP1 PUSH1 0x40 MSTORE DUP1 MLOAD SWAP1 PUSH1 0x20 ADD KECCAK256 PUSH1 0x0 SHR SWAP1 POP DUP1 SWAP3 POP POP POP SWAP2 SWAP1 POP JUMP JUMPDEST PUSH2 0x23A PUSH2 0x235 DUP3 PUSH2 0x3DC JUMP JUMPDEST PUSH2 0x42A JUMP JUMPDEST DUP3 MSTORE POP POP JUMP JUMPDEST PUSH2 0x251 PUSH2 0x24C DUP3 PUSH2 0x3CA JUMP JUMPDEST PUSH2 0x418 JUMP JUMPDEST DUP3 MSTORE POP POP JUMP JUMPDEST PUSH2 0x260 DUP2 PUSH2 0x40E JUMP JUMPDEST DUP3 MSTORE POP POP JUMP JUMPDEST PUSH2 0x277 PUSH2 0x272 DUP3 PUSH2 0x40E JUMP JUMPDEST PUSH2 0x44E JUMP JUMPDEST DUP3 MSTORE POP POP JUMP JUMPDEST PUSH1 0x0 PUSH2 0x289 DUP3 DUP5 PUSH2 0x240 JUMP JUMPDEST PUSH1 0x14 DUP3 ADD SWAP2 POP DUP2 SWAP1 POP SWAP3 SWAP2 POP POP JUMP JUMPDEST PUSH1 0x0 PUSH2 0x2A4 DUP3 DUP5 PUSH2 0x229 JUMP JUMPDEST PUSH1 0x14 DUP3 ADD SWAP2 POP DUP2 SWAP1 POP SWAP3 SWAP2 POP POP JUMP JUMPDEST PUSH1 0x0 PUSH2 0x2BF DUP3 DUP5 PUSH2 0x266 JUMP JUMPDEST PUSH1 0x20 DUP3 ADD SWAP2 POP DUP2 SWAP1 POP SWAP3 SWAP2 POP POP JUMP JUMPDEST PUSH1 0x0 PUSH1 0x20 DUP3 ADD SWAP1 POP PUSH2 0x2E3 PUSH1 0x0 DUP4 ADD DUP5 PUSH2 0x257 JUMP JUMPDEST SWAP3 SWAP2 POP POP JUMP JUMPDEST PUSH1 0x0 PUSH2 0x2F4 DUP3 PUSH2 0x40E JUMP JUMPDEST SWAP2 POP PUSH2 0x2FF DUP4 PUSH2 0x40E JUMP JUMPDEST SWAP3 POP DUP3 PUSH32 0xFFFFFFFFFFFFFFFFFFFFFFFFFFFFFFFFFFFFFFFFFFFFFFFFFFFFFFFFFFFFFFFF SUB DUP3 GT ISZERO PUSH2 0x334 JUMPI PUSH2 0x333 PUSH2 0x489 JUMP JUMPDEST JUMPDEST DUP3 DUP3 ADD SWAP1 POP SWAP3 SWAP2 POP POP JUMP JUMPDEST PUSH1 0x0 PUSH2 0x34A DUP3 PUSH2 0x40E JUMP JUMPDEST SWAP2 POP PUSH2 0x355 DUP4 PUSH2 0x40E JUMP JUMPDEST SWAP3 POP DUP3 PUSH2 0x365 JUMPI PUSH2 0x364 PUSH2 0x4B8 JUMP JUMPDEST JUMPDEST DUP3 DUP3 DIV SWAP1 POP SWAP3 SWAP2 POP POP JUMP JUMPDEST PUSH1 0x0 PUSH2 0x37B DUP3 PUSH2 0x40E JUMP JUMPDEST SWAP2 POP PUSH2 0x386 DUP4 PUSH2 0x40E JUMP JUMPDEST SWAP3 POP DUP2 PUSH32 0xFFFFFFFFFFFFFFFFFFFFFFFFFFFFFFFFFFFFFFFFFFFFFFFFFFFFFFFFFFFFFFFF DIV DUP4 GT DUP3 ISZERO ISZERO AND ISZERO PUSH2 0x3BF JUMPI PUSH2 0x3BE PUSH2 0x489 JUMP JUMPDEST JUMPDEST DUP3 DUP3 MUL SWAP1 POP SWAP3 SWAP2 POP POP JUMP JUMPDEST PUSH1 0x0 PUSH2 0x3D5 DUP3 PUSH2 0x3EE JUMP JUMPDEST SWAP1 POP SWAP2 SWAP1 POP JUMP JUMPDEST PUSH1 0x0 PUSH2 0x3E7 DUP3 PUSH2 0x3EE JUMP JUMPDEST SWAP1 POP SWAP2 SWAP1 POP JUMP JUMPDEST PUSH1 0x0 PUSH20 0xFFFFFFFFFFFFFFFFFFFFFFFFFFFFFFFFFFFFFFFF DUP3 AND SWAP1 POP SWAP2 SWAP1 POP JUMP JUMPDEST PUSH1 0x0 DUP2 SWAP1 POP SWAP2 SWAP1 POP JUMP JUMPDEST PUSH1 0x0 PUSH2 0x423 DUP3 PUSH2 0x43C JUMP JUMPDEST SWAP1 POP SWAP2 SWAP1 POP JUMP JUMPDEST PUSH1 0x0 PUSH2 0x435 DUP3 PUSH2 0x43C JUMP JUMPDEST SWAP1 POP SWAP2 SWAP1 POP JUMP JUMPDEST PUSH1 0x0 PUSH2 0x447 DUP3 PUSH2 0x4E7 JUMP JUMPDEST SWAP1 POP SWAP2 SWAP1 POP JUMP JUMPDEST PUSH1 0x0 DUP2 SWAP1 POP SWAP2 SWAP1 POP JUMP JUMPDEST PUSH1 0x0 PUSH2 0x463 DUP3 PUSH2 0x40E JUMP JUMPDEST SWAP2 POP PUSH2 0x46E DUP4 PUSH2 0x40E JUMP JUMPDEST SWAP3 POP DUP3 PUSH2 0x47E JUMPI PUSH2 0x47D PUSH2 0x4B8 JUMP JUMPDEST JUMPDEST DUP3 DUP3 MOD SWAP1 POP SWAP3 SWAP2 POP POP JUMP JUMPDEST PUSH32 0x4E487B7100000000000000000000000000000000000000000000000000000000 PUSH1 0x0 MSTORE PUSH1 0x11 PUSH1 0x4 MSTORE PUSH1 0x24 PUSH1 0x0 REVERT JUMPDEST PUSH32 0x4E487B7100000000000000000000000000000000000000000000000000000000 PUSH1 0x0 MSTORE PUSH1 0x12 PUSH1 0x4 MSTORE PUSH1 0x24 PUSH1 0x0 REVERT JUMPDEST PUSH1 0x0 DUP2 PUSH1 0x60 SHL SWAP1 POP SWAP2 SWAP1 POP JUMP INVALID LOG2 PUSH5 0x6970667358 0x22 SLT KECCAK256 0xAD PUSH3 0x115A8 DIFFICULTY STATICCALL PUSH16 0x9FEF9051BD3FD6C6554B4792AFAF19CD 0xCF PC 0xDC SWAP12 SLT 0xCA LOG4 0x23 PUSH5 0x736F6C6343 STOP ADDMOD SMOD STOP CALLER "
				},
				"gasEstimates": {
					"creation": {
						"codeDepositCost": "264400",
						"executionCost": "infinite",
						"totalCost": "infinite"
					},
					"external": {
						"MAX()": "398",
						"_rTotal()": "2429",
						"_tTotal()": "2473",
						"percent()": "infinite",
						"rate()": "2407"
					},
					"internal": {
						"computeSeed(address)": "infinite"
					}
				},
				"methodIdentifiers": {
					"MAX()": "d49d5181",
					"_rTotal()": "45e0b9d4",
					"_tTotal()": "af465a27",
					"percent()": "70ba1113",
					"rate()": "2c4e722e"
				}
			},
			"userdoc": {
				"kind": "user",
				"methods": {},
				"version": 1
			}
		}
	}
}