{
	"contracts/4_test.sol": {
		"Test": {
			"abi": [
				{
					"inputs": [],
					"name": "MAX",
					"outputs": [
						{
							"internalType": "uint256",
							"name": "",
							"type": "uint256"
						}
					],
					"stateMutability": "view",
					"type": "function"
				},
				{
					"inputs": [],
					"name": "_rTotal",
					"outputs": [
						{
							"internalType": "uint256",
							"name": "",
							"type": "uint256"
						}
					],
					"stateMutability": "view",
					"type": "function"
				},
				{
					"inputs": [],
					"name": "_tTotal",
					"outputs": [
						{
							"internalType": "uint256",
							"name": "",
							"type": "uint256"
						}
					],
					"stateMutability": "view",
					"type": "function"
				},
				{
					"inputs": [],
					"name": "rate",
					"outputs": [
						{
							"internalType": "uint256",
							"name": "",
							"type": "uint256"
						}
					],
					"stateMutability": "view",
					"type": "function"
				}
			],
			"devdoc": {
				"kind": "dev",
				"methods": {},
				"version": 1
			},
			"evm": {
				"assembly": "    /* \"contracts/4_test.sol\":74:495  contract Test{\r... */\n  mstore(0x40, 0x80)\n    /* \"contracts/4_test.sol\":273:291  5 * 10**6 * 10**18 */\n  0x0422ca8b0a00a425000000\n    /* \"contracts/4_test.sol\":248:291  uint256 public _tTotal = 5 * 10**6 * 10**18 */\n  0x00\n  sstore\n    /* \"contracts/4_test.sol\":350:357  _tTotal */\n  sload(0x00)\n    /* \"contracts/4_test.sol\":133:134  0 */\n  0x00\n    /* \"contracts/4_test.sol\":124:135  ~uint256(0) */\n  not\n    /* \"contracts/4_test.sol\":344:357  MAX % _tTotal */\n  tag_1\n  swap2\n  swap1\n  tag_2\n  jump\t// in\ntag_1:\n    /* \"contracts/4_test.sol\":133:134  0 */\n  0x00\n    /* \"contracts/4_test.sol\":124:135  ~uint256(0) */\n  not\n    /* \"contracts/4_test.sol\":337:358  MAX - (MAX % _tTotal) */\n  tag_3\n  swap2\n  swap1\n  tag_4\n  jump\t// in\ntag_3:\n    /* \"contracts/4_test.sol\":311:359  uint256 public _rTotal = (MAX - (MAX % _tTotal)) */\n  0x01\n  sstore\n    /* \"contracts/4_test.sol\":482:489  _tTotal */\n  sload(0x00)\n    /* \"contracts/4_test.sol\":472:479  _rTotal */\n  sload(0x01)\n    /* \"contracts/4_test.sol\":472:489  _rTotal / _tTotal */\n  tag_5\n  swap2\n  swap1\n  tag_6\n  jump\t// in\ntag_5:\n    /* \"contracts/4_test.sol\":450:489  uint256 public rate = _rTotal / _tTotal */\n  0x02\n  sstore\n    /* \"contracts/4_test.sol\":74:495  contract Test{\r... */\n  callvalue\n  dup1\n  iszero\n  tag_7\n  jumpi\n  0x00\n  dup1\n  revert\ntag_7:\n  pop\n  jump(tag_8)\n    /* \"#utility.yul\":7:192   */\ntag_6:\n    /* \"#utility.yul\":47:48   */\n  0x00\n    /* \"#utility.yul\":64:84   */\n  tag_11\n    /* \"#utility.yul\":82:83   */\n  dup3\n    /* \"#utility.yul\":64:84   */\n  tag_12\n  jump\t// in\ntag_11:\n    /* \"#utility.yul\":59:84   */\n  swap2\n  pop\n    /* \"#utility.yul\":98:118   */\n  tag_13\n    /* \"#utility.yul\":116:117   */\n  dup4\n    /* \"#utility.yul\":98:118   */\n  tag_12\n  jump\t// in\ntag_13:\n    /* \"#utility.yul\":93:118   */\n  swap3\n  pop\n    /* \"#utility.yul\":137:138   */\n  dup3\n    /* \"#utility.yul\":127:162   */\n  tag_14\n  jumpi\n    /* \"#utility.yul\":142:160   */\n  tag_15\n  tag_16\n  jump\t// in\ntag_15:\n    /* \"#utility.yul\":127:162   */\ntag_14:\n    /* \"#utility.yul\":184:185   */\n  dup3\n    /* \"#utility.yul\":181:182   */\n  dup3\n    /* \"#utility.yul\":177:186   */\n  div\n    /* \"#utility.yul\":172:186   */\n  swap1\n  pop\n    /* \"#utility.yul\":7:192   */\n  swap3\n  swap2\n  pop\n  pop\n  jump\t// out\n    /* \"#utility.yul\":198:389   */\ntag_4:\n    /* \"#utility.yul\":238:242   */\n  0x00\n    /* \"#utility.yul\":258:278   */\n  tag_18\n    /* \"#utility.yul\":276:277   */\n  dup3\n    /* \"#utility.yul\":258:278   */\n  tag_12\n  jump\t// in\ntag_18:\n    /* \"#utility.yul\":253:278   */\n  swap2\n  pop\n    /* \"#utility.yul\":292:312   */\n  tag_19\n    /* \"#utility.yul\":310:311   */\n  dup4\n    /* \"#utility.yul\":292:312   */\n  tag_12\n  jump\t// in\ntag_19:\n    /* \"#utility.yul\":287:312   */\n  swap3\n  pop\n    /* \"#utility.yul\":331:332   */\n  dup3\n    /* \"#utility.yul\":328:329   */\n  dup3\n    /* \"#utility.yul\":325:333   */\n  lt\n    /* \"#utility.yul\":322:356   */\n  iszero\n  tag_20\n  jumpi\n    /* \"#utility.yul\":336:354   */\n  tag_21\n  tag_22\n  jump\t// in\ntag_21:\n    /* \"#utility.yul\":322:356   */\ntag_20:\n    /* \"#utility.yul\":381:382   */\n  dup3\n    /* \"#utility.yul\":378:379   */\n  dup3\n    /* \"#utility.yul\":374:383   */\n  sub\n    /* \"#utility.yul\":366:383   */\n  swap1\n  pop\n    /* \"#utility.yul\":198:389   */\n  swap3\n  swap2\n  pop\n  pop\n  jump\t// out\n    /* \"#utility.yul\":395:472   */\ntag_12:\n    /* \"#utility.yul\":432:439   */\n  0x00\n    /* \"#utility.yul\":461:466   */\n  dup2\n    /* \"#utility.yul\":450:466   */\n  swap1\n  pop\n    /* \"#utility.yul\":395:472   */\n  swap2\n  swap1\n  pop\n  jump\t// out\n    /* \"#utility.yul\":478:654   */\ntag_2:\n    /* \"#utility.yul\":510:511   */\n  0x00\n    /* \"#utility.yul\":527:547   */\n  tag_25\n    /* \"#utility.yul\":545:546   */\n  dup3\n    /* \"#utility.yul\":527:547   */\n  tag_12\n  jump\t// in\ntag_25:\n    /* \"#utility.yul\":522:547   */\n  swap2\n  pop\n    /* \"#utility.yul\":561:581   */\n  tag_26\n    /* \"#utility.yul\":579:580   */\n  dup4\n    /* \"#utility.yul\":561:581   */\n  tag_12\n  jump\t// in\ntag_26:\n    /* \"#utility.yul\":556:581   */\n  swap3\n  pop\n    /* \"#utility.yul\":600:601   */\n  dup3\n    /* \"#utility.yul\":590:625   */\n  tag_27\n  jumpi\n    /* \"#utility.yul\":605:623   */\n  tag_28\n  tag_16\n  jump\t// in\ntag_28:\n    /* \"#utility.yul\":590:625   */\ntag_27:\n    /* \"#utility.yul\":646:647   */\n  dup3\n    /* \"#utility.yul\":643:644   */\n  dup3\n    /* \"#utility.yul\":639:648   */\n  mod\n    /* \"#utility.yul\":634:648   */\n  swap1\n  pop\n    /* \"#utility.yul\":478:654   */\n  swap3\n  swap2\n  pop\n  pop\n  jump\t// out\n    /* \"#utility.yul\":660:840   */\ntag_22:\n    /* \"#utility.yul\":708:785   */\n  0x4e487b7100000000000000000000000000000000000000000000000000000000\n    /* \"#utility.yul\":705:706   */\n  0x00\n    /* \"#utility.yul\":698:786   */\n  mstore\n    /* \"#utility.yul\":805:809   */\n  0x11\n    /* \"#utility.yul\":802:803   */\n  0x04\n    /* \"#utility.yul\":795:810   */\n  mstore\n    /* \"#utility.yul\":829:833   */\n  0x24\n    /* \"#utility.yul\":826:827   */\n  0x00\n    /* \"#utility.yul\":819:834   */\n  revert\n    /* \"#utility.yul\":846:1026   */\ntag_16:\n    /* \"#utility.yul\":894:971   */\n  0x4e487b7100000000000000000000000000000000000000000000000000000000\n    /* \"#utility.yul\":891:892   */\n  0x00\n    /* \"#utility.yul\":884:972   */\n  mstore\n    /* \"#utility.yul\":991:995   */\n  0x12\n    /* \"#utility.yul\":988:989   */\n  0x04\n    /* \"#utility.yul\":981:996   */\n  mstore\n    /* \"#utility.yul\":1015:1019   */\n  0x24\n    /* \"#utility.yul\":1012:1013   */\n  0x00\n    /* \"#utility.yul\":1005:1020   */\n  revert\n    /* \"contracts/4_test.sol\":74:495  contract Test{\r... */\ntag_8:\n  dataSize(sub_0)\n  dup1\n  dataOffset(sub_0)\n  0x00\n  codecopy\n  0x00\n  return\nstop\n\nsub_0: assembly {\n        /* \"contracts/4_test.sol\":74:495  contract Test{\r... */\n      mstore(0x40, 0x80)\n      callvalue\n      dup1\n      iszero\n      tag_1\n      jumpi\n      0x00\n      dup1\n      revert\n    tag_1:\n      pop\n      jumpi(tag_2, lt(calldatasize, 0x04))\n      shr(0xe0, calldataload(0x00))\n      dup1\n      0x2c4e722e\n      eq\n      tag_3\n      jumpi\n      dup1\n      0x45e0b9d4\n      eq\n      tag_4\n      jumpi\n      dup1\n      0xaf465a27\n      eq\n      tag_5\n      jumpi\n      dup1\n      0xd49d5181\n      eq\n      tag_6\n      jumpi\n    tag_2:\n      0x00\n      dup1\n      revert\n        /* \"contracts/4_test.sol\":450:489  uint256 public rate = _rTotal / _tTotal */\n    tag_3:\n      tag_7\n      tag_8\n      jump\t// in\n    tag_7:\n      mload(0x40)\n      tag_9\n      swap2\n      swap1\n      tag_10\n      jump\t// in\n    tag_9:\n      mload(0x40)\n      dup1\n      swap2\n      sub\n      swap1\n      return\n        /* \"contracts/4_test.sol\":311:359  uint256 public _rTotal = (MAX - (MAX % _tTotal)) */\n    tag_4:\n      tag_11\n      tag_12\n      jump\t// in\n    tag_11:\n      mload(0x40)\n      tag_13\n      swap2\n      swap1\n      tag_10\n      jump\t// in\n    tag_13:\n      mload(0x40)\n      dup1\n      swap2\n      sub\n      swap1\n      return\n        /* \"contracts/4_test.sol\":248:291  uint256 public _tTotal = 5 * 10**6 * 10**18 */\n    tag_5:\n      tag_14\n      tag_15\n      jump\t// in\n    tag_14:\n      mload(0x40)\n      tag_16\n      swap2\n      swap1\n      tag_10\n      jump\t// in\n    tag_16:\n      mload(0x40)\n      dup1\n      swap2\n      sub\n      swap1\n      return\n        /* \"contracts/4_test.sol\":94:135  uint256 public constant MAX = ~uint256(0) */\n    tag_6:\n      tag_17\n      tag_18\n      jump\t// in\n    tag_17:\n      mload(0x40)\n      tag_19\n      swap2\n      swap1\n      tag_10\n      jump\t// in\n    tag_19:\n      mload(0x40)\n      dup1\n      swap2\n      sub\n      swap1\n      return\n        /* \"contracts/4_test.sol\":450:489  uint256 public rate = _rTotal / _tTotal */\n    tag_8:\n      sload(0x02)\n      dup2\n      jump\t// out\n        /* \"contracts/4_test.sol\":311:359  uint256 public _rTotal = (MAX - (MAX % _tTotal)) */\n    tag_12:\n      sload(0x01)\n      dup2\n      jump\t// out\n        /* \"contracts/4_test.sol\":248:291  uint256 public _tTotal = 5 * 10**6 * 10**18 */\n    tag_15:\n      sload(0x00)\n      dup2\n      jump\t// out\n        /* \"contracts/4_test.sol\":94:135  uint256 public constant MAX = ~uint256(0) */\n    tag_18:\n        /* \"contracts/4_test.sol\":133:134  0 */\n      0x00\n        /* \"contracts/4_test.sol\":124:135  ~uint256(0) */\n      not\n        /* \"contracts/4_test.sol\":94:135  uint256 public constant MAX = ~uint256(0) */\n      dup2\n      jump\t// out\n        /* \"#utility.yul\":7:125   */\n    tag_21:\n        /* \"#utility.yul\":94:118   */\n      tag_23\n        /* \"#utility.yul\":112:117   */\n      dup2\n        /* \"#utility.yul\":94:118   */\n      tag_24\n      jump\t// in\n    tag_23:\n        /* \"#utility.yul\":89:92   */\n      dup3\n        /* \"#utility.yul\":82:119   */\n      mstore\n        /* \"#utility.yul\":7:125   */\n      pop\n      pop\n      jump\t// out\n        /* \"#utility.yul\":131:353   */\n    tag_10:\n        /* \"#utility.yul\":224:228   */\n      0x00\n        /* \"#utility.yul\":262:264   */\n      0x20\n        /* \"#utility.yul\":251:260   */\n      dup3\n        /* \"#utility.yul\":247:265   */\n      add\n        /* \"#utility.yul\":239:265   */\n      swap1\n      pop\n        /* \"#utility.yul\":275:346   */\n      tag_26\n        /* \"#utility.yul\":343:344   */\n      0x00\n        /* \"#utility.yul\":332:341   */\n      dup4\n        /* \"#utility.yul\":328:345   */\n      add\n        /* \"#utility.yul\":319:325   */\n      dup5\n        /* \"#utility.yul\":275:346   */\n      tag_21\n      jump\t// in\n    tag_26:\n        /* \"#utility.yul\":131:353   */\n      swap3\n      swap2\n      pop\n      pop\n      jump\t// out\n        /* \"#utility.yul\":359:436   */\n    tag_24:\n        /* \"#utility.yul\":396:403   */\n      0x00\n        /* \"#utility.yul\":425:430   */\n      dup2\n        /* \"#utility.yul\":414:430   */\n      swap1\n      pop\n        /* \"#utility.yul\":359:436   */\n      swap2\n      swap1\n      pop\n      jump\t// out\n\n    auxdata: 0xa2646970667358221220be608802b0fd43b6b064e74d0126d20fa5f997681ac7180304e8694273452ae064736f6c63430008070033\n}\n",
				"bytecode": {
					"linkReferences": {},
					"object": "60806040526a0422ca8b0a00a42500000060005560005460001961002391906100c7565b6000196100309190610089565b6001556000546001546100439190610058565b60025534801561005257600080fd5b50610156565b6000610063826100bd565b915061006e836100bd565b92508261007e5761007d610127565b5b828204905092915050565b6000610094826100bd565b915061009f836100bd565b9250828210156100b2576100b16100f8565b5b828203905092915050565b6000819050919050565b60006100d2826100bd565b91506100dd836100bd565b9250826100ed576100ec610127565b5b828206905092915050565b7f4e487b7100000000000000000000000000000000000000000000000000000000600052601160045260246000fd5b7f4e487b7100000000000000000000000000000000000000000000000000000000600052601260045260246000fd5b610131806101656000396000f3fe6080604052348015600f57600080fd5b506004361060465760003560e01c80632c4e722e14604b57806345e0b9d4146065578063af465a2714607f578063d49d5181146099575b600080fd5b605160b3565b604051605c919060d8565b60405180910390f35b606b60b9565b6040516076919060d8565b60405180910390f35b608560bf565b6040516090919060d8565b60405180910390f35b609f60c5565b60405160aa919060d8565b60405180910390f35b60025481565b60015481565b60005481565b60001981565b60d28160f1565b82525050565b600060208201905060eb600083018460cb565b92915050565b600081905091905056fea2646970667358221220be608802b0fd43b6b064e74d0126d20fa5f997681ac7180304e8694273452ae064736f6c63430008070033",
					"opcodes": "PUSH1 0x80 PUSH1 0x40 MSTORE PUSH11 0x422CA8B0A00A425000000 PUSH1 0x0 SSTORE PUSH1 0x0 SLOAD PUSH1 0x0 NOT PUSH2 0x23 SWAP2 SWAP1 PUSH2 0xC7 JUMP JUMPDEST PUSH1 0x0 NOT PUSH2 0x30 SWAP2 SWAP1 PUSH2 0x89 JUMP JUMPDEST PUSH1 0x1 SSTORE PUSH1 0x0 SLOAD PUSH1 0x1 SLOAD PUSH2 0x43 SWAP2 SWAP1 PUSH2 0x58 JUMP JUMPDEST PUSH1 0x2 SSTORE CALLVALUE DUP1 ISZERO PUSH2 0x52 JUMPI PUSH1 0x0 DUP1 REVERT JUMPDEST POP PUSH2 0x156 JUMP JUMPDEST PUSH1 0x0 PUSH2 0x63 DUP3 PUSH2 0xBD JUMP JUMPDEST SWAP2 POP PUSH2 0x6E DUP4 PUSH2 0xBD JUMP JUMPDEST SWAP3 POP DUP3 PUSH2 0x7E JUMPI PUSH2 0x7D PUSH2 0x127 JUMP JUMPDEST JUMPDEST DUP3 DUP3 DIV SWAP1 POP SWAP3 SWAP2 POP POP JUMP JUMPDEST PUSH1 0x0 PUSH2 0x94 DUP3 PUSH2 0xBD JUMP JUMPDEST SWAP2 POP PUSH2 0x9F DUP4 PUSH2 0xBD JUMP JUMPDEST SWAP3 POP DUP3 DUP3 LT ISZERO PUSH2 0xB2 JUMPI PUSH2 0xB1 PUSH2 0xF8 JUMP JUMPDEST JUMPDEST DUP3 DUP3 SUB SWAP1 POP SWAP3 SWAP2 POP POP JUMP JUMPDEST PUSH1 0x0 DUP2 SWAP1 POP SWAP2 SWAP1 POP JUMP JUMPDEST PUSH1 0x0 PUSH2 0xD2 DUP3 PUSH2 0xBD JUMP JUMPDEST SWAP2 POP PUSH2 0xDD DUP4 PUSH2 0xBD JUMP JUMPDEST SWAP3 POP DUP3 PUSH2 0xED JUMPI PUSH2 0xEC PUSH2 0x127 JUMP JUMPDEST JUMPDEST DUP3 DUP3 MOD SWAP1 POP SWAP3 SWAP2 POP POP JUMP JUMPDEST PUSH32 0x4E487B7100000000000000000000000000000000000000000000000000000000 PUSH1 0x0 MSTORE PUSH1 0x11 PUSH1 0x4 MSTORE PUSH1 0x24 PUSH1 0x0 REVERT JUMPDEST PUSH32 0x4E487B7100000000000000000000000000000000000000000000000000000000 PUSH1 0x0 MSTORE PUSH1 0x12 PUSH1 0x4 MSTORE PUSH1 0x24 PUSH1 0x0 REVERT JUMPDEST PUSH2 0x131 DUP1 PUSH2 0x165 PUSH1 0x0 CODECOPY PUSH1 0x0 RETURN INVALID PUSH1 0x80 PUSH1 0x40 MSTORE CALLVALUE DUP1 ISZERO PUSH1 0xF JUMPI PUSH1 0x0 DUP1 REVERT JUMPDEST POP PUSH1 0x4 CALLDATASIZE LT PUSH1 0x46 JUMPI PUSH1 0x0 CALLDATALOAD PUSH1 0xE0 SHR DUP1 PUSH4 0x2C4E722E EQ PUSH1 0x4B JUMPI DUP1 PUSH4 0x45E0B9D4 EQ PUSH1 0x65 JUMPI DUP1 PUSH4 0xAF465A27 EQ PUSH1 0x7F JUMPI DUP1 PUSH4 0xD49D5181 EQ PUSH1 0x99 JUMPI JUMPDEST PUSH1 0x0 DUP1 REVERT JUMPDEST PUSH1 0x51 PUSH1 0xB3 JUMP JUMPDEST PUSH1 0x40 MLOAD PUSH1 0x5C SWAP2 SWAP1 PUSH1 0xD8 JUMP JUMPDEST PUSH1 0x40 MLOAD DUP1 SWAP2 SUB SWAP1 RETURN JUMPDEST PUSH1 0x6B PUSH1 0xB9 JUMP JUMPDEST PUSH1 0x40 MLOAD PUSH1 0x76 SWAP2 SWAP1 PUSH1 0xD8 JUMP JUMPDEST PUSH1 0x40 MLOAD DUP1 SWAP2 SUB SWAP1 RETURN JUMPDEST PUSH1 0x85 PUSH1 0xBF JUMP JUMPDEST PUSH1 0x40 MLOAD PUSH1 0x90 SWAP2 SWAP1 PUSH1 0xD8 JUMP JUMPDEST PUSH1 0x40 MLOAD DUP1 SWAP2 SUB SWAP1 RETURN JUMPDEST PUSH1 0x9F PUSH1 0xC5 JUMP JUMPDEST PUSH1 0x40 MLOAD PUSH1 0xAA SWAP2 SWAP1 PUSH1 0xD8 JUMP JUMPDEST PUSH1 0x40 MLOAD DUP1 SWAP2 SUB SWAP1 RETURN JUMPDEST PUSH1 0x2 SLOAD DUP2 JUMP JUMPDEST PUSH1 0x1 SLOAD DUP2 JUMP JUMPDEST PUSH1 0x0 SLOAD DUP2 JUMP JUMPDEST PUSH1 0x0 NOT DUP2 JUMP JUMPDEST PUSH1 0xD2 DUP2 PUSH1 0xF1 JUMP JUMPDEST DUP3 MSTORE POP POP JUMP JUMPDEST PUSH1 0x0 PUSH1 0x20 DUP3 ADD SWAP1 POP PUSH1 0xEB PUSH1 0x0 DUP4 ADD DUP5 PUSH1 0xCB JUMP JUMPDEST SWAP3 SWAP2 POP POP JUMP JUMPDEST PUSH1 0x0 DUP2 SWAP1 POP SWAP2 SWAP1 POP JUMP INVALID LOG2 PUSH5 0x6970667358 0x22 SLT KECCAK256 0xBE PUSH1 0x88 MUL 0xB0 REVERT NUMBER 0xB6 0xB0 PUSH5 0xE74D0126D2 0xF 0xA5 0xF9 SWAP8 PUSH9 0x1AC7180304E8694273 GASLIMIT 0x2A 0xE0 PUSH5 0x736F6C6343 STOP ADDMOD SMOD STOP CALLER "
				},
				"gasEstimates": {
					"creation": {
						"codeDepositCost": "61000",
						"executionCost": "infinite",
						"totalCost": "infinite"
					},
					"external": {
						"MAX()": "376",
						"_rTotal()": "2429",
						"_tTotal()": "2451",
						"rate()": "2407"
					}
				},
				"methodIdentifiers": {
					"MAX()": "d49d5181",
					"_rTotal()": "45e0b9d4",
					"_tTotal()": "af465a27",
					"rate()": "2c4e722e"
				}
			},
			"userdoc": {
				"kind": "user",
				"methods": {},
				"version": 1
			}
		}
	}
}