{
	"data": {
		"bytecode": {
			"linkReferences": {},
			"object": "60806040526a0422ca8b0a00a425000000600055600054600019620000259190620000e3565b6000196200003491906200009e565b60015560005460015462000049919062000066565b6002556127106003553480156200005f57600080fd5b5062000179565b60006200007382620000d9565b91506200008083620000d9565b9250826200009357620000926200014a565b5b828204905092915050565b6000620000ab82620000d9565b9150620000b883620000d9565b925082821015620000ce57620000cd6200011b565b5b828203905092915050565b6000819050919050565b6000620000f082620000d9565b9150620000fd83620000d9565b92508262000110576200010f6200014a565b5b828206905092915050565b7f4e487b7100000000000000000000000000000000000000000000000000000000600052601160045260246000fd5b7f4e487b7100000000000000000000000000000000000000000000000000000000600052601260045260246000fd5b610b2580620001896000396000f3fe608060405234801561001057600080fd5b50600436106100935760003560e01c806345e0b9d41161006657806345e0b9d414610123578063487586971461014157806370ba111314610171578063af465a271461018f578063d49d5181146101ad57610093565b806318405ca7146100985780632a1bbc34146100c85780632c4e722e146100e757806333a7da0514610105575b600080fd5b6100b260048036038101906100ad91906106a0565b6101cb565b6040516100bf91906107d7565b60405180910390f35b6100d0610397565b6040516100de92919061080d565b60405180910390f35b6100ef6103d6565b6040516100fc91906107d7565b60405180910390f35b61010d6103dc565b60405161011a91906107d7565b60405180910390f35b61012b6103e2565b60405161013891906107d7565b60405180910390f35b61015b60048036038101906101569190610673565b6103e8565b60405161016891906107f2565b60405180910390f35b610179610520565b60405161018691906107d7565b60405180910390f35b610197610560565b6040516101a491906107d7565b60405180910390f35b6101b5610566565b6040516101c291906107d7565b60405180910390f35b6000808260ff161180156101e3575060058260ff1611155b610222576040517f08c379a0000000000000000000000000000000000000000000000000000000008152600401610219906107b7565b60405180910390fd5b60018260ff16141561026157611388614e208461023f91906108ce565b610249919061089d565b9050620186a08161025a9190610847565b9050610391565b60028260ff1614156102ad57610bb8614e20611388856102819190610928565b61028b91906108ce565b610295919061089d565b90506201d4c0816102a69190610847565b9050610391565b60038260ff1614156102f9576105dc614e20611f40856102cd9190610928565b6102d791906108ce565b6102e1919061089d565b9050620222e0816102f29190610847565b9050610391565b60048260ff16141561034557610190614e2061251c856103199190610928565b61032391906108ce565b61032d919061089d565b9050620271008161033e9190610847565b9050610391565b60058260ff161415610390576064614e206126ac856103649190610928565b61036e91906108ce565b610378919061089d565b90506202bf20816103899190610847565b9050610391565b5b92915050565b60008060006103a53361056c565b90506000600354826103b791906109f7565b90506103c2816103e8565b93506103ce81856101cb565b925050509091565b60025481565b60035481565b60015481565b60006103e86101f46003546103fd91906108ce565b610407919061089d565b821015610417576001905061051b565b816103e86101f460035461042b91906108ce565b610435919061089d565b1115801561045e57506103e861032060035461045191906108ce565b61045b919061089d565b82105b1561046c576002905061051b565b816103e861032060035461048091906108ce565b61048a919061089d565b111580156104b357506103e86103b66003546104a691906108ce565b6104b0919061089d565b82105b156104c1576003905061051b565b816103e86103b66003546104d591906108ce565b6104df919061089d565b1115801561050857506103e86103de6003546104fb91906108ce565b610505919061089d565b82105b15610516576004905061051b565b600590505b919050565b60008061052c3361056c565b90506000612710606560648461054291906109f7565b61054c91906108ce565b6105569190610847565b9050809250505090565b60005481565b60001981565b60008042905060004382856040516020016105879190610766565b6040516020818303038152906040528051906020012060001c6105aa919061089d565b4584416040516020016105bd9190610781565b6040516020818303038152906040528051906020012060001c6105e0919061089d565b44866105ec9190610847565b6105f69190610847565b6106009190610847565b61060a9190610847565b6106149190610847565b604051602001610624919061079c565b6040516020818303038152906040528051906020012060001c90508092505050919050565b60008135905061065881610ac1565b92915050565b60008135905061066d81610ad8565b92915050565b60006020828403121561068957610688610a86565b5b600061069784828501610649565b91505092915050565b600080604083850312156106b7576106b6610a86565b5b60006106c585828601610649565b92505060206106d68582860161065e565b9150509250929050565b6106f16106ec8261096e565b6109c9565b82525050565b6107086107038261095c565b6109b7565b82525050565b600061071b600e83610836565b915061072682610a98565b602082019050919050565b61073a816109a0565b82525050565b61075161074c826109a0565b6109ed565b82525050565b610760816109aa565b82525050565b600061077282846106f7565b60148201915081905092915050565b600061078d82846106e0565b60148201915081905092915050565b60006107a88284610740565b60208201915081905092915050565b600060208201905081810360008301526107d08161070e565b9050919050565b60006020820190506107ec6000830184610731565b92915050565b60006020820190506108076000830184610757565b92915050565b60006040820190506108226000830185610757565b61082f6020830184610731565b9392505050565b600082825260208201905092915050565b6000610852826109a0565b915061085d836109a0565b9250827fffffffffffffffffffffffffffffffffffffffffffffffffffffffffffffffff0382111561089257610891610a28565b5b828201905092915050565b60006108a8826109a0565b91506108b3836109a0565b9250826108c3576108c2610a57565b5b828204905092915050565b60006108d9826109a0565b91506108e4836109a0565b9250817fffffffffffffffffffffffffffffffffffffffffffffffffffffffffffffffff048311821515161561091d5761091c610a28565b5b828202905092915050565b6000610933826109a0565b915061093e836109a0565b92508282101561095157610950610a28565b5b828203905092915050565b600061096782610980565b9050919050565b600061097982610980565b9050919050565b600073ffffffffffffffffffffffffffffffffffffffff82169050919050565b6000819050919050565b600060ff82169050919050565b60006109c2826109db565b9050919050565b60006109d4826109db565b9050919050565b60006109e682610a8b565b9050919050565b6000819050919050565b6000610a02826109a0565b9150610a0d836109a0565b925082610a1d57610a1c610a57565b5b828206905092915050565b7f4e487b7100000000000000000000000000000000000000000000000000000000600052601160045260246000fd5b7f4e487b7100000000000000000000000000000000000000000000000000000000600052601260045260246000fd5b600080fd5b60008160601b9050919050565b7f696e76616c696420726172697479000000000000000000000000000000000000600082015250565b610aca816109a0565b8114610ad557600080fd5b50565b610ae1816109aa565b8114610aec57600080fd5b5056fea2646970667358221220c2df0778995e3b9064a40672e79f766e11b9511e1af6c06e3f15213c0f1fd3a264736f6c63430008070033",
			"opcodes": "PUSH1 0x80 PUSH1 0x40 MSTORE PUSH11 0x422CA8B0A00A425000000 PUSH1 0x0 SSTORE PUSH1 0x0 SLOAD PUSH1 0x0 NOT PUSH3 0x25 SWAP2 SWAP1 PUSH3 0xE3 JUMP JUMPDEST PUSH1 0x0 NOT PUSH3 0x34 SWAP2 SWAP1 PUSH3 0x9E JUMP JUMPDEST PUSH1 0x1 SSTORE PUSH1 0x0 SLOAD PUSH1 0x1 SLOAD PUSH3 0x49 SWAP2 SWAP1 PUSH3 0x66 JUMP JUMPDEST PUSH1 0x2 SSTORE PUSH2 0x2710 PUSH1 0x3 SSTORE CALLVALUE DUP1 ISZERO PUSH3 0x5F JUMPI PUSH1 0x0 DUP1 REVERT JUMPDEST POP PUSH3 0x179 JUMP JUMPDEST PUSH1 0x0 PUSH3 0x73 DUP3 PUSH3 0xD9 JUMP JUMPDEST SWAP2 POP PUSH3 0x80 DUP4 PUSH3 0xD9 JUMP JUMPDEST SWAP3 POP DUP3 PUSH3 0x93 JUMPI PUSH3 0x92 PUSH3 0x14A JUMP JUMPDEST JUMPDEST DUP3 DUP3 DIV SWAP1 POP SWAP3 SWAP2 POP POP JUMP JUMPDEST PUSH1 0x0 PUSH3 0xAB DUP3 PUSH3 0xD9 JUMP JUMPDEST SWAP2 POP PUSH3 0xB8 DUP4 PUSH3 0xD9 JUMP JUMPDEST SWAP3 POP DUP3 DUP3 LT ISZERO PUSH3 0xCE JUMPI PUSH3 0xCD PUSH3 0x11B JUMP JUMPDEST JUMPDEST DUP3 DUP3 SUB SWAP1 POP SWAP3 SWAP2 POP POP JUMP JUMPDEST PUSH1 0x0 DUP2 SWAP1 POP SWAP2 SWAP1 POP JUMP JUMPDEST PUSH1 0x0 PUSH3 0xF0 DUP3 PUSH3 0xD9 JUMP JUMPDEST SWAP2 POP PUSH3 0xFD DUP4 PUSH3 0xD9 JUMP JUMPDEST SWAP3 POP DUP3 PUSH3 0x110 JUMPI PUSH3 0x10F PUSH3 0x14A JUMP JUMPDEST JUMPDEST DUP3 DUP3 MOD SWAP1 POP SWAP3 SWAP2 POP POP JUMP JUMPDEST PUSH32 0x4E487B7100000000000000000000000000000000000000000000000000000000 PUSH1 0x0 MSTORE PUSH1 0x11 PUSH1 0x4 MSTORE PUSH1 0x24 PUSH1 0x0 REVERT JUMPDEST PUSH32 0x4E487B7100000000000000000000000000000000000000000000000000000000 PUSH1 0x0 MSTORE PUSH1 0x12 PUSH1 0x4 MSTORE PUSH1 0x24 PUSH1 0x0 REVERT JUMPDEST PUSH2 0xB25 DUP1 PUSH3 0x189 PUSH1 0x0 CODECOPY PUSH1 0x0 RETURN INVALID PUSH1 0x80 PUSH1 0x40 MSTORE CALLVALUE DUP1 ISZERO PUSH2 0x10 JUMPI PUSH1 0x0 DUP1 REVERT JUMPDEST POP PUSH1 0x4 CALLDATASIZE LT PUSH2 0x93 JUMPI PUSH1 0x0 CALLDATALOAD PUSH1 0xE0 SHR DUP1 PUSH4 0x45E0B9D4 GT PUSH2 0x66 JUMPI DUP1 PUSH4 0x45E0B9D4 EQ PUSH2 0x123 JUMPI DUP1 PUSH4 0x48758697 EQ PUSH2 0x141 JUMPI DUP1 PUSH4 0x70BA1113 EQ PUSH2 0x171 JUMPI DUP1 PUSH4 0xAF465A27 EQ PUSH2 0x18F JUMPI DUP1 PUSH4 0xD49D5181 EQ PUSH2 0x1AD JUMPI PUSH2 0x93 JUMP JUMPDEST DUP1 PUSH4 0x18405CA7 EQ PUSH2 0x98 JUMPI DUP1 PUSH4 0x2A1BBC34 EQ PUSH2 0xC8 JUMPI DUP1 PUSH4 0x2C4E722E EQ PUSH2 0xE7 JUMPI DUP1 PUSH4 0x33A7DA05 EQ PUSH2 0x105 JUMPI JUMPDEST PUSH1 0x0 DUP1 REVERT JUMPDEST PUSH2 0xB2 PUSH1 0x4 DUP1 CALLDATASIZE SUB DUP2 ADD SWAP1 PUSH2 0xAD SWAP2 SWAP1 PUSH2 0x6A0 JUMP JUMPDEST PUSH2 0x1CB JUMP JUMPDEST PUSH1 0x40 MLOAD PUSH2 0xBF SWAP2 SWAP1 PUSH2 0x7D7 JUMP JUMPDEST PUSH1 0x40 MLOAD DUP1 SWAP2 SUB SWAP1 RETURN JUMPDEST PUSH2 0xD0 PUSH2 0x397 JUMP JUMPDEST PUSH1 0x40 MLOAD PUSH2 0xDE SWAP3 SWAP2 SWAP1 PUSH2 0x80D JUMP JUMPDEST PUSH1 0x40 MLOAD DUP1 SWAP2 SUB SWAP1 RETURN JUMPDEST PUSH2 0xEF PUSH2 0x3D6 JUMP JUMPDEST PUSH1 0x40 MLOAD PUSH2 0xFC SWAP2 SWAP1 PUSH2 0x7D7 JUMP JUMPDEST PUSH1 0x40 MLOAD DUP1 SWAP2 SUB SWAP1 RETURN JUMPDEST PUSH2 0x10D PUSH2 0x3DC JUMP JUMPDEST PUSH1 0x40 MLOAD PUSH2 0x11A SWAP2 SWAP1 PUSH2 0x7D7 JUMP JUMPDEST PUSH1 0x40 MLOAD DUP1 SWAP2 SUB SWAP1 RETURN JUMPDEST PUSH2 0x12B PUSH2 0x3E2 JUMP JUMPDEST PUSH1 0x40 MLOAD PUSH2 0x138 SWAP2 SWAP1 PUSH2 0x7D7 JUMP JUMPDEST PUSH1 0x40 MLOAD DUP1 SWAP2 SUB SWAP1 RETURN JUMPDEST PUSH2 0x15B PUSH1 0x4 DUP1 CALLDATASIZE SUB DUP2 ADD SWAP1 PUSH2 0x156 SWAP2 SWAP1 PUSH2 0x673 JUMP JUMPDEST PUSH2 0x3E8 JUMP JUMPDEST PUSH1 0x40 MLOAD PUSH2 0x168 SWAP2 SWAP1 PUSH2 0x7F2 JUMP JUMPDEST PUSH1 0x40 MLOAD DUP1 SWAP2 SUB SWAP1 RETURN JUMPDEST PUSH2 0x179 PUSH2 0x520 JUMP JUMPDEST PUSH1 0x40 MLOAD PUSH2 0x186 SWAP2 SWAP1 PUSH2 0x7D7 JUMP JUMPDEST PUSH1 0x40 MLOAD DUP1 SWAP2 SUB SWAP1 RETURN JUMPDEST PUSH2 0x197 PUSH2 0x560 JUMP JUMPDEST PUSH1 0x40 MLOAD PUSH2 0x1A4 SWAP2 SWAP1 PUSH2 0x7D7 JUMP JUMPDEST PUSH1 0x40 MLOAD DUP1 SWAP2 SUB SWAP1 RETURN JUMPDEST PUSH2 0x1B5 PUSH2 0x566 JUMP JUMPDEST PUSH1 0x40 MLOAD PUSH2 0x1C2 SWAP2 SWAP1 PUSH2 0x7D7 JUMP JUMPDEST PUSH1 0x40 MLOAD DUP1 SWAP2 SUB SWAP1 RETURN JUMPDEST PUSH1 0x0 DUP1 DUP3 PUSH1 0xFF AND GT DUP1 ISZERO PUSH2 0x1E3 JUMPI POP PUSH1 0x5 DUP3 PUSH1 0xFF AND GT ISZERO JUMPDEST PUSH2 0x222 JUMPI PUSH1 0x40 MLOAD PUSH32 0x8C379A000000000000000000000000000000000000000000000000000000000 DUP2 MSTORE PUSH1 0x4 ADD PUSH2 0x219 SWAP1 PUSH2 0x7B7 JUMP JUMPDEST PUSH1 0x40 MLOAD DUP1 SWAP2 SUB SWAP1 REVERT JUMPDEST PUSH1 0x1 DUP3 PUSH1 0xFF AND EQ ISZERO PUSH2 0x261 JUMPI PUSH2 0x1388 PUSH2 0x4E20 DUP5 PUSH2 0x23F SWAP2 SWAP1 PUSH2 0x8CE JUMP JUMPDEST PUSH2 0x249 SWAP2 SWAP1 PUSH2 0x89D JUMP JUMPDEST SWAP1 POP PUSH3 0x186A0 DUP2 PUSH2 0x25A SWAP2 SWAP1 PUSH2 0x847 JUMP JUMPDEST SWAP1 POP PUSH2 0x391 JUMP JUMPDEST PUSH1 0x2 DUP3 PUSH1 0xFF AND EQ ISZERO PUSH2 0x2AD JUMPI PUSH2 0xBB8 PUSH2 0x4E20 PUSH2 0x1388 DUP6 PUSH2 0x281 SWAP2 SWAP1 PUSH2 0x928 JUMP JUMPDEST PUSH2 0x28B SWAP2 SWAP1 PUSH2 0x8CE JUMP JUMPDEST PUSH2 0x295 SWAP2 SWAP1 PUSH2 0x89D JUMP JUMPDEST SWAP1 POP PUSH3 0x1D4C0 DUP2 PUSH2 0x2A6 SWAP2 SWAP1 PUSH2 0x847 JUMP JUMPDEST SWAP1 POP PUSH2 0x391 JUMP JUMPDEST PUSH1 0x3 DUP3 PUSH1 0xFF AND EQ ISZERO PUSH2 0x2F9 JUMPI PUSH2 0x5DC PUSH2 0x4E20 PUSH2 0x1F40 DUP6 PUSH2 0x2CD SWAP2 SWAP1 PUSH2 0x928 JUMP JUMPDEST PUSH2 0x2D7 SWAP2 SWAP1 PUSH2 0x8CE JUMP JUMPDEST PUSH2 0x2E1 SWAP2 SWAP1 PUSH2 0x89D JUMP JUMPDEST SWAP1 POP PUSH3 0x222E0 DUP2 PUSH2 0x2F2 SWAP2 SWAP1 PUSH2 0x847 JUMP JUMPDEST SWAP1 POP PUSH2 0x391 JUMP JUMPDEST PUSH1 0x4 DUP3 PUSH1 0xFF AND EQ ISZERO PUSH2 0x345 JUMPI PUSH2 0x190 PUSH2 0x4E20 PUSH2 0x251C DUP6 PUSH2 0x319 SWAP2 SWAP1 PUSH2 0x928 JUMP JUMPDEST PUSH2 0x323 SWAP2 SWAP1 PUSH2 0x8CE JUMP JUMPDEST PUSH2 0x32D SWAP2 SWAP1 PUSH2 0x89D JUMP JUMPDEST SWAP1 POP PUSH3 0x27100 DUP2 PUSH2 0x33E SWAP2 SWAP1 PUSH2 0x847 JUMP JUMPDEST SWAP1 POP PUSH2 0x391 JUMP JUMPDEST PUSH1 0x5 DUP3 PUSH1 0xFF AND EQ ISZERO PUSH2 0x390 JUMPI PUSH1 0x64 PUSH2 0x4E20 PUSH2 0x26AC DUP6 PUSH2 0x364 SWAP2 SWAP1 PUSH2 0x928 JUMP JUMPDEST PUSH2 0x36E SWAP2 SWAP1 PUSH2 0x8CE JUMP JUMPDEST PUSH2 0x378 SWAP2 SWAP1 PUSH2 0x89D JUMP JUMPDEST SWAP1 POP PUSH3 0x2BF20 DUP2 PUSH2 0x389 SWAP2 SWAP1 PUSH2 0x847 JUMP JUMPDEST SWAP1 POP PUSH2 0x391 JUMP JUMPDEST JUMPDEST SWAP3 SWAP2 POP POP JUMP JUMPDEST PUSH1 0x0 DUP1 PUSH1 0x0 PUSH2 0x3A5 CALLER PUSH2 0x56C JUMP JUMPDEST SWAP1 POP PUSH1 0x0 PUSH1 0x3 SLOAD DUP3 PUSH2 0x3B7 SWAP2 SWAP1 PUSH2 0x9F7 JUMP JUMPDEST SWAP1 POP PUSH2 0x3C2 DUP2 PUSH2 0x3E8 JUMP JUMPDEST SWAP4 POP PUSH2 0x3CE DUP2 DUP6 PUSH2 0x1CB JUMP JUMPDEST SWAP3 POP POP POP SWAP1 SWAP2 JUMP JUMPDEST PUSH1 0x2 SLOAD DUP2 JUMP JUMPDEST PUSH1 0x3 SLOAD DUP2 JUMP JUMPDEST PUSH1 0x1 SLOAD DUP2 JUMP JUMPDEST PUSH1 0x0 PUSH2 0x3E8 PUSH2 0x1F4 PUSH1 0x3 SLOAD PUSH2 0x3FD SWAP2 SWAP1 PUSH2 0x8CE JUMP JUMPDEST PUSH2 0x407 SWAP2 SWAP1 PUSH2 0x89D JUMP JUMPDEST DUP3 LT ISZERO PUSH2 0x417 JUMPI PUSH1 0x1 SWAP1 POP PUSH2 0x51B JUMP JUMPDEST DUP2 PUSH2 0x3E8 PUSH2 0x1F4 PUSH1 0x3 SLOAD PUSH2 0x42B SWAP2 SWAP1 PUSH2 0x8CE JUMP JUMPDEST PUSH2 0x435 SWAP2 SWAP1 PUSH2 0x89D JUMP JUMPDEST GT ISZERO DUP1 ISZERO PUSH2 0x45E JUMPI POP PUSH2 0x3E8 PUSH2 0x320 PUSH1 0x3 SLOAD PUSH2 0x451 SWAP2 SWAP1 PUSH2 0x8CE JUMP JUMPDEST PUSH2 0x45B SWAP2 SWAP1 PUSH2 0x89D JUMP JUMPDEST DUP3 LT JUMPDEST ISZERO PUSH2 0x46C JUMPI PUSH1 0x2 SWAP1 POP PUSH2 0x51B JUMP JUMPDEST DUP2 PUSH2 0x3E8 PUSH2 0x320 PUSH1 0x3 SLOAD PUSH2 0x480 SWAP2 SWAP1 PUSH2 0x8CE JUMP JUMPDEST PUSH2 0x48A SWAP2 SWAP1 PUSH2 0x89D JUMP JUMPDEST GT ISZERO DUP1 ISZERO PUSH2 0x4B3 JUMPI POP PUSH2 0x3E8 PUSH2 0x3B6 PUSH1 0x3 SLOAD PUSH2 0x4A6 SWAP2 SWAP1 PUSH2 0x8CE JUMP JUMPDEST PUSH2 0x4B0 SWAP2 SWAP1 PUSH2 0x89D JUMP JUMPDEST DUP3 LT JUMPDEST ISZERO PUSH2 0x4C1 JUMPI PUSH1 0x3 SWAP1 POP PUSH2 0x51B JUMP JUMPDEST DUP2 PUSH2 0x3E8 PUSH2 0x3B6 PUSH1 0x3 SLOAD PUSH2 0x4D5 SWAP2 SWAP1 PUSH2 0x8CE JUMP JUMPDEST PUSH2 0x4DF SWAP2 SWAP1 PUSH2 0x89D JUMP JUMPDEST GT ISZERO DUP1 ISZERO PUSH2 0x508 JUMPI POP PUSH2 0x3E8 PUSH2 0x3DE PUSH1 0x3 SLOAD PUSH2 0x4FB SWAP2 SWAP1 PUSH2 0x8CE JUMP JUMPDEST PUSH2 0x505 SWAP2 SWAP1 PUSH2 0x89D JUMP JUMPDEST DUP3 LT JUMPDEST ISZERO PUSH2 0x516 JUMPI PUSH1 0x4 SWAP1 POP PUSH2 0x51B JUMP JUMPDEST PUSH1 0x5 SWAP1 POP JUMPDEST SWAP2 SWAP1 POP JUMP JUMPDEST PUSH1 0x0 DUP1 PUSH2 0x52C CALLER PUSH2 0x56C JUMP JUMPDEST SWAP1 POP PUSH1 0x0 PUSH2 0x2710 PUSH1 0x65 PUSH1 0x64 DUP5 PUSH2 0x542 SWAP2 SWAP1 PUSH2 0x9F7 JUMP JUMPDEST PUSH2 0x54C SWAP2 SWAP1 PUSH2 0x8CE JUMP JUMPDEST PUSH2 0x556 SWAP2 SWAP1 PUSH2 0x847 JUMP JUMPDEST SWAP1 POP DUP1 SWAP3 POP POP POP SWAP1 JUMP JUMPDEST PUSH1 0x0 SLOAD DUP2 JUMP JUMPDEST PUSH1 0x0 NOT DUP2 JUMP JUMPDEST PUSH1 0x0 DUP1 TIMESTAMP SWAP1 POP PUSH1 0x0 NUMBER DUP3 DUP6 PUSH1 0x40 MLOAD PUSH1 0x20 ADD PUSH2 0x587 SWAP2 SWAP1 PUSH2 0x766 JUMP JUMPDEST PUSH1 0x40 MLOAD PUSH1 0x20 DUP2 DUP4 SUB SUB DUP2 MSTORE SWAP1 PUSH1 0x40 MSTORE DUP1 MLOAD SWAP1 PUSH1 0x20 ADD KECCAK256 PUSH1 0x0 SHR PUSH2 0x5AA SWAP2 SWAP1 PUSH2 0x89D JUMP JUMPDEST GASLIMIT DUP5 COINBASE PUSH1 0x40 MLOAD PUSH1 0x20 ADD PUSH2 0x5BD SWAP2 SWAP1 PUSH2 0x781 JUMP JUMPDEST PUSH1 0x40 MLOAD PUSH1 0x20 DUP2 DUP4 SUB SUB DUP2 MSTORE SWAP1 PUSH1 0x40 MSTORE DUP1 MLOAD SWAP1 PUSH1 0x20 ADD KECCAK256 PUSH1 0x0 SHR PUSH2 0x5E0 SWAP2 SWAP1 PUSH2 0x89D JUMP JUMPDEST DIFFICULTY DUP7 PUSH2 0x5EC SWAP2 SWAP1 PUSH2 0x847 JUMP JUMPDEST PUSH2 0x5F6 SWAP2 SWAP1 PUSH2 0x847 JUMP JUMPDEST PUSH2 0x600 SWAP2 SWAP1 PUSH2 0x847 JUMP JUMPDEST PUSH2 0x60A SWAP2 SWAP1 PUSH2 0x847 JUMP JUMPDEST PUSH2 0x614 SWAP2 SWAP1 PUSH2 0x847 JUMP JUMPDEST PUSH1 0x40 MLOAD PUSH1 0x20 ADD PUSH2 0x624 SWAP2 SWAP1 PUSH2 0x79C JUMP JUMPDEST PUSH1 0x40 MLOAD PUSH1 0x20 DUP2 DUP4 SUB SUB DUP2 MSTORE SWAP1 PUSH1 0x40 MSTORE DUP1 MLOAD SWAP1 PUSH1 0x20 ADD KECCAK256 PUSH1 0x0 SHR SWAP1 POP DUP1 SWAP3 POP POP POP SWAP2 SWAP1 POP JUMP JUMPDEST PUSH1 0x0 DUP2 CALLDATALOAD SWAP1 POP PUSH2 0x658 DUP2 PUSH2 0xAC1 JUMP JUMPDEST SWAP3 SWAP2 POP POP JUMP JUMPDEST PUSH1 0x0 DUP2 CALLDATALOAD SWAP1 POP PUSH2 0x66D DUP2 PUSH2 0xAD8 JUMP JUMPDEST SWAP3 SWAP2 POP POP JUMP JUMPDEST PUSH1 0x0 PUSH1 0x20 DUP3 DUP5 SUB SLT ISZERO PUSH2 0x689 JUMPI PUSH2 0x688 PUSH2 0xA86 JUMP JUMPDEST JUMPDEST PUSH1 0x0 PUSH2 0x697 DUP5 DUP3 DUP6 ADD PUSH2 0x649 JUMP JUMPDEST SWAP2 POP POP SWAP3 SWAP2 POP POP JUMP JUMPDEST PUSH1 0x0 DUP1 PUSH1 0x40 DUP4 DUP6 SUB SLT ISZERO PUSH2 0x6B7 JUMPI PUSH2 0x6B6 PUSH2 0xA86 JUMP JUMPDEST JUMPDEST PUSH1 0x0 PUSH2 0x6C5 DUP6 DUP3 DUP7 ADD PUSH2 0x649 JUMP JUMPDEST SWAP3 POP POP PUSH1 0x20 PUSH2 0x6D6 DUP6 DUP3 DUP7 ADD PUSH2 0x65E JUMP JUMPDEST SWAP2 POP POP SWAP3 POP SWAP3 SWAP1 POP JUMP JUMPDEST PUSH2 0x6F1 PUSH2 0x6EC DUP3 PUSH2 0x96E JUMP JUMPDEST PUSH2 0x9C9 JUMP JUMPDEST DUP3 MSTORE POP POP JUMP JUMPDEST PUSH2 0x708 PUSH2 0x703 DUP3 PUSH2 0x95C JUMP JUMPDEST PUSH2 0x9B7 JUMP JUMPDEST DUP3 MSTORE POP POP JUMP JUMPDEST PUSH1 0x0 PUSH2 0x71B PUSH1 0xE DUP4 PUSH2 0x836 JUMP JUMPDEST SWAP2 POP PUSH2 0x726 DUP3 PUSH2 0xA98 JUMP JUMPDEST PUSH1 0x20 DUP3 ADD SWAP1 POP SWAP2 SWAP1 POP JUMP JUMPDEST PUSH2 0x73A DUP2 PUSH2 0x9A0 JUMP JUMPDEST DUP3 MSTORE POP POP JUMP JUMPDEST PUSH2 0x751 PUSH2 0x74C DUP3 PUSH2 0x9A0 JUMP JUMPDEST PUSH2 0x9ED JUMP JUMPDEST DUP3 MSTORE POP POP JUMP JUMPDEST PUSH2 0x760 DUP2 PUSH2 0x9AA JUMP JUMPDEST DUP3 MSTORE POP POP JUMP JUMPDEST PUSH1 0x0 PUSH2 0x772 DUP3 DUP5 PUSH2 0x6F7 JUMP JUMPDEST PUSH1 0x14 DUP3 ADD SWAP2 POP DUP2 SWAP1 POP SWAP3 SWAP2 POP POP JUMP JUMPDEST PUSH1 0x0 PUSH2 0x78D DUP3 DUP5 PUSH2 0x6E0 JUMP JUMPDEST PUSH1 0x14 DUP3 ADD SWAP2 POP DUP2 SWAP1 POP SWAP3 SWAP2 POP POP JUMP JUMPDEST PUSH1 0x0 PUSH2 0x7A8 DUP3 DUP5 PUSH2 0x740 JUMP JUMPDEST PUSH1 0x20 DUP3 ADD SWAP2 POP DUP2 SWAP1 POP SWAP3 SWAP2 POP POP JUMP JUMPDEST PUSH1 0x0 PUSH1 0x20 DUP3 ADD SWAP1 POP DUP2 DUP2 SUB PUSH1 0x0 DUP4 ADD MSTORE PUSH2 0x7D0 DUP2 PUSH2 0x70E JUMP JUMPDEST SWAP1 POP SWAP2 SWAP1 POP JUMP JUMPDEST PUSH1 0x0 PUSH1 0x20 DUP3 ADD SWAP1 POP PUSH2 0x7EC PUSH1 0x0 DUP4 ADD DUP5 PUSH2 0x731 JUMP JUMPDEST SWAP3 SWAP2 POP POP JUMP JUMPDEST PUSH1 0x0 PUSH1 0x20 DUP3 ADD SWAP1 POP PUSH2 0x807 PUSH1 0x0 DUP4 ADD DUP5 PUSH2 0x757 JUMP JUMPDEST SWAP3 SWAP2 POP POP JUMP JUMPDEST PUSH1 0x0 PUSH1 0x40 DUP3 ADD SWAP1 POP PUSH2 0x822 PUSH1 0x0 DUP4 ADD DUP6 PUSH2 0x757 JUMP JUMPDEST PUSH2 0x82F PUSH1 0x20 DUP4 ADD DUP5 PUSH2 0x731 JUMP JUMPDEST SWAP4 SWAP3 POP POP POP JUMP JUMPDEST PUSH1 0x0 DUP3 DUP3 MSTORE PUSH1 0x20 DUP3 ADD SWAP1 POP SWAP3 SWAP2 POP POP JUMP JUMPDEST PUSH1 0x0 PUSH2 0x852 DUP3 PUSH2 0x9A0 JUMP JUMPDEST SWAP2 POP PUSH2 0x85D DUP4 PUSH2 0x9A0 JUMP JUMPDEST SWAP3 POP DUP3 PUSH32 0xFFFFFFFFFFFFFFFFFFFFFFFFFFFFFFFFFFFFFFFFFFFFFFFFFFFFFFFFFFFFFFFF SUB DUP3 GT ISZERO PUSH2 0x892 JUMPI PUSH2 0x891 PUSH2 0xA28 JUMP JUMPDEST JUMPDEST DUP3 DUP3 ADD SWAP1 POP SWAP3 SWAP2 POP POP JUMP JUMPDEST PUSH1 0x0 PUSH2 0x8A8 DUP3 PUSH2 0x9A0 JUMP JUMPDEST SWAP2 POP PUSH2 0x8B3 DUP4 PUSH2 0x9A0 JUMP JUMPDEST SWAP3 POP DUP3 PUSH2 0x8C3 JUMPI PUSH2 0x8C2 PUSH2 0xA57 JUMP JUMPDEST JUMPDEST DUP3 DUP3 DIV SWAP1 POP SWAP3 SWAP2 POP POP JUMP JUMPDEST PUSH1 0x0 PUSH2 0x8D9 DUP3 PUSH2 0x9A0 JUMP JUMPDEST SWAP2 POP PUSH2 0x8E4 DUP4 PUSH2 0x9A0 JUMP JUMPDEST SWAP3 POP DUP2 PUSH32 0xFFFFFFFFFFFFFFFFFFFFFFFFFFFFFFFFFFFFFFFFFFFFFFFFFFFFFFFFFFFFFFFF DIV DUP4 GT DUP3 ISZERO ISZERO AND ISZERO PUSH2 0x91D JUMPI PUSH2 0x91C PUSH2 0xA28 JUMP JUMPDEST JUMPDEST DUP3 DUP3 MUL SWAP1 POP SWAP3 SWAP2 POP POP JUMP JUMPDEST PUSH1 0x0 PUSH2 0x933 DUP3 PUSH2 0x9A0 JUMP JUMPDEST SWAP2 POP PUSH2 0x93E DUP4 PUSH2 0x9A0 JUMP JUMPDEST SWAP3 POP DUP3 DUP3 LT ISZERO PUSH2 0x951 JUMPI PUSH2 0x950 PUSH2 0xA28 JUMP JUMPDEST JUMPDEST DUP3 DUP3 SUB SWAP1 POP SWAP3 SWAP2 POP POP JUMP JUMPDEST PUSH1 0x0 PUSH2 0x967 DUP3 PUSH2 0x980 JUMP JUMPDEST SWAP1 POP SWAP2 SWAP1 POP JUMP JUMPDEST PUSH1 0x0 PUSH2 0x979 DUP3 PUSH2 0x980 JUMP JUMPDEST SWAP1 POP SWAP2 SWAP1 POP JUMP JUMPDEST PUSH1 0x0 PUSH20 0xFFFFFFFFFFFFFFFFFFFFFFFFFFFFFFFFFFFFFFFF DUP3 AND SWAP1 POP SWAP2 SWAP1 POP JUMP JUMPDEST PUSH1 0x0 DUP2 SWAP1 POP SWAP2 SWAP1 POP JUMP JUMPDEST PUSH1 0x0 PUSH1 0xFF DUP3 AND SWAP1 POP SWAP2 SWAP1 POP JUMP JUMPDEST PUSH1 0x0 PUSH2 0x9C2 DUP3 PUSH2 0x9DB JUMP JUMPDEST SWAP1 POP SWAP2 SWAP1 POP JUMP JUMPDEST PUSH1 0x0 PUSH2 0x9D4 DUP3 PUSH2 0x9DB JUMP JUMPDEST SWAP1 POP SWAP2 SWAP1 POP JUMP JUMPDEST PUSH1 0x0 PUSH2 0x9E6 DUP3 PUSH2 0xA8B JUMP JUMPDEST SWAP1 POP SWAP2 SWAP1 POP JUMP JUMPDEST PUSH1 0x0 DUP2 SWAP1 POP SWAP2 SWAP1 POP JUMP JUMPDEST PUSH1 0x0 PUSH2 0xA02 DUP3 PUSH2 0x9A0 JUMP JUMPDEST SWAP2 POP PUSH2 0xA0D DUP4 PUSH2 0x9A0 JUMP JUMPDEST SWAP3 POP DUP3 PUSH2 0xA1D JUMPI PUSH2 0xA1C PUSH2 0xA57 JUMP JUMPDEST JUMPDEST DUP3 DUP3 MOD SWAP1 POP SWAP3 SWAP2 POP POP JUMP JUMPDEST PUSH32 0x4E487B7100000000000000000000000000000000000000000000000000000000 PUSH1 0x0 MSTORE PUSH1 0x11 PUSH1 0x4 MSTORE PUSH1 0x24 PUSH1 0x0 REVERT JUMPDEST PUSH32 0x4E487B7100000000000000000000000000000000000000000000000000000000 PUSH1 0x0 MSTORE PUSH1 0x12 PUSH1 0x4 MSTORE PUSH1 0x24 PUSH1 0x0 REVERT JUMPDEST PUSH1 0x0 DUP1 REVERT JUMPDEST PUSH1 0x0 DUP2 PUSH1 0x60 SHL SWAP1 POP SWAP2 SWAP1 POP JUMP JUMPDEST PUSH32 0x696E76616C696420726172697479000000000000000000000000000000000000 PUSH1 0x0 DUP3 ADD MSTORE POP JUMP JUMPDEST PUSH2 0xACA DUP2 PUSH2 0x9A0 JUMP JUMPDEST DUP2 EQ PUSH2 0xAD5 JUMPI PUSH1 0x0 DUP1 REVERT JUMPDEST POP JUMP JUMPDEST PUSH2 0xAE1 DUP2 PUSH2 0x9AA JUMP JUMPDEST DUP2 EQ PUSH2 0xAEC JUMPI PUSH1 0x0 DUP1 REVERT JUMPDEST POP JUMP INVALID LOG2 PUSH5 0x6970667358 0x22 SLT KECCAK256 0xC2 0xDF SMOD PUSH25 0x995E3B9064A40672E79F766E11B9511E1AF6C06E3F15213C0F 0x1F 0xD3 LOG2 PUSH5 0x736F6C6343 STOP ADDMOD SMOD STOP CALLER "
		},
		"gasEstimates": {
			"creation": {
				"codeDepositCost": "570600",
				"executionCost": "infinite",
				"totalCost": "infinite"
			},
			"external": {
				"MAX()": "420",
				"_rTotal()": "2429",
				"_tTotal()": "2495",
				"generate()": "infinite",
				"getProductivity(uint256,uint8)": "infinite",
				"getRarity(uint256)": "infinite",
				"percent()": "infinite",
				"qualityBase()": "2496",
				"rate()": "2474"
			},
			"internal": {
				"computeSeed(address)": "infinite"
			}
		},
		"methodIdentifiers": {
			"MAX()": "d49d5181",
			"_rTotal()": "45e0b9d4",
			"_tTotal()": "af465a27",
			"generate()": "2a1bbc34",
			"getProductivity(uint256,uint8)": "18405ca7",
			"getRarity(uint256)": "48758697",
			"percent()": "70ba1113",
			"qualityBase()": "33a7da05",
			"rate()": "2c4e722e"
		}
	},
	"abi": [
		{
			"inputs": [],
			"name": "MAX",
			"outputs": [
				{
					"internalType": "uint256",
					"name": "",
					"type": "uint256"
				}
			],
			"stateMutability": "view",
			"type": "function"
		},
		{
			"inputs": [],
			"name": "_rTotal",
			"outputs": [
				{
					"internalType": "uint256",
					"name": "",
					"type": "uint256"
				}
			],
			"stateMutability": "view",
			"type": "function"
		},
		{
			"inputs": [],
			"name": "_tTotal",
			"outputs": [
				{
					"internalType": "uint256",
					"name": "",
					"type": "uint256"
				}
			],
			"stateMutability": "view",
			"type": "function"
		},
		{
			"inputs": [],
			"name": "generate",
			"outputs": [
				{
					"internalType": "uint8",
					"name": "rarity",
					"type": "uint8"
				},
				{
					"internalType": "uint256",
					"name": "productivity",
					"type": "uint256"
				}
			],
			"stateMutability": "view",
			"type": "function"
		},
		{
			"inputs": [
				{
					"internalType": "uint256",
					"name": "_quality",
					"type": "uint256"
				},
				{
					"internalType": "uint8",
					"name": "_rarity",
					"type": "uint8"
				}
			],
			"name": "getProductivity",
			"outputs": [
				{
					"internalType": "uint256",
					"name": "unfold",
					"type": "uint256"
				}
			],
			"stateMutability": "view",
			"type": "function"
		},
		{
			"inputs": [
				{
					"internalType": "uint256",
					"name": "quality",
					"type": "uint256"
				}
			],
			"name": "getRarity",
			"outputs": [
				{
					"internalType": "uint8",
					"name": "",
					"type": "uint8"
				}
			],
			"stateMutability": "view",
			"type": "function"
		},
		{
			"inputs": [],
			"name": "percent",
			"outputs": [
				{
					"internalType": "uint256",
					"name": "",
					"type": "uint256"
				}
			],
			"stateMutability": "view",
			"type": "function"
		},
		{
			"inputs": [],
			"name": "qualityBase",
			"outputs": [
				{
					"internalType": "uint256",
					"name": "",
					"type": "uint256"
				}
			],
			"stateMutability": "view",
			"type": "function"
		},
		{
			"inputs": [],
			"name": "rate",
			"outputs": [
				{
					"internalType": "uint256",
					"name": "",
					"type": "uint256"
				}
			],
			"stateMutability": "view",
			"type": "function"
		}
	]
}